{
	"data": {
		"bytecode": {
			"linkReferences": {
				"remix_accounts.sol": {
					"TestsAccounts": [
						{
							"length": 20,
							"start": 879
						}
					]
				},
				"remix_tests.sol": {
					"Assert": [
						{
							"length": 20,
							"start": 226
						},
						{
							"length": 20,
							"start": 348
						},
						{
							"length": 20,
							"start": 471
						},
						{
							"length": 20,
							"start": 604
						},
						{
							"length": 20,
							"start": 728
						},
						{
							"length": 20,
							"start": 852
						},
						{
							"length": 20,
							"start": 1091
						}
					]
				}
			},
			"object": "608060405234801561000f575f80fd5b50610a4f8061001d5f395ff3fe608060405260043610610049575f3560e01c8063011e64921461004d57806312d487ea1461006357806336c006561461008d5780637fea0d4b146100a35780639074416d146100b9575b5f80fd5b348015610058575f80fd5b506100616100c3565b005b34801561006e575f80fd5b50610077610235565b60405161008491906104ba565b60405180910390f35b348015610098575f80fd5b506100a161023d565b005b3480156100ae575f80fd5b506100b76102b9565b005b6100c1610335565b005b73__$acbfb1c35000d78352310b16a054a6b106$__6339df137f600280146040518263ffffffff1660e01b81526004016100fd919061053c565b602060405180830381865af4158015610118573d5f803e3d5ffd5b505050506040513d601f19601f8201168201806040525081019061013c9190610596565b5073__$acbfb1c35000d78352310b16a054a6b106$__63a079f1a3600260016040518363ffffffff1660e01b8152600401610178929190610623565b602060405180830381865af4158015610193573d5f803e3d5ffd5b505050506040513d601f19601f820116820180604052508101906101b79190610596565b5073__$acbfb1c35000d78352310b16a054a6b106$__63aea88952600260036040518363ffffffff1660e01b81526004016101f39291906106a7565b602060405180830381865af415801561020e573d5f803e3d5ffd5b505050506040513d601f19601f820116820180604052508101906102329190610596565b50565b5f6001905090565b73__$acbfb1c35000d78352310b16a054a6b106$__63561015e26001806040518363ffffffff1660e01b815260040161027792919061072b565b602060405180830381865af4158015610292573d5f803e3d5ffd5b505050506040513d601f19601f820116820180604052508101906102b69190610596565b50565b73__$acbfb1c35000d78352310b16a054a6b106$__63abcd79606001806040518363ffffffff1660e01b81526004016102f39291906107af565b602060405180830381865af415801561030e573d5f803e3d5ffd5b505050506040513d601f19601f820116820180604052508101906103329190610596565b50565b73__$acbfb1c35000d78352310b16a054a6b106$__63bfba5dd63373__$1068a87eb54ed04c4e435de35b2ebf536f$__63ce88b14560016040518263ffffffff1660e01b8152600401610388919061082b565b602060405180830381865af41580156103a3573d5f803e3d5ffd5b505050506040513d601f19601f820116820180604052508101906103c7919061089e565b6040518363ffffffff1660e01b81526004016103e4929190610922565b602060405180830381865af41580156103ff573d5f803e3d5ffd5b505050506040513d601f19601f820116820180604052508101906104239190610596565b5073__$acbfb1c35000d78352310b16a054a6b106$__63abcd79603460646040518363ffffffff1660e01b815260040161045e9291906109df565b602060405180830381865af4158015610479573d5f803e3d5ffd5b505050506040513d601f19601f8201168201806040525081019061049d9190610596565b50565b5f8115159050919050565b6104b4816104a0565b82525050565b5f6020820190506104cd5f8301846104ab565b92915050565b6104dc816104a0565b82525050565b5f82825260208201905092915050565b7f73686f756c6420626520747275650000000000000000000000000000000000005f82015250565b5f610526600e836104e2565b9150610531826104f2565b602082019050919050565b5f60408201905061054f5f8301846104d3565b81810360208301526105608161051a565b905092915050565b5f80fd5b610575816104a0565b811461057f575f80fd5b50565b5f815190506105908161056c565b92915050565b5f602082840312156105ab576105aa610568565b5b5f6105b884828501610582565b91505092915050565b5f819050919050565b6105d3816105c1565b82525050565b7f322073686f756c642062652067726561746572207468616e20746f20310000005f82015250565b5f61060d601d836104e2565b9150610618826105d9565b602082019050919050565b5f6060820190506106365f8301856105ca565b61064360208301846105ca565b818103604083015261065481610601565b90509392505050565b7f322073686f756c64206265206c6573736572207468616e20746f2033000000005f82015250565b5f610691601c836104e2565b915061069c8261065d565b602082019050919050565b5f6060820190506106ba5f8301856105ca565b6106c760208301846105ca565b81810360408301526106d881610685565b90509392505050565b7f312073686f756c64206e6f7420626520657175616c20746f20310000000000005f82015250565b5f610715601a836104e2565b9150610720826106e1565b602082019050919050565b5f60608201905061073e5f8301856105ca565b61074b60208301846105ca565b818103604083015261075c81610709565b90509392505050565b7f312073686f756c6420626520657175616c20746f2031000000000000000000005f82015250565b5f6107996016836104e2565b91506107a482610765565b602082019050919050565b5f6060820190506107c25f8301856105ca565b6107cf60208301846105ca565b81810360408301526107e08161078d565b90509392505050565b5f819050919050565b5f819050919050565b5f61081561081061080b846107e9565b6107f2565b6105c1565b9050919050565b610825816107fb565b82525050565b5f60208201905061083e5f83018461081c565b92915050565b5f73ffffffffffffffffffffffffffffffffffffffff82169050919050565b5f61086d82610844565b9050919050565b61087d81610863565b8114610887575f80fd5b50565b5f8151905061089881610874565b92915050565b5f602082840312156108b3576108b2610568565b5b5f6108c08482850161088a565b91505092915050565b6108d281610863565b82525050565b7f496e76616c69642073656e6465720000000000000000000000000000000000005f82015250565b5f61090c600e836104e2565b9150610917826108d8565b602082019050919050565b5f6060820190506109355f8301856108c9565b61094260208301846108c9565b818103604083015261095381610900565b90509392505050565b5f819050919050565b5f61097f61097a6109758461095c565b6107f2565b6105c1565b9050919050565b61098f81610965565b82525050565b7f496e76616c69642076616c7565000000000000000000000000000000000000005f82015250565b5f6109c9600d836104e2565b91506109d482610995565b602082019050919050565b5f6060820190506109f25f8301856105ca565b6109ff6020830184610986565b8181036040830152610a10816109bd565b9050939250505056fea26469706673582212203a39961cbe6cf8592ee67dea414789aabc1d9998d93009eb5610d8567f22081764736f6c63430008170033",
			"opcodes": "PUSH1 0x80 PUSH1 0x40 MSTORE CALLVALUE DUP1 ISZERO PUSH2 0xF JUMPI PUSH0 DUP1 REVERT JUMPDEST POP PUSH2 0xA4F DUP1 PUSH2 0x1D PUSH0 CODECOPY PUSH0 RETURN INVALID PUSH1 0x80 PUSH1 0x40 MSTORE PUSH1 0x4 CALLDATASIZE LT PUSH2 0x49 JUMPI PUSH0 CALLDATALOAD PUSH1 0xE0 SHR DUP1 PUSH4 0x11E6492 EQ PUSH2 0x4D JUMPI DUP1 PUSH4 0x12D487EA EQ PUSH2 0x63 JUMPI DUP1 PUSH4 0x36C00656 EQ PUSH2 0x8D JUMPI DUP1 PUSH4 0x7FEA0D4B EQ PUSH2 0xA3 JUMPI DUP1 PUSH4 0x9074416D EQ PUSH2 0xB9 JUMPI JUMPDEST PUSH0 DUP1 REVERT JUMPDEST CALLVALUE DUP1 ISZERO PUSH2 0x58 JUMPI PUSH0 DUP1 REVERT JUMPDEST POP PUSH2 0x61 PUSH2 0xC3 JUMP JUMPDEST STOP JUMPDEST CALLVALUE DUP1 ISZERO PUSH2 0x6E JUMPI PUSH0 DUP1 REVERT JUMPDEST POP PUSH2 0x77 PUSH2 0x235 JUMP JUMPDEST PUSH1 0x40 MLOAD PUSH2 0x84 SWAP2 SWAP1 PUSH2 0x4BA JUMP JUMPDEST PUSH1 0x40 MLOAD DUP1 SWAP2 SUB SWAP1 RETURN JUMPDEST CALLVALUE DUP1 ISZERO PUSH2 0x98 JUMPI PUSH0 DUP1 REVERT JUMPDEST POP PUSH2 0xA1 PUSH2 0x23D JUMP JUMPDEST STOP JUMPDEST CALLVALUE DUP1 ISZERO PUSH2 0xAE JUMPI PUSH0 DUP1 REVERT JUMPDEST POP PUSH2 0xB7 PUSH2 0x2B9 JUMP JUMPDEST STOP JUMPDEST PUSH2 0xC1 PUSH2 0x335 JUMP JUMPDEST STOP JUMPDEST PUSH20 0x0 PUSH4 0x39DF137F PUSH1 0x2 DUP1 EQ PUSH1 0x40 MLOAD DUP3 PUSH4 0xFFFFFFFF AND PUSH1 0xE0 SHL DUP2 MSTORE PUSH1 0x4 ADD PUSH2 0xFD SWAP2 SWAP1 PUSH2 0x53C JUMP JUMPDEST PUSH1 0x20 PUSH1 0x40 MLOAD DUP1 DUP4 SUB DUP2 DUP7 GAS DELEGATECALL ISZERO DUP1 ISZERO PUSH2 0x118 JUMPI RETURNDATASIZE PUSH0 DUP1 RETURNDATACOPY RETURNDATASIZE PUSH0 REVERT JUMPDEST POP POP POP POP PUSH1 0x40 MLOAD RETURNDATASIZE PUSH1 0x1F NOT PUSH1 0x1F DUP3 ADD AND DUP3 ADD DUP1 PUSH1 0x40 MSTORE POP DUP2 ADD SWAP1 PUSH2 0x13C SWAP2 SWAP1 PUSH2 0x596 JUMP JUMPDEST POP PUSH20 0x0 PUSH4 0xA079F1A3 PUSH1 0x2 PUSH1 0x1 PUSH1 0x40 MLOAD DUP4 PUSH4 0xFFFFFFFF AND PUSH1 0xE0 SHL DUP2 MSTORE PUSH1 0x4 ADD PUSH2 0x178 SWAP3 SWAP2 SWAP1 PUSH2 0x623 JUMP JUMPDEST PUSH1 0x20 PUSH1 0x40 MLOAD DUP1 DUP4 SUB DUP2 DUP7 GAS DELEGATECALL ISZERO DUP1 ISZERO PUSH2 0x193 JUMPI RETURNDATASIZE PUSH0 DUP1 RETURNDATACOPY RETURNDATASIZE PUSH0 REVERT JUMPDEST POP POP POP POP PUSH1 0x40 MLOAD RETURNDATASIZE PUSH1 0x1F NOT PUSH1 0x1F DUP3 ADD AND DUP3 ADD DUP1 PUSH1 0x40 MSTORE POP DUP2 ADD SWAP1 PUSH2 0x1B7 SWAP2 SWAP1 PUSH2 0x596 JUMP JUMPDEST POP PUSH20 0x0 PUSH4 0xAEA88952 PUSH1 0x2 PUSH1 0x3 PUSH1 0x40 MLOAD DUP4 PUSH4 0xFFFFFFFF AND PUSH1 0xE0 SHL DUP2 MSTORE PUSH1 0x4 ADD PUSH2 0x1F3 SWAP3 SWAP2 SWAP1 PUSH2 0x6A7 JUMP JUMPDEST PUSH1 0x20 PUSH1 0x40 MLOAD DUP1 DUP4 SUB DUP2 DUP7 GAS DELEGATECALL ISZERO DUP1 ISZERO PUSH2 0x20E JUMPI RETURNDATASIZE PUSH0 DUP1 RETURNDATACOPY RETURNDATASIZE PUSH0 REVERT JUMPDEST POP POP POP POP PUSH1 0x40 MLOAD RETURNDATASIZE PUSH1 0x1F NOT PUSH1 0x1F DUP3 ADD AND DUP3 ADD DUP1 PUSH1 0x40 MSTORE POP DUP2 ADD SWAP1 PUSH2 0x232 SWAP2 SWAP1 PUSH2 0x596 JUMP JUMPDEST POP JUMP JUMPDEST PUSH0 PUSH1 0x1 SWAP1 POP SWAP1 JUMP JUMPDEST PUSH20 0x0 PUSH4 0x561015E2 PUSH1 0x1 DUP1 PUSH1 0x40 MLOAD DUP4 PUSH4 0xFFFFFFFF AND PUSH1 0xE0 SHL DUP2 MSTORE PUSH1 0x4 ADD PUSH2 0x277 SWAP3 SWAP2 SWAP1 PUSH2 0x72B JUMP JUMPDEST PUSH1 0x20 PUSH1 0x40 MLOAD DUP1 DUP4 SUB DUP2 DUP7 GAS DELEGATECALL ISZERO DUP1 ISZERO PUSH2 0x292 JUMPI RETURNDATASIZE PUSH0 DUP1 RETURNDATACOPY RETURNDATASIZE PUSH0 REVERT JUMPDEST POP POP POP POP PUSH1 0x40 MLOAD RETURNDATASIZE PUSH1 0x1F NOT PUSH1 0x1F DUP3 ADD AND DUP3 ADD DUP1 PUSH1 0x40 MSTORE POP DUP2 ADD SWAP1 PUSH2 0x2B6 SWAP2 SWAP1 PUSH2 0x596 JUMP JUMPDEST POP JUMP JUMPDEST PUSH20 0x0 PUSH4 0xABCD7960 PUSH1 0x1 DUP1 PUSH1 0x40 MLOAD DUP4 PUSH4 0xFFFFFFFF AND PUSH1 0xE0 SHL DUP2 MSTORE PUSH1 0x4 ADD PUSH2 0x2F3 SWAP3 SWAP2 SWAP1 PUSH2 0x7AF JUMP JUMPDEST PUSH1 0x20 PUSH1 0x40 MLOAD DUP1 DUP4 SUB DUP2 DUP7 GAS DELEGATECALL ISZERO DUP1 ISZERO PUSH2 0x30E JUMPI RETURNDATASIZE PUSH0 DUP1 RETURNDATACOPY RETURNDATASIZE PUSH0 REVERT JUMPDEST POP POP POP POP PUSH1 0x40 MLOAD RETURNDATASIZE PUSH1 0x1F NOT PUSH1 0x1F DUP3 ADD AND DUP3 ADD DUP1 PUSH1 0x40 MSTORE POP DUP2 ADD SWAP1 PUSH2 0x332 SWAP2 SWAP1 PUSH2 0x596 JUMP JUMPDEST POP JUMP JUMPDEST PUSH20 0x0 PUSH4 0xBFBA5DD6 CALLER PUSH20 0x0 PUSH4 0xCE88B145 PUSH1 0x1 PUSH1 0x40 MLOAD DUP3 PUSH4 0xFFFFFFFF AND PUSH1 0xE0 SHL DUP2 MSTORE PUSH1 0x4 ADD PUSH2 0x388 SWAP2 SWAP1 PUSH2 0x82B JUMP JUMPDEST PUSH1 0x20 PUSH1 0x40 MLOAD DUP1 DUP4 SUB DUP2 DUP7 GAS DELEGATECALL ISZERO DUP1 ISZERO PUSH2 0x3A3 JUMPI RETURNDATASIZE PUSH0 DUP1 RETURNDATACOPY RETURNDATASIZE PUSH0 REVERT JUMPDEST POP POP POP POP PUSH1 0x40 MLOAD RETURNDATASIZE PUSH1 0x1F NOT PUSH1 0x1F DUP3 ADD AND DUP3 ADD DUP1 PUSH1 0x40 MSTORE POP DUP2 ADD SWAP1 PUSH2 0x3C7 SWAP2 SWAP1 PUSH2 0x89E JUMP JUMPDEST PUSH1 0x40 MLOAD DUP4 PUSH4 0xFFFFFFFF AND PUSH1 0xE0 SHL DUP2 MSTORE PUSH1 0x4 ADD PUSH2 0x3E4 SWAP3 SWAP2 SWAP1 PUSH2 0x922 JUMP JUMPDEST PUSH1 0x20 PUSH1 0x40 MLOAD DUP1 DUP4 SUB DUP2 DUP7 GAS DELEGATECALL ISZERO DUP1 ISZERO PUSH2 0x3FF JUMPI RETURNDATASIZE PUSH0 DUP1 RETURNDATACOPY RETURNDATASIZE PUSH0 REVERT JUMPDEST POP POP POP POP PUSH1 0x40 MLOAD RETURNDATASIZE PUSH1 0x1F NOT PUSH1 0x1F DUP3 ADD AND DUP3 ADD DUP1 PUSH1 0x40 MSTORE POP DUP2 ADD SWAP1 PUSH2 0x423 SWAP2 SWAP1 PUSH2 0x596 JUMP JUMPDEST POP PUSH20 0x0 PUSH4 0xABCD7960 CALLVALUE PUSH1 0x64 PUSH1 0x40 MLOAD DUP4 PUSH4 0xFFFFFFFF AND PUSH1 0xE0 SHL DUP2 MSTORE PUSH1 0x4 ADD PUSH2 0x45E SWAP3 SWAP2 SWAP1 PUSH2 0x9DF JUMP JUMPDEST PUSH1 0x20 PUSH1 0x40 MLOAD DUP1 DUP4 SUB DUP2 DUP7 GAS DELEGATECALL ISZERO DUP1 ISZERO PUSH2 0x479 JUMPI RETURNDATASIZE PUSH0 DUP1 RETURNDATACOPY RETURNDATASIZE PUSH0 REVERT JUMPDEST POP POP POP POP PUSH1 0x40 MLOAD RETURNDATASIZE PUSH1 0x1F NOT PUSH1 0x1F DUP3 ADD AND DUP3 ADD DUP1 PUSH1 0x40 MSTORE POP DUP2 ADD SWAP1 PUSH2 0x49D SWAP2 SWAP1 PUSH2 0x596 JUMP JUMPDEST POP JUMP JUMPDEST PUSH0 DUP2 ISZERO ISZERO SWAP1 POP SWAP2 SWAP1 POP JUMP JUMPDEST PUSH2 0x4B4 DUP2 PUSH2 0x4A0 JUMP JUMPDEST DUP3 MSTORE POP POP JUMP JUMPDEST PUSH0 PUSH1 0x20 DUP3 ADD SWAP1 POP PUSH2 0x4CD PUSH0 DUP4 ADD DUP5 PUSH2 0x4AB JUMP JUMPDEST SWAP3 SWAP2 POP POP JUMP JUMPDEST PUSH2 0x4DC DUP2 PUSH2 0x4A0 JUMP JUMPDEST DUP3 MSTORE POP POP JUMP JUMPDEST PUSH0 DUP3 DUP3 MSTORE PUSH1 0x20 DUP3 ADD SWAP1 POP SWAP3 SWAP2 POP POP JUMP JUMPDEST PUSH32 0x73686F756C642062652074727565000000000000000000000000000000000000 PUSH0 DUP3 ADD MSTORE POP JUMP JUMPDEST PUSH0 PUSH2 0x526 PUSH1 0xE DUP4 PUSH2 0x4E2 JUMP JUMPDEST SWAP2 POP PUSH2 0x531 DUP3 PUSH2 0x4F2 JUMP JUMPDEST PUSH1 0x20 DUP3 ADD SWAP1 POP SWAP2 SWAP1 POP JUMP JUMPDEST PUSH0 PUSH1 0x40 DUP3 ADD SWAP1 POP PUSH2 0x54F PUSH0 DUP4 ADD DUP5 PUSH2 0x4D3 JUMP JUMPDEST DUP2 DUP2 SUB PUSH1 0x20 DUP4 ADD MSTORE PUSH2 0x560 DUP2 PUSH2 0x51A JUMP JUMPDEST SWAP1 POP SWAP3 SWAP2 POP POP JUMP JUMPDEST PUSH0 DUP1 REVERT JUMPDEST PUSH2 0x575 DUP2 PUSH2 0x4A0 JUMP JUMPDEST DUP2 EQ PUSH2 0x57F JUMPI PUSH0 DUP1 REVERT JUMPDEST POP JUMP JUMPDEST PUSH0 DUP2 MLOAD SWAP1 POP PUSH2 0x590 DUP2 PUSH2 0x56C JUMP JUMPDEST SWAP3 SWAP2 POP POP JUMP JUMPDEST PUSH0 PUSH1 0x20 DUP3 DUP5 SUB SLT ISZERO PUSH2 0x5AB JUMPI PUSH2 0x5AA PUSH2 0x568 JUMP JUMPDEST JUMPDEST PUSH0 PUSH2 0x5B8 DUP5 DUP3 DUP6 ADD PUSH2 0x582 JUMP JUMPDEST SWAP2 POP POP SWAP3 SWAP2 POP POP JUMP JUMPDEST PUSH0 DUP2 SWAP1 POP SWAP2 SWAP1 POP JUMP JUMPDEST PUSH2 0x5D3 DUP2 PUSH2 0x5C1 JUMP JUMPDEST DUP3 MSTORE POP POP JUMP JUMPDEST PUSH32 0x322073686F756C642062652067726561746572207468616E20746F2031000000 PUSH0 DUP3 ADD MSTORE POP JUMP JUMPDEST PUSH0 PUSH2 0x60D PUSH1 0x1D DUP4 PUSH2 0x4E2 JUMP JUMPDEST SWAP2 POP PUSH2 0x618 DUP3 PUSH2 0x5D9 JUMP JUMPDEST PUSH1 0x20 DUP3 ADD SWAP1 POP SWAP2 SWAP1 POP JUMP JUMPDEST PUSH0 PUSH1 0x60 DUP3 ADD SWAP1 POP PUSH2 0x636 PUSH0 DUP4 ADD DUP6 PUSH2 0x5CA JUMP JUMPDEST PUSH2 0x643 PUSH1 0x20 DUP4 ADD DUP5 PUSH2 0x5CA JUMP JUMPDEST DUP2 DUP2 SUB PUSH1 0x40 DUP4 ADD MSTORE PUSH2 0x654 DUP2 PUSH2 0x601 JUMP JUMPDEST SWAP1 POP SWAP4 SWAP3 POP POP POP JUMP JUMPDEST PUSH32 0x322073686F756C64206265206C6573736572207468616E20746F203300000000 PUSH0 DUP3 ADD MSTORE POP JUMP JUMPDEST PUSH0 PUSH2 0x691 PUSH1 0x1C DUP4 PUSH2 0x4E2 JUMP JUMPDEST SWAP2 POP PUSH2 0x69C DUP3 PUSH2 0x65D JUMP JUMPDEST PUSH1 0x20 DUP3 ADD SWAP1 POP SWAP2 SWAP1 POP JUMP JUMPDEST PUSH0 PUSH1 0x60 DUP3 ADD SWAP1 POP PUSH2 0x6BA PUSH0 DUP4 ADD DUP6 PUSH2 0x5CA JUMP JUMPDEST PUSH2 0x6C7 PUSH1 0x20 DUP4 ADD DUP5 PUSH2 0x5CA JUMP JUMPDEST DUP2 DUP2 SUB PUSH1 0x40 DUP4 ADD MSTORE PUSH2 0x6D8 DUP2 PUSH2 0x685 JUMP JUMPDEST SWAP1 POP SWAP4 SWAP3 POP POP POP JUMP JUMPDEST PUSH32 0x312073686F756C64206E6F7420626520657175616C20746F2031000000000000 PUSH0 DUP3 ADD MSTORE POP JUMP JUMPDEST PUSH0 PUSH2 0x715 PUSH1 0x1A DUP4 PUSH2 0x4E2 JUMP JUMPDEST SWAP2 POP PUSH2 0x720 DUP3 PUSH2 0x6E1 JUMP JUMPDEST PUSH1 0x20 DUP3 ADD SWAP1 POP SWAP2 SWAP1 POP JUMP JUMPDEST PUSH0 PUSH1 0x60 DUP3 ADD SWAP1 POP PUSH2 0x73E PUSH0 DUP4 ADD DUP6 PUSH2 0x5CA JUMP JUMPDEST PUSH2 0x74B PUSH1 0x20 DUP4 ADD DUP5 PUSH2 0x5CA JUMP JUMPDEST DUP2 DUP2 SUB PUSH1 0x40 DUP4 ADD MSTORE PUSH2 0x75C DUP2 PUSH2 0x709 JUMP JUMPDEST SWAP1 POP SWAP4 SWAP3 POP POP POP JUMP JUMPDEST PUSH32 0x312073686F756C6420626520657175616C20746F203100000000000000000000 PUSH0 DUP3 ADD MSTORE POP JUMP JUMPDEST PUSH0 PUSH2 0x799 PUSH1 0x16 DUP4 PUSH2 0x4E2 JUMP JUMPDEST SWAP2 POP PUSH2 0x7A4 DUP3 PUSH2 0x765 JUMP JUMPDEST PUSH1 0x20 DUP3 ADD SWAP1 POP SWAP2 SWAP1 POP JUMP JUMPDEST PUSH0 PUSH1 0x60 DUP3 ADD SWAP1 POP PUSH2 0x7C2 PUSH0 DUP4 ADD DUP6 PUSH2 0x5CA JUMP JUMPDEST PUSH2 0x7CF PUSH1 0x20 DUP4 ADD DUP5 PUSH2 0x5CA JUMP JUMPDEST DUP2 DUP2 SUB PUSH1 0x40 DUP4 ADD MSTORE PUSH2 0x7E0 DUP2 PUSH2 0x78D JUMP JUMPDEST SWAP1 POP SWAP4 SWAP3 POP POP POP JUMP JUMPDEST PUSH0 DUP2 SWAP1 POP SWAP2 SWAP1 POP JUMP JUMPDEST PUSH0 DUP2 SWAP1 POP SWAP2 SWAP1 POP JUMP JUMPDEST PUSH0 PUSH2 0x815 PUSH2 0x810 PUSH2 0x80B DUP5 PUSH2 0x7E9 JUMP JUMPDEST PUSH2 0x7F2 JUMP JUMPDEST PUSH2 0x5C1 JUMP JUMPDEST SWAP1 POP SWAP2 SWAP1 POP JUMP JUMPDEST PUSH2 0x825 DUP2 PUSH2 0x7FB JUMP JUMPDEST DUP3 MSTORE POP POP JUMP JUMPDEST PUSH0 PUSH1 0x20 DUP3 ADD SWAP1 POP PUSH2 0x83E PUSH0 DUP4 ADD DUP5 PUSH2 0x81C JUMP JUMPDEST SWAP3 SWAP2 POP POP JUMP JUMPDEST PUSH0 PUSH20 0xFFFFFFFFFFFFFFFFFFFFFFFFFFFFFFFFFFFFFFFF DUP3 AND SWAP1 POP SWAP2 SWAP1 POP JUMP JUMPDEST PUSH0 PUSH2 0x86D DUP3 PUSH2 0x844 JUMP JUMPDEST SWAP1 POP SWAP2 SWAP1 POP JUMP JUMPDEST PUSH2 0x87D DUP2 PUSH2 0x863 JUMP JUMPDEST DUP2 EQ PUSH2 0x887 JUMPI PUSH0 DUP1 REVERT JUMPDEST POP JUMP JUMPDEST PUSH0 DUP2 MLOAD SWAP1 POP PUSH2 0x898 DUP2 PUSH2 0x874 JUMP JUMPDEST SWAP3 SWAP2 POP POP JUMP JUMPDEST PUSH0 PUSH1 0x20 DUP3 DUP5 SUB SLT ISZERO PUSH2 0x8B3 JUMPI PUSH2 0x8B2 PUSH2 0x568 JUMP JUMPDEST JUMPDEST PUSH0 PUSH2 0x8C0 DUP5 DUP3 DUP6 ADD PUSH2 0x88A JUMP JUMPDEST SWAP2 POP POP SWAP3 SWAP2 POP POP JUMP JUMPDEST PUSH2 0x8D2 DUP2 PUSH2 0x863 JUMP JUMPDEST DUP3 MSTORE POP POP JUMP JUMPDEST PUSH32 0x496E76616C69642073656E646572000000000000000000000000000000000000 PUSH0 DUP3 ADD MSTORE POP JUMP JUMPDEST PUSH0 PUSH2 0x90C PUSH1 0xE DUP4 PUSH2 0x4E2 JUMP JUMPDEST SWAP2 POP PUSH2 0x917 DUP3 PUSH2 0x8D8 JUMP JUMPDEST PUSH1 0x20 DUP3 ADD SWAP1 POP SWAP2 SWAP1 POP JUMP JUMPDEST PUSH0 PUSH1 0x60 DUP3 ADD SWAP1 POP PUSH2 0x935 PUSH0 DUP4 ADD DUP6 PUSH2 0x8C9 JUMP JUMPDEST PUSH2 0x942 PUSH1 0x20 DUP4 ADD DUP5 PUSH2 0x8C9 JUMP JUMPDEST DUP2 DUP2 SUB PUSH1 0x40 DUP4 ADD MSTORE PUSH2 0x953 DUP2 PUSH2 0x900 JUMP JUMPDEST SWAP1 POP SWAP4 SWAP3 POP POP POP JUMP JUMPDEST PUSH0 DUP2 SWAP1 POP SWAP2 SWAP1 POP JUMP JUMPDEST PUSH0 PUSH2 0x97F PUSH2 0x97A PUSH2 0x975 DUP5 PUSH2 0x95C JUMP JUMPDEST PUSH2 0x7F2 JUMP JUMPDEST PUSH2 0x5C1 JUMP JUMPDEST SWAP1 POP SWAP2 SWAP1 POP JUMP JUMPDEST PUSH2 0x98F DUP2 PUSH2 0x965 JUMP JUMPDEST DUP3 MSTORE POP POP JUMP JUMPDEST PUSH32 0x496E76616C69642076616C756500000000000000000000000000000000000000 PUSH0 DUP3 ADD MSTORE POP JUMP JUMPDEST PUSH0 PUSH2 0x9C9 PUSH1 0xD DUP4 PUSH2 0x4E2 JUMP JUMPDEST SWAP2 POP PUSH2 0x9D4 DUP3 PUSH2 0x995 JUMP JUMPDEST PUSH1 0x20 DUP3 ADD SWAP1 POP SWAP2 SWAP1 POP JUMP JUMPDEST PUSH0 PUSH1 0x60 DUP3 ADD SWAP1 POP PUSH2 0x9F2 PUSH0 DUP4 ADD DUP6 PUSH2 0x5CA JUMP JUMPDEST PUSH2 0x9FF PUSH1 0x20 DUP4 ADD DUP5 PUSH2 0x986 JUMP JUMPDEST DUP2 DUP2 SUB PUSH1 0x40 DUP4 ADD MSTORE PUSH2 0xA10 DUP2 PUSH2 0x9BD JUMP JUMPDEST SWAP1 POP SWAP4 SWAP3 POP POP POP JUMP INVALID LOG2 PUSH5 0x6970667358 0x22 SLT KECCAK256 GASPRICE CODECOPY SWAP7 SHR 0xBE PUSH13 0xF8592EE67DEA414789AABC1D99 SWAP9 0xD9 ADDRESS MULMOD 0xEB JUMP LT 0xD8 JUMP PUSH32 0x22081764736F6C63430008170033000000000000000000000000000000000000 "
		},
		"gasEstimates": {
			"creation": {
				"codeDepositCost": "527800",
				"executionCost": "560",
				"totalCost": "528360"
			},
			"external": {
				"beforeAll()": "infinite",
				"checkFailure()": "infinite",
				"checkSenderAndValue()": "infinite",
				"checkSuccess()": "infinite",
				"checkSuccess2()": "338"
			}
		},
		"methodIdentifiers": {
			"beforeAll()": "7fea0d4b",
			"checkFailure()": "36c00656",
			"checkSenderAndValue()": "9074416d",
			"checkSuccess()": "011e6492",
			"checkSuccess2()": "12d487ea"
		}
	},
	"abi": [
		{
			"inputs": [],
			"name": "beforeAll",
			"outputs": [],
			"stateMutability": "nonpayable",
			"type": "function"
		},
		{
			"inputs": [],
			"name": "checkFailure",
			"outputs": [],
			"stateMutability": "nonpayable",
			"type": "function"
		},
		{
			"inputs": [],
			"name": "checkSenderAndValue",
			"outputs": [],
			"stateMutability": "payable",
			"type": "function"
		},
		{
			"inputs": [],
			"name": "checkSuccess",
			"outputs": [],
			"stateMutability": "nonpayable",
			"type": "function"
		},
		{
			"inputs": [],
			"name": "checkSuccess2",
			"outputs": [
				{
					"internalType": "bool",
					"name": "",
					"type": "bool"
				}
			],
			"stateMutability": "pure",
			"type": "function"
		}
	]
}