{
	"contracts/tests.sol": {
		"Test": {
			"abi": [
				{
					"inputs": [],
					"stateMutability": "nonpayable",
					"type": "constructor"
				},
				{
					"inputs": [],
					"name": "changeY",
					"outputs": [],
					"stateMutability": "nonpayable",
					"type": "function"
				},
				{
					"inputs": [],
					"name": "getG",
					"outputs": [
						{
							"internalType": "bytes32",
							"name": "",
							"type": "bytes32"
						}
					],
					"stateMutability": "view",
					"type": "function"
				},
				{
					"inputs": [],
					"name": "getY",
					"outputs": [
						{
							"internalType": "bytes32[]",
							"name": "",
							"type": "bytes32[]"
						}
					],
					"stateMutability": "view",
					"type": "function"
				},
				{
					"inputs": [
						{
							"internalType": "address",
							"name": "a",
							"type": "address"
						}
					],
					"name": "hashAddress",
					"outputs": [
						{
							"internalType": "bytes32",
							"name": "",
							"type": "bytes32"
						}
					],
					"stateMutability": "pure",
					"type": "function"
				},
				{
					"inputs": [
						{
							"internalType": "string",
							"name": "s",
							"type": "string"
						}
					],
					"name": "hashString",
					"outputs": [
						{
							"internalType": "bytes32",
							"name": "",
							"type": "bytes32"
						}
					],
					"stateMutability": "pure",
					"type": "function"
				}
			],
			"devdoc": {
				"kind": "dev",
				"methods": {},
				"version": 1
			},
			"evm": {
				"assembly": "    /* \"contracts/tests.sol\":58:735  contract Test {... */\n  mstore(0x40, 0x80)\n    /* \"contracts/tests.sol\":111:208  constructor () {... */\n  callvalue\n  dup1\n  iszero\n  tag_1\n  jumpi\n  0x00\n  dup1\n  revert\ntag_1:\n  pop\n    /* \"contracts/tests.sol\":136:137  y */\n  0x00\n    /* \"contracts/tests.sol\":170:180  msg.sender */\n  caller\n    /* \"contracts/tests.sol\":153:181  abi.encodePacked(msg.sender) */\n  add(0x20, mload(0x40))\n  tag_4\n  swap2\n  swap1\n  tag_5\n  jump\t// in\ntag_4:\n  mload(0x40)\n  0x20\n  dup2\n  dup4\n  sub\n  sub\n  dup2\n  mstore\n  swap1\n  0x40\n  mstore\n    /* \"contracts/tests.sol\":143:182  keccak256(abi.encodePacked(msg.sender)) */\n  dup1\n  mload\n  swap1\n  0x20\n  add\n  keccak256\n    /* \"contracts/tests.sol\":136:183  y.push(keccak256(abi.encodePacked(msg.sender))) */\n  swap1\n  dup1\n  0x01\n  dup2\n  sload\n  add\n  dup1\n  dup3\n  sstore\n  dup1\n  swap2\n  pop\n  pop\n  0x01\n  swap1\n  sub\n  swap1\n  0x00\n  mstore\n  keccak256(0x00, 0x20)\n  add\n  0x00\n  swap1\n  swap2\n  swap1\n  swap2\n  swap1\n  swap2\n  pop\n  sstore\n    /* \"contracts/tests.sol\":197:198  y */\n  0x00\n    /* \"contracts/tests.sol\":199:200  0 */\n  dup1\n    /* \"contracts/tests.sol\":197:201  y[0] */\n  dup2\n  sload\n  dup2\n  lt\n  tag_7\n  jumpi\n  tag_8\n  tag_9\n  jump\t// in\ntag_8:\ntag_7:\n  swap1\n  0x00\n  mstore\n  keccak256(0x00, 0x20)\n  add\n  sload\n    /* \"contracts/tests.sol\":193:194  g */\n  0x01\n    /* \"contracts/tests.sol\":193:201  g = y[0] */\n  dup2\n  swap1\n  sstore\n  pop\n    /* \"contracts/tests.sol\":58:735  contract Test {... */\n  jump(tag_11)\n    /* \"#utility.yul\":7:133   */\ntag_12:\n    /* \"#utility.yul\":44:51   */\n  0x00\n    /* \"#utility.yul\":84:126   */\n  0xffffffffffffffffffffffffffffffffffffffff\n    /* \"#utility.yul\":77:82   */\n  dup3\n    /* \"#utility.yul\":73:127   */\n  and\n    /* \"#utility.yul\":62:127   */\n  swap1\n  pop\n    /* \"#utility.yul\":7:133   */\n  swap2\n  swap1\n  pop\n  jump\t// out\n    /* \"#utility.yul\":139:235   */\ntag_13:\n    /* \"#utility.yul\":176:183   */\n  0x00\n    /* \"#utility.yul\":205:229   */\n  tag_21\n    /* \"#utility.yul\":223:228   */\n  dup3\n    /* \"#utility.yul\":205:229   */\n  tag_12\n  jump\t// in\ntag_21:\n    /* \"#utility.yul\":194:229   */\n  swap1\n  pop\n    /* \"#utility.yul\":139:235   */\n  swap2\n  swap1\n  pop\n  jump\t// out\n    /* \"#utility.yul\":241:335   */\ntag_14:\n    /* \"#utility.yul\":274:282   */\n  0x00\n    /* \"#utility.yul\":322:327   */\n  dup2\n    /* \"#utility.yul\":318:320   */\n  0x60\n    /* \"#utility.yul\":314:328   */\n  shl\n    /* \"#utility.yul\":293:328   */\n  swap1\n  pop\n    /* \"#utility.yul\":241:335   */\n  swap2\n  swap1\n  pop\n  jump\t// out\n    /* \"#utility.yul\":341:435   */\ntag_15:\n    /* \"#utility.yul\":380:387   */\n  0x00\n    /* \"#utility.yul\":409:429   */\n  tag_24\n    /* \"#utility.yul\":423:428   */\n  dup3\n    /* \"#utility.yul\":409:429   */\n  tag_14\n  jump\t// in\ntag_24:\n    /* \"#utility.yul\":398:429   */\n  swap1\n  pop\n    /* \"#utility.yul\":341:435   */\n  swap2\n  swap1\n  pop\n  jump\t// out\n    /* \"#utility.yul\":441:541   */\ntag_16:\n    /* \"#utility.yul\":480:487   */\n  0x00\n    /* \"#utility.yul\":509:535   */\n  tag_26\n    /* \"#utility.yul\":529:534   */\n  dup3\n    /* \"#utility.yul\":509:535   */\n  tag_15\n  jump\t// in\ntag_26:\n    /* \"#utility.yul\":498:535   */\n  swap1\n  pop\n    /* \"#utility.yul\":441:541   */\n  swap2\n  swap1\n  pop\n  jump\t// out\n    /* \"#utility.yul\":547:704   */\ntag_17:\n    /* \"#utility.yul\":652:697   */\n  tag_28\n    /* \"#utility.yul\":672:696   */\n  tag_29\n    /* \"#utility.yul\":690:695   */\n  dup3\n    /* \"#utility.yul\":672:696   */\n  tag_13\n  jump\t// in\ntag_29:\n    /* \"#utility.yul\":652:697   */\n  tag_16\n  jump\t// in\ntag_28:\n    /* \"#utility.yul\":647:650   */\n  dup3\n    /* \"#utility.yul\":640:698   */\n  mstore\n    /* \"#utility.yul\":547:704   */\n  pop\n  pop\n  jump\t// out\n    /* \"#utility.yul\":710:966   */\ntag_5:\n    /* \"#utility.yul\":822:825   */\n  0x00\n    /* \"#utility.yul\":837:912   */\n  tag_31\n    /* \"#utility.yul\":908:911   */\n  dup3\n    /* \"#utility.yul\":899:905   */\n  dup5\n    /* \"#utility.yul\":837:912   */\n  tag_17\n  jump\t// in\ntag_31:\n    /* \"#utility.yul\":937:939   */\n  0x14\n    /* \"#utility.yul\":932:935   */\n  dup3\n    /* \"#utility.yul\":928:940   */\n  add\n    /* \"#utility.yul\":921:940   */\n  swap2\n  pop\n    /* \"#utility.yul\":957:960   */\n  dup2\n    /* \"#utility.yul\":950:960   */\n  swap1\n  pop\n    /* \"#utility.yul\":710:966   */\n  swap3\n  swap2\n  pop\n  pop\n  jump\t// out\n    /* \"#utility.yul\":972:1152   */\ntag_9:\n    /* \"#utility.yul\":1020:1097   */\n  0x4e487b7100000000000000000000000000000000000000000000000000000000\n    /* \"#utility.yul\":1017:1018   */\n  0x00\n    /* \"#utility.yul\":1010:1098   */\n  mstore\n    /* \"#utility.yul\":1117:1121   */\n  0x32\n    /* \"#utility.yul\":1114:1115   */\n  0x04\n    /* \"#utility.yul\":1107:1122   */\n  mstore\n    /* \"#utility.yul\":1141:1145   */\n  0x24\n    /* \"#utility.yul\":1138:1139   */\n  0x00\n    /* \"#utility.yul\":1131:1146   */\n  revert\n    /* \"contracts/tests.sol\":58:735  contract Test {... */\ntag_11:\n  dataSize(sub_0)\n  dup1\n  dataOffset(sub_0)\n  0x00\n  codecopy\n  0x00\n  return\nstop\n\nsub_0: assembly {\n        /* \"contracts/tests.sol\":58:735  contract Test {... */\n      mstore(0x40, 0x80)\n      callvalue\n      dup1\n      iszero\n      tag_1\n      jumpi\n      0x00\n      dup1\n      revert\n    tag_1:\n      pop\n      jumpi(tag_2, lt(calldatasize, 0x04))\n      shr(0xe0, calldataload(0x00))\n      dup1\n      0x04c09ce9\n      eq\n      tag_3\n      jumpi\n      dup1\n      0x0b7f1665\n      eq\n      tag_4\n      jumpi\n      dup1\n      0x3aa5fe59\n      eq\n      tag_5\n      jumpi\n      dup1\n      0x766954b4\n      eq\n      tag_6\n      jumpi\n      dup1\n      0xc50e1b70\n      eq\n      tag_7\n      jumpi\n    tag_2:\n      0x00\n      dup1\n      revert\n        /* \"contracts/tests.sol\":303:373  function getG() view public returns(bytes32) {... */\n    tag_3:\n      tag_8\n      tag_9\n      jump\t// in\n    tag_8:\n      mload(0x40)\n      tag_10\n      swap2\n      swap1\n      tag_11\n      jump\t// in\n    tag_10:\n      mload(0x40)\n      dup1\n      swap2\n      sub\n      swap1\n      return\n        /* \"contracts/tests.sol\":214:293  function getY() view public returns(bytes32[] memory) {... */\n    tag_4:\n      tag_12\n      tag_13\n      jump\t// in\n    tag_12:\n      mload(0x40)\n      tag_14\n      swap2\n      swap1\n      tag_15\n      jump\t// in\n    tag_14:\n      mload(0x40)\n      dup1\n      swap2\n      sub\n      swap1\n      return\n        /* \"contracts/tests.sol\":495:609  function hashAddress(address a) public pure returns(bytes32){... */\n    tag_5:\n      tag_16\n      0x04\n      dup1\n      calldatasize\n      sub\n      dup2\n      add\n      swap1\n      tag_17\n      swap2\n      swap1\n      tag_18\n      jump\t// in\n    tag_17:\n      tag_19\n      jump\t// in\n    tag_16:\n      mload(0x40)\n      tag_20\n      swap2\n      swap1\n      tag_11\n      jump\t// in\n    tag_20:\n      mload(0x40)\n      dup1\n      swap2\n      sub\n      swap1\n      return\n        /* \"contracts/tests.sol\":614:733  function hashString(string memory s) public pure returns(bytes32){... */\n    tag_6:\n      tag_21\n      0x04\n      dup1\n      calldatasize\n      sub\n      dup2\n      add\n      swap1\n      tag_22\n      swap2\n      swap1\n      tag_23\n      jump\t// in\n    tag_22:\n      tag_24\n      jump\t// in\n    tag_21:\n      mload(0x40)\n      tag_25\n      swap2\n      swap1\n      tag_11\n      jump\t// in\n    tag_25:\n      mload(0x40)\n      dup1\n      swap2\n      sub\n      swap1\n      return\n        /* \"contracts/tests.sol\":379:489  function changeY() public {... */\n    tag_7:\n      tag_26\n      tag_27\n      jump\t// in\n    tag_26:\n      stop\n        /* \"contracts/tests.sol\":303:373  function getG() view public returns(bytes32) {... */\n    tag_9:\n        /* \"contracts/tests.sol\":339:346  bytes32 */\n      0x00\n        /* \"contracts/tests.sol\":365:366  g */\n      sload(0x01)\n        /* \"contracts/tests.sol\":358:366  return g */\n      swap1\n      pop\n        /* \"contracts/tests.sol\":303:373  function getG() view public returns(bytes32) {... */\n      swap1\n      jump\t// out\n        /* \"contracts/tests.sol\":214:293  function getY() view public returns(bytes32[] memory) {... */\n    tag_13:\n        /* \"contracts/tests.sol\":250:266  bytes32[] memory */\n      0x60\n        /* \"contracts/tests.sol\":285:286  y */\n      0x00\n        /* \"contracts/tests.sol\":278:286  return y */\n      dup1\n      sload\n      dup1\n      0x20\n      mul\n      0x20\n      add\n      mload(0x40)\n      swap1\n      dup2\n      add\n      0x40\n      mstore\n      dup1\n      swap3\n      swap2\n      swap1\n      dup2\n      dup2\n      mstore\n      0x20\n      add\n      dup3\n      dup1\n      sload\n      dup1\n      iszero\n      tag_30\n      jumpi\n      0x20\n      mul\n      dup3\n      add\n      swap2\n      swap1\n      0x00\n      mstore\n      keccak256(0x00, 0x20)\n      swap1\n    tag_31:\n      dup2\n      sload\n      dup2\n      mstore\n      0x20\n      add\n      swap1\n      0x01\n      add\n      swap1\n      dup1\n      dup4\n      gt\n      tag_31\n      jumpi\n    tag_30:\n      pop\n      pop\n      pop\n      pop\n      pop\n      swap1\n      pop\n        /* \"contracts/tests.sol\":214:293  function getY() view public returns(bytes32[] memory) {... */\n      swap1\n      jump\t// out\n        /* \"contracts/tests.sol\":495:609  function hashAddress(address a) public pure returns(bytes32){... */\n    tag_19:\n        /* \"contracts/tests.sol\":547:554  bytes32 */\n      0x00\n        /* \"contracts/tests.sol\":599:600  a */\n      dup2\n        /* \"contracts/tests.sol\":582:601  abi.encodePacked(a) */\n      add(0x20, mload(0x40))\n      tag_33\n      swap2\n      swap1\n      tag_34\n      jump\t// in\n    tag_33:\n      mload(0x40)\n      0x20\n      dup2\n      dup4\n      sub\n      sub\n      dup2\n      mstore\n      swap1\n      0x40\n      mstore\n        /* \"contracts/tests.sol\":572:602  keccak256(abi.encodePacked(a)) */\n      dup1\n      mload\n      swap1\n      0x20\n      add\n      keccak256\n        /* \"contracts/tests.sol\":565:602  return keccak256(abi.encodePacked(a)) */\n      swap1\n      pop\n        /* \"contracts/tests.sol\":495:609  function hashAddress(address a) public pure returns(bytes32){... */\n      swap2\n      swap1\n      pop\n      jump\t// out\n        /* \"contracts/tests.sol\":614:733  function hashString(string memory s) public pure returns(bytes32){... */\n    tag_24:\n        /* \"contracts/tests.sol\":671:678  bytes32 */\n      0x00\n        /* \"contracts/tests.sol\":723:724  s */\n      dup2\n        /* \"contracts/tests.sol\":706:725  abi.encodePacked(s) */\n      add(0x20, mload(0x40))\n      tag_36\n      swap2\n      swap1\n      tag_37\n      jump\t// in\n    tag_36:\n      mload(0x40)\n      0x20\n      dup2\n      dup4\n      sub\n      sub\n      dup2\n      mstore\n      swap1\n      0x40\n      mstore\n        /* \"contracts/tests.sol\":696:726  keccak256(abi.encodePacked(s)) */\n      dup1\n      mload\n      swap1\n      0x20\n      add\n      keccak256\n        /* \"contracts/tests.sol\":689:726  return keccak256(abi.encodePacked(s)) */\n      swap1\n      pop\n        /* \"contracts/tests.sol\":614:733  function hashString(string memory s) public pure returns(bytes32){... */\n      swap2\n      swap1\n      pop\n      jump\t// out\n        /* \"contracts/tests.sol\":379:489  function changeY() public {... */\n    tag_27:\n        /* \"contracts/tests.sol\":415:424  bytes32 u */\n      0x00\n        /* \"contracts/tests.sol\":438:439  u */\n      dup1\n        /* \"contracts/tests.sol\":434:435  g */\n      0x01\n        /* \"contracts/tests.sol\":434:439  g = u */\n      dup2\n      swap1\n      sstore\n      pop\n        /* \"contracts/tests.sol\":449:467  bytes32[] memory e */\n      0x60\n        /* \"contracts/tests.sol\":481:482  e */\n      dup1\n        /* \"contracts/tests.sol\":477:478  y */\n      0x00\n        /* \"contracts/tests.sol\":477:482  y = e */\n      swap1\n      dup1\n      mload\n      swap1\n      0x20\n      add\n      swap1\n      tag_39\n      swap3\n      swap2\n      swap1\n      tag_40\n      jump\t// in\n    tag_39:\n      pop\n        /* \"contracts/tests.sol\":405:489  {... */\n      pop\n      pop\n        /* \"contracts/tests.sol\":379:489  function changeY() public {... */\n      jump\t// out\n    tag_40:\n      dup3\n      dup1\n      sload\n      dup3\n      dup3\n      sstore\n      swap1\n      0x00\n      mstore\n      keccak256(0x00, 0x20)\n      swap1\n      dup2\n      add\n      swap3\n      dup3\n      iszero\n      tag_41\n      jumpi\n      swap2\n      0x20\n      mul\n      dup3\n      add\n    tag_42:\n      dup3\n      dup2\n      gt\n      iszero\n      tag_43\n      jumpi\n      dup3\n      mload\n      dup3\n      sstore\n      swap2\n      0x20\n      add\n      swap2\n      swap1\n      0x01\n      add\n      swap1\n      jump(tag_42)\n    tag_43:\n    tag_41:\n      pop\n      swap1\n      pop\n      tag_44\n      swap2\n      swap1\n      tag_45\n      jump\t// in\n    tag_44:\n      pop\n      swap1\n      jump\t// out\n    tag_45:\n    tag_46:\n      dup1\n      dup3\n      gt\n      iszero\n      tag_47\n      jumpi\n      0x00\n      dup2\n      0x00\n      swap1\n      sstore\n      pop\n      0x01\n      add\n      jump(tag_46)\n    tag_47:\n      pop\n      swap1\n      jump\t// out\n        /* \"#utility.yul\":7:84   */\n    tag_48:\n        /* \"#utility.yul\":44:51   */\n      0x00\n        /* \"#utility.yul\":73:78   */\n      dup2\n        /* \"#utility.yul\":62:78   */\n      swap1\n      pop\n        /* \"#utility.yul\":7:84   */\n      swap2\n      swap1\n      pop\n      jump\t// out\n        /* \"#utility.yul\":90:208   */\n    tag_49:\n        /* \"#utility.yul\":177:201   */\n      tag_85\n        /* \"#utility.yul\":195:200   */\n      dup2\n        /* \"#utility.yul\":177:201   */\n      tag_48\n      jump\t// in\n    tag_85:\n        /* \"#utility.yul\":172:175   */\n      dup3\n        /* \"#utility.yul\":165:202   */\n      mstore\n        /* \"#utility.yul\":90:208   */\n      pop\n      pop\n      jump\t// out\n        /* \"#utility.yul\":214:436   */\n    tag_11:\n        /* \"#utility.yul\":307:311   */\n      0x00\n        /* \"#utility.yul\":345:347   */\n      0x20\n        /* \"#utility.yul\":334:343   */\n      dup3\n        /* \"#utility.yul\":330:348   */\n      add\n        /* \"#utility.yul\":322:348   */\n      swap1\n      pop\n        /* \"#utility.yul\":358:429   */\n      tag_87\n        /* \"#utility.yul\":426:427   */\n      0x00\n        /* \"#utility.yul\":415:424   */\n      dup4\n        /* \"#utility.yul\":411:428   */\n      add\n        /* \"#utility.yul\":402:408   */\n      dup5\n        /* \"#utility.yul\":358:429   */\n      tag_49\n      jump\t// in\n    tag_87:\n        /* \"#utility.yul\":214:436   */\n      swap3\n      swap2\n      pop\n      pop\n      jump\t// out\n        /* \"#utility.yul\":442:556   */\n    tag_50:\n        /* \"#utility.yul\":509:515   */\n      0x00\n        /* \"#utility.yul\":543:548   */\n      dup2\n        /* \"#utility.yul\":537:549   */\n      mload\n        /* \"#utility.yul\":527:549   */\n      swap1\n      pop\n        /* \"#utility.yul\":442:556   */\n      swap2\n      swap1\n      pop\n      jump\t// out\n        /* \"#utility.yul\":562:746   */\n    tag_51:\n        /* \"#utility.yul\":661:672   */\n      0x00\n        /* \"#utility.yul\":695:701   */\n      dup3\n        /* \"#utility.yul\":690:693   */\n      dup3\n        /* \"#utility.yul\":683:702   */\n      mstore\n        /* \"#utility.yul\":735:739   */\n      0x20\n        /* \"#utility.yul\":730:733   */\n      dup3\n        /* \"#utility.yul\":726:740   */\n      add\n        /* \"#utility.yul\":711:740   */\n      swap1\n      pop\n        /* \"#utility.yul\":562:746   */\n      swap3\n      swap2\n      pop\n      pop\n      jump\t// out\n        /* \"#utility.yul\":752:884   */\n    tag_52:\n        /* \"#utility.yul\":819:823   */\n      0x00\n        /* \"#utility.yul\":842:845   */\n      dup2\n        /* \"#utility.yul\":834:845   */\n      swap1\n      pop\n        /* \"#utility.yul\":872:876   */\n      0x20\n        /* \"#utility.yul\":867:870   */\n      dup3\n        /* \"#utility.yul\":863:877   */\n      add\n        /* \"#utility.yul\":855:877   */\n      swap1\n      pop\n        /* \"#utility.yul\":752:884   */\n      swap2\n      swap1\n      pop\n      jump\t// out\n        /* \"#utility.yul\":890:998   */\n    tag_53:\n        /* \"#utility.yul\":967:991   */\n      tag_92\n        /* \"#utility.yul\":985:990   */\n      dup2\n        /* \"#utility.yul\":967:991   */\n      tag_48\n      jump\t// in\n    tag_92:\n        /* \"#utility.yul\":962:965   */\n      dup3\n        /* \"#utility.yul\":955:992   */\n      mstore\n        /* \"#utility.yul\":890:998   */\n      pop\n      pop\n      jump\t// out\n        /* \"#utility.yul\":1004:1183   */\n    tag_54:\n        /* \"#utility.yul\":1073:1083   */\n      0x00\n        /* \"#utility.yul\":1094:1140   */\n      tag_94\n        /* \"#utility.yul\":1136:1139   */\n      dup4\n        /* \"#utility.yul\":1128:1134   */\n      dup4\n        /* \"#utility.yul\":1094:1140   */\n      tag_53\n      jump\t// in\n    tag_94:\n        /* \"#utility.yul\":1172:1176   */\n      0x20\n        /* \"#utility.yul\":1167:1170   */\n      dup4\n        /* \"#utility.yul\":1163:1177   */\n      add\n        /* \"#utility.yul\":1149:1177   */\n      swap1\n      pop\n        /* \"#utility.yul\":1004:1183   */\n      swap3\n      swap2\n      pop\n      pop\n      jump\t// out\n        /* \"#utility.yul\":1189:1302   */\n    tag_55:\n        /* \"#utility.yul\":1259:1263   */\n      0x00\n        /* \"#utility.yul\":1291:1295   */\n      0x20\n        /* \"#utility.yul\":1286:1289   */\n      dup3\n        /* \"#utility.yul\":1282:1296   */\n      add\n        /* \"#utility.yul\":1274:1296   */\n      swap1\n      pop\n        /* \"#utility.yul\":1189:1302   */\n      swap2\n      swap1\n      pop\n      jump\t// out\n        /* \"#utility.yul\":1338:2070   */\n    tag_56:\n        /* \"#utility.yul\":1457:1460   */\n      0x00\n        /* \"#utility.yul\":1486:1540   */\n      tag_97\n        /* \"#utility.yul\":1534:1539   */\n      dup3\n        /* \"#utility.yul\":1486:1540   */\n      tag_50\n      jump\t// in\n    tag_97:\n        /* \"#utility.yul\":1556:1642   */\n      tag_98\n        /* \"#utility.yul\":1635:1641   */\n      dup2\n        /* \"#utility.yul\":1630:1633   */\n      dup6\n        /* \"#utility.yul\":1556:1642   */\n      tag_51\n      jump\t// in\n    tag_98:\n        /* \"#utility.yul\":1549:1642   */\n      swap4\n      pop\n        /* \"#utility.yul\":1666:1722   */\n      tag_99\n        /* \"#utility.yul\":1716:1721   */\n      dup4\n        /* \"#utility.yul\":1666:1722   */\n      tag_52\n      jump\t// in\n    tag_99:\n        /* \"#utility.yul\":1745:1752   */\n      dup1\n        /* \"#utility.yul\":1776:1777   */\n      0x00\n        /* \"#utility.yul\":1761:2045   */\n    tag_100:\n        /* \"#utility.yul\":1786:1792   */\n      dup4\n        /* \"#utility.yul\":1783:1784   */\n      dup2\n        /* \"#utility.yul\":1780:1793   */\n      lt\n        /* \"#utility.yul\":1761:2045   */\n      iszero\n      tag_102\n      jumpi\n        /* \"#utility.yul\":1862:1868   */\n      dup2\n        /* \"#utility.yul\":1856:1869   */\n      mload\n        /* \"#utility.yul\":1889:1952   */\n      tag_103\n        /* \"#utility.yul\":1948:1951   */\n      dup9\n        /* \"#utility.yul\":1933:1946   */\n      dup3\n        /* \"#utility.yul\":1889:1952   */\n      tag_54\n      jump\t// in\n    tag_103:\n        /* \"#utility.yul\":1882:1952   */\n      swap8\n      pop\n        /* \"#utility.yul\":1975:2035   */\n      tag_104\n        /* \"#utility.yul\":2028:2034   */\n      dup4\n        /* \"#utility.yul\":1975:2035   */\n      tag_55\n      jump\t// in\n    tag_104:\n        /* \"#utility.yul\":1965:2035   */\n      swap3\n      pop\n        /* \"#utility.yul\":1821:2045   */\n      pop\n        /* \"#utility.yul\":1808:1809   */\n      0x01\n        /* \"#utility.yul\":1805:1806   */\n      dup2\n        /* \"#utility.yul\":1801:1810   */\n      add\n        /* \"#utility.yul\":1796:1810   */\n      swap1\n      pop\n        /* \"#utility.yul\":1761:2045   */\n      jump(tag_100)\n    tag_102:\n        /* \"#utility.yul\":1765:1779   */\n      pop\n        /* \"#utility.yul\":2061:2064   */\n      dup6\n        /* \"#utility.yul\":2054:2064   */\n      swap4\n      pop\n        /* \"#utility.yul\":1462:2070   */\n      pop\n      pop\n      pop\n        /* \"#utility.yul\":1338:2070   */\n      swap3\n      swap2\n      pop\n      pop\n      jump\t// out\n        /* \"#utility.yul\":2076:2449   */\n    tag_15:\n        /* \"#utility.yul\":2219:2223   */\n      0x00\n        /* \"#utility.yul\":2257:2259   */\n      0x20\n        /* \"#utility.yul\":2246:2255   */\n      dup3\n        /* \"#utility.yul\":2242:2260   */\n      add\n        /* \"#utility.yul\":2234:2260   */\n      swap1\n      pop\n        /* \"#utility.yul\":2306:2315   */\n      dup2\n        /* \"#utility.yul\":2300:2304   */\n      dup2\n        /* \"#utility.yul\":2296:2316   */\n      sub\n        /* \"#utility.yul\":2292:2293   */\n      0x00\n        /* \"#utility.yul\":2281:2290   */\n      dup4\n        /* \"#utility.yul\":2277:2294   */\n      add\n        /* \"#utility.yul\":2270:2317   */\n      mstore\n        /* \"#utility.yul\":2334:2442   */\n      tag_106\n        /* \"#utility.yul\":2437:2441   */\n      dup2\n        /* \"#utility.yul\":2428:2434   */\n      dup5\n        /* \"#utility.yul\":2334:2442   */\n      tag_56\n      jump\t// in\n    tag_106:\n        /* \"#utility.yul\":2326:2442   */\n      swap1\n      pop\n        /* \"#utility.yul\":2076:2449   */\n      swap3\n      swap2\n      pop\n      pop\n      jump\t// out\n        /* \"#utility.yul\":2455:2530   */\n    tag_57:\n        /* \"#utility.yul\":2488:2494   */\n      0x00\n        /* \"#utility.yul\":2521:2523   */\n      0x40\n        /* \"#utility.yul\":2515:2524   */\n      mload\n        /* \"#utility.yul\":2505:2524   */\n      swap1\n      pop\n        /* \"#utility.yul\":2455:2530   */\n      swap1\n      jump\t// out\n        /* \"#utility.yul\":2536:2653   */\n    tag_58:\n        /* \"#utility.yul\":2645:2646   */\n      0x00\n        /* \"#utility.yul\":2642:2643   */\n      dup1\n        /* \"#utility.yul\":2635:2647   */\n      revert\n        /* \"#utility.yul\":2659:2776   */\n    tag_59:\n        /* \"#utility.yul\":2768:2769   */\n      0x00\n        /* \"#utility.yul\":2765:2766   */\n      dup1\n        /* \"#utility.yul\":2758:2770   */\n      revert\n        /* \"#utility.yul\":2782:2908   */\n    tag_60:\n        /* \"#utility.yul\":2819:2826   */\n      0x00\n        /* \"#utility.yul\":2859:2901   */\n      0xffffffffffffffffffffffffffffffffffffffff\n        /* \"#utility.yul\":2852:2857   */\n      dup3\n        /* \"#utility.yul\":2848:2902   */\n      and\n        /* \"#utility.yul\":2837:2902   */\n      swap1\n      pop\n        /* \"#utility.yul\":2782:2908   */\n      swap2\n      swap1\n      pop\n      jump\t// out\n        /* \"#utility.yul\":2914:3010   */\n    tag_61:\n        /* \"#utility.yul\":2951:2958   */\n      0x00\n        /* \"#utility.yul\":2980:3004   */\n      tag_112\n        /* \"#utility.yul\":2998:3003   */\n      dup3\n        /* \"#utility.yul\":2980:3004   */\n      tag_60\n      jump\t// in\n    tag_112:\n        /* \"#utility.yul\":2969:3004   */\n      swap1\n      pop\n        /* \"#utility.yul\":2914:3010   */\n      swap2\n      swap1\n      pop\n      jump\t// out\n        /* \"#utility.yul\":3016:3138   */\n    tag_62:\n        /* \"#utility.yul\":3089:3113   */\n      tag_114\n        /* \"#utility.yul\":3107:3112   */\n      dup2\n        /* \"#utility.yul\":3089:3113   */\n      tag_61\n      jump\t// in\n    tag_114:\n        /* \"#utility.yul\":3082:3087   */\n      dup2\n        /* \"#utility.yul\":3079:3114   */\n      eq\n        /* \"#utility.yul\":3069:3132   */\n      tag_115\n      jumpi\n        /* \"#utility.yul\":3128:3129   */\n      0x00\n        /* \"#utility.yul\":3125:3126   */\n      dup1\n        /* \"#utility.yul\":3118:3130   */\n      revert\n        /* \"#utility.yul\":3069:3132   */\n    tag_115:\n        /* \"#utility.yul\":3016:3138   */\n      pop\n      jump\t// out\n        /* \"#utility.yul\":3144:3283   */\n    tag_63:\n        /* \"#utility.yul\":3190:3195   */\n      0x00\n        /* \"#utility.yul\":3228:3234   */\n      dup2\n        /* \"#utility.yul\":3215:3235   */\n      calldataload\n        /* \"#utility.yul\":3206:3235   */\n      swap1\n      pop\n        /* \"#utility.yul\":3244:3277   */\n      tag_117\n        /* \"#utility.yul\":3271:3276   */\n      dup2\n        /* \"#utility.yul\":3244:3277   */\n      tag_62\n      jump\t// in\n    tag_117:\n        /* \"#utility.yul\":3144:3283   */\n      swap3\n      swap2\n      pop\n      pop\n      jump\t// out\n        /* \"#utility.yul\":3289:3618   */\n    tag_18:\n        /* \"#utility.yul\":3348:3354   */\n      0x00\n        /* \"#utility.yul\":3397:3399   */\n      0x20\n        /* \"#utility.yul\":3385:3394   */\n      dup3\n        /* \"#utility.yul\":3376:3383   */\n      dup5\n        /* \"#utility.yul\":3372:3395   */\n      sub\n        /* \"#utility.yul\":3368:3400   */\n      slt\n        /* \"#utility.yul\":3365:3484   */\n      iszero\n      tag_119\n      jumpi\n        /* \"#utility.yul\":3403:3482   */\n      tag_120\n      tag_58\n      jump\t// in\n    tag_120:\n        /* \"#utility.yul\":3365:3484   */\n    tag_119:\n        /* \"#utility.yul\":3523:3524   */\n      0x00\n        /* \"#utility.yul\":3548:3601   */\n      tag_121\n        /* \"#utility.yul\":3593:3600   */\n      dup5\n        /* \"#utility.yul\":3584:3590   */\n      dup3\n        /* \"#utility.yul\":3573:3582   */\n      dup6\n        /* \"#utility.yul\":3569:3591   */\n      add\n        /* \"#utility.yul\":3548:3601   */\n      tag_63\n      jump\t// in\n    tag_121:\n        /* \"#utility.yul\":3538:3601   */\n      swap2\n      pop\n        /* \"#utility.yul\":3494:3611   */\n      pop\n        /* \"#utility.yul\":3289:3618   */\n      swap3\n      swap2\n      pop\n      pop\n      jump\t// out\n        /* \"#utility.yul\":3624:3741   */\n    tag_64:\n        /* \"#utility.yul\":3733:3734   */\n      0x00\n        /* \"#utility.yul\":3730:3731   */\n      dup1\n        /* \"#utility.yul\":3723:3735   */\n      revert\n        /* \"#utility.yul\":3747:3864   */\n    tag_65:\n        /* \"#utility.yul\":3856:3857   */\n      0x00\n        /* \"#utility.yul\":3853:3854   */\n      dup1\n        /* \"#utility.yul\":3846:3858   */\n      revert\n        /* \"#utility.yul\":3870:3972   */\n    tag_66:\n        /* \"#utility.yul\":3911:3917   */\n      0x00\n        /* \"#utility.yul\":3962:3964   */\n      0x1f\n        /* \"#utility.yul\":3958:3965   */\n      not\n        /* \"#utility.yul\":3953:3955   */\n      0x1f\n        /* \"#utility.yul\":3946:3951   */\n      dup4\n        /* \"#utility.yul\":3942:3956   */\n      add\n        /* \"#utility.yul\":3938:3966   */\n      and\n        /* \"#utility.yul\":3928:3966   */\n      swap1\n      pop\n        /* \"#utility.yul\":3870:3972   */\n      swap2\n      swap1\n      pop\n      jump\t// out\n        /* \"#utility.yul\":3978:4158   */\n    tag_67:\n        /* \"#utility.yul\":4026:4103   */\n      0x4e487b7100000000000000000000000000000000000000000000000000000000\n        /* \"#utility.yul\":4023:4024   */\n      0x00\n        /* \"#utility.yul\":4016:4104   */\n      mstore\n        /* \"#utility.yul\":4123:4127   */\n      0x41\n        /* \"#utility.yul\":4120:4121   */\n      0x04\n        /* \"#utility.yul\":4113:4128   */\n      mstore\n        /* \"#utility.yul\":4147:4151   */\n      0x24\n        /* \"#utility.yul\":4144:4145   */\n      0x00\n        /* \"#utility.yul\":4137:4152   */\n      revert\n        /* \"#utility.yul\":4164:4445   */\n    tag_68:\n        /* \"#utility.yul\":4247:4274   */\n      tag_127\n        /* \"#utility.yul\":4269:4273   */\n      dup3\n        /* \"#utility.yul\":4247:4274   */\n      tag_66\n      jump\t// in\n    tag_127:\n        /* \"#utility.yul\":4239:4245   */\n      dup2\n        /* \"#utility.yul\":4235:4275   */\n      add\n        /* \"#utility.yul\":4377:4383   */\n      dup2\n        /* \"#utility.yul\":4365:4375   */\n      dup2\n        /* \"#utility.yul\":4362:4384   */\n      lt\n        /* \"#utility.yul\":4341:4359   */\n      0xffffffffffffffff\n        /* \"#utility.yul\":4329:4339   */\n      dup3\n        /* \"#utility.yul\":4326:4360   */\n      gt\n        /* \"#utility.yul\":4323:4385   */\n      or\n        /* \"#utility.yul\":4320:4408   */\n      iszero\n      tag_128\n      jumpi\n        /* \"#utility.yul\":4388:4406   */\n      tag_129\n      tag_67\n      jump\t// in\n    tag_129:\n        /* \"#utility.yul\":4320:4408   */\n    tag_128:\n        /* \"#utility.yul\":4428:4438   */\n      dup1\n        /* \"#utility.yul\":4424:4426   */\n      0x40\n        /* \"#utility.yul\":4417:4439   */\n      mstore\n        /* \"#utility.yul\":4207:4445   */\n      pop\n        /* \"#utility.yul\":4164:4445   */\n      pop\n      pop\n      jump\t// out\n        /* \"#utility.yul\":4451:4580   */\n    tag_69:\n        /* \"#utility.yul\":4485:4491   */\n      0x00\n        /* \"#utility.yul\":4512:4532   */\n      tag_131\n      tag_57\n      jump\t// in\n    tag_131:\n        /* \"#utility.yul\":4502:4532   */\n      swap1\n      pop\n        /* \"#utility.yul\":4541:4574   */\n      tag_132\n        /* \"#utility.yul\":4569:4573   */\n      dup3\n        /* \"#utility.yul\":4561:4567   */\n      dup3\n        /* \"#utility.yul\":4541:4574   */\n      tag_68\n      jump\t// in\n    tag_132:\n        /* \"#utility.yul\":4451:4580   */\n      swap2\n      swap1\n      pop\n      jump\t// out\n        /* \"#utility.yul\":4586:4894   */\n    tag_70:\n        /* \"#utility.yul\":4648:4652   */\n      0x00\n        /* \"#utility.yul\":4738:4756   */\n      0xffffffffffffffff\n        /* \"#utility.yul\":4730:4736   */\n      dup3\n        /* \"#utility.yul\":4727:4757   */\n      gt\n        /* \"#utility.yul\":4724:4780   */\n      iszero\n      tag_134\n      jumpi\n        /* \"#utility.yul\":4760:4778   */\n      tag_135\n      tag_67\n      jump\t// in\n    tag_135:\n        /* \"#utility.yul\":4724:4780   */\n    tag_134:\n        /* \"#utility.yul\":4798:4827   */\n      tag_136\n        /* \"#utility.yul\":4820:4826   */\n      dup3\n        /* \"#utility.yul\":4798:4827   */\n      tag_66\n      jump\t// in\n    tag_136:\n        /* \"#utility.yul\":4790:4827   */\n      swap1\n      pop\n        /* \"#utility.yul\":4882:4886   */\n      0x20\n        /* \"#utility.yul\":4876:4880   */\n      dup2\n        /* \"#utility.yul\":4872:4887   */\n      add\n        /* \"#utility.yul\":4864:4887   */\n      swap1\n      pop\n        /* \"#utility.yul\":4586:4894   */\n      swap2\n      swap1\n      pop\n      jump\t// out\n        /* \"#utility.yul\":4900:5046   */\n    tag_71:\n        /* \"#utility.yul\":4997:5003   */\n      dup3\n        /* \"#utility.yul\":4992:4995   */\n      dup2\n        /* \"#utility.yul\":4987:4990   */\n      dup4\n        /* \"#utility.yul\":4974:5004   */\n      calldatacopy\n        /* \"#utility.yul\":5038:5039   */\n      0x00\n        /* \"#utility.yul\":5029:5035   */\n      dup4\n        /* \"#utility.yul\":5024:5027   */\n      dup4\n        /* \"#utility.yul\":5020:5036   */\n      add\n        /* \"#utility.yul\":5013:5040   */\n      mstore\n        /* \"#utility.yul\":4900:5046   */\n      pop\n      pop\n      pop\n      jump\t// out\n        /* \"#utility.yul\":5052:5477   */\n    tag_72:\n        /* \"#utility.yul\":5130:5135   */\n      0x00\n        /* \"#utility.yul\":5155:5221   */\n      tag_139\n        /* \"#utility.yul\":5171:5220   */\n      tag_140\n        /* \"#utility.yul\":5213:5219   */\n      dup5\n        /* \"#utility.yul\":5171:5220   */\n      tag_70\n      jump\t// in\n    tag_140:\n        /* \"#utility.yul\":5155:5221   */\n      tag_69\n      jump\t// in\n    tag_139:\n        /* \"#utility.yul\":5146:5221   */\n      swap1\n      pop\n        /* \"#utility.yul\":5244:5250   */\n      dup3\n        /* \"#utility.yul\":5237:5242   */\n      dup2\n        /* \"#utility.yul\":5230:5251   */\n      mstore\n        /* \"#utility.yul\":5282:5286   */\n      0x20\n        /* \"#utility.yul\":5275:5280   */\n      dup2\n        /* \"#utility.yul\":5271:5287   */\n      add\n        /* \"#utility.yul\":5320:5323   */\n      dup5\n        /* \"#utility.yul\":5311:5317   */\n      dup5\n        /* \"#utility.yul\":5306:5309   */\n      dup5\n        /* \"#utility.yul\":5302:5318   */\n      add\n        /* \"#utility.yul\":5299:5324   */\n      gt\n        /* \"#utility.yul\":5296:5408   */\n      iszero\n      tag_141\n      jumpi\n        /* \"#utility.yul\":5327:5406   */\n      tag_142\n      tag_65\n      jump\t// in\n    tag_142:\n        /* \"#utility.yul\":5296:5408   */\n    tag_141:\n        /* \"#utility.yul\":5417:5471   */\n      tag_143\n        /* \"#utility.yul\":5464:5470   */\n      dup5\n        /* \"#utility.yul\":5459:5462   */\n      dup3\n        /* \"#utility.yul\":5454:5457   */\n      dup6\n        /* \"#utility.yul\":5417:5471   */\n      tag_71\n      jump\t// in\n    tag_143:\n        /* \"#utility.yul\":5136:5477   */\n      pop\n        /* \"#utility.yul\":5052:5477   */\n      swap4\n      swap3\n      pop\n      pop\n      pop\n      jump\t// out\n        /* \"#utility.yul\":5497:5837   */\n    tag_73:\n        /* \"#utility.yul\":5553:5558   */\n      0x00\n        /* \"#utility.yul\":5602:5605   */\n      dup3\n        /* \"#utility.yul\":5595:5599   */\n      0x1f\n        /* \"#utility.yul\":5587:5593   */\n      dup4\n        /* \"#utility.yul\":5583:5600   */\n      add\n        /* \"#utility.yul\":5579:5606   */\n      slt\n        /* \"#utility.yul\":5569:5691   */\n      tag_145\n      jumpi\n        /* \"#utility.yul\":5610:5689   */\n      tag_146\n      tag_64\n      jump\t// in\n    tag_146:\n        /* \"#utility.yul\":5569:5691   */\n    tag_145:\n        /* \"#utility.yul\":5727:5733   */\n      dup2\n        /* \"#utility.yul\":5714:5734   */\n      calldataload\n        /* \"#utility.yul\":5752:5831   */\n      tag_147\n        /* \"#utility.yul\":5827:5830   */\n      dup5\n        /* \"#utility.yul\":5819:5825   */\n      dup3\n        /* \"#utility.yul\":5812:5816   */\n      0x20\n        /* \"#utility.yul\":5804:5810   */\n      dup7\n        /* \"#utility.yul\":5800:5817   */\n      add\n        /* \"#utility.yul\":5752:5831   */\n      tag_72\n      jump\t// in\n    tag_147:\n        /* \"#utility.yul\":5743:5831   */\n      swap2\n      pop\n        /* \"#utility.yul\":5559:5837   */\n      pop\n        /* \"#utility.yul\":5497:5837   */\n      swap3\n      swap2\n      pop\n      pop\n      jump\t// out\n        /* \"#utility.yul\":5843:6352   */\n    tag_23:\n        /* \"#utility.yul\":5912:5918   */\n      0x00\n        /* \"#utility.yul\":5961:5963   */\n      0x20\n        /* \"#utility.yul\":5949:5958   */\n      dup3\n        /* \"#utility.yul\":5940:5947   */\n      dup5\n        /* \"#utility.yul\":5936:5959   */\n      sub\n        /* \"#utility.yul\":5932:5964   */\n      slt\n        /* \"#utility.yul\":5929:6048   */\n      iszero\n      tag_149\n      jumpi\n        /* \"#utility.yul\":5967:6046   */\n      tag_150\n      tag_58\n      jump\t// in\n    tag_150:\n        /* \"#utility.yul\":5929:6048   */\n    tag_149:\n        /* \"#utility.yul\":6115:6116   */\n      0x00\n        /* \"#utility.yul\":6104:6113   */\n      dup3\n        /* \"#utility.yul\":6100:6117   */\n      add\n        /* \"#utility.yul\":6087:6118   */\n      calldataload\n        /* \"#utility.yul\":6145:6163   */\n      0xffffffffffffffff\n        /* \"#utility.yul\":6137:6143   */\n      dup2\n        /* \"#utility.yul\":6134:6164   */\n      gt\n        /* \"#utility.yul\":6131:6248   */\n      iszero\n      tag_151\n      jumpi\n        /* \"#utility.yul\":6167:6246   */\n      tag_152\n      tag_59\n      jump\t// in\n    tag_152:\n        /* \"#utility.yul\":6131:6248   */\n    tag_151:\n        /* \"#utility.yul\":6272:6335   */\n      tag_153\n        /* \"#utility.yul\":6327:6334   */\n      dup5\n        /* \"#utility.yul\":6318:6324   */\n      dup3\n        /* \"#utility.yul\":6307:6316   */\n      dup6\n        /* \"#utility.yul\":6303:6325   */\n      add\n        /* \"#utility.yul\":6272:6335   */\n      tag_73\n      jump\t// in\n    tag_153:\n        /* \"#utility.yul\":6262:6335   */\n      swap2\n      pop\n        /* \"#utility.yul\":6058:6345   */\n      pop\n        /* \"#utility.yul\":5843:6352   */\n      swap3\n      swap2\n      pop\n      pop\n      jump\t// out\n        /* \"#utility.yul\":6358:6452   */\n    tag_74:\n        /* \"#utility.yul\":6391:6399   */\n      0x00\n        /* \"#utility.yul\":6439:6444   */\n      dup2\n        /* \"#utility.yul\":6435:6437   */\n      0x60\n        /* \"#utility.yul\":6431:6445   */\n      shl\n        /* \"#utility.yul\":6410:6445   */\n      swap1\n      pop\n        /* \"#utility.yul\":6358:6452   */\n      swap2\n      swap1\n      pop\n      jump\t// out\n        /* \"#utility.yul\":6458:6552   */\n    tag_75:\n        /* \"#utility.yul\":6497:6504   */\n      0x00\n        /* \"#utility.yul\":6526:6546   */\n      tag_156\n        /* \"#utility.yul\":6540:6545   */\n      dup3\n        /* \"#utility.yul\":6526:6546   */\n      tag_74\n      jump\t// in\n    tag_156:\n        /* \"#utility.yul\":6515:6546   */\n      swap1\n      pop\n        /* \"#utility.yul\":6458:6552   */\n      swap2\n      swap1\n      pop\n      jump\t// out\n        /* \"#utility.yul\":6558:6658   */\n    tag_76:\n        /* \"#utility.yul\":6597:6604   */\n      0x00\n        /* \"#utility.yul\":6626:6652   */\n      tag_158\n        /* \"#utility.yul\":6646:6651   */\n      dup3\n        /* \"#utility.yul\":6626:6652   */\n      tag_75\n      jump\t// in\n    tag_158:\n        /* \"#utility.yul\":6615:6652   */\n      swap1\n      pop\n        /* \"#utility.yul\":6558:6658   */\n      swap2\n      swap1\n      pop\n      jump\t// out\n        /* \"#utility.yul\":6664:6821   */\n    tag_77:\n        /* \"#utility.yul\":6769:6814   */\n      tag_160\n        /* \"#utility.yul\":6789:6813   */\n      tag_161\n        /* \"#utility.yul\":6807:6812   */\n      dup3\n        /* \"#utility.yul\":6789:6813   */\n      tag_61\n      jump\t// in\n    tag_161:\n        /* \"#utility.yul\":6769:6814   */\n      tag_76\n      jump\t// in\n    tag_160:\n        /* \"#utility.yul\":6764:6767   */\n      dup3\n        /* \"#utility.yul\":6757:6815   */\n      mstore\n        /* \"#utility.yul\":6664:6821   */\n      pop\n      pop\n      jump\t// out\n        /* \"#utility.yul\":6827:7083   */\n    tag_34:\n        /* \"#utility.yul\":6939:6942   */\n      0x00\n        /* \"#utility.yul\":6954:7029   */\n      tag_163\n        /* \"#utility.yul\":7025:7028   */\n      dup3\n        /* \"#utility.yul\":7016:7022   */\n      dup5\n        /* \"#utility.yul\":6954:7029   */\n      tag_77\n      jump\t// in\n    tag_163:\n        /* \"#utility.yul\":7054:7056   */\n      0x14\n        /* \"#utility.yul\":7049:7052   */\n      dup3\n        /* \"#utility.yul\":7045:7057   */\n      add\n        /* \"#utility.yul\":7038:7057   */\n      swap2\n      pop\n        /* \"#utility.yul\":7074:7077   */\n      dup2\n        /* \"#utility.yul\":7067:7077   */\n      swap1\n      pop\n        /* \"#utility.yul\":6827:7083   */\n      swap3\n      swap2\n      pop\n      pop\n      jump\t// out\n        /* \"#utility.yul\":7089:7188   */\n    tag_78:\n        /* \"#utility.yul\":7141:7147   */\n      0x00\n        /* \"#utility.yul\":7175:7180   */\n      dup2\n        /* \"#utility.yul\":7169:7181   */\n      mload\n        /* \"#utility.yul\":7159:7181   */\n      swap1\n      pop\n        /* \"#utility.yul\":7089:7188   */\n      swap2\n      swap1\n      pop\n      jump\t// out\n        /* \"#utility.yul\":7194:7342   */\n    tag_79:\n        /* \"#utility.yul\":7296:7307   */\n      0x00\n        /* \"#utility.yul\":7333:7336   */\n      dup2\n        /* \"#utility.yul\":7318:7336   */\n      swap1\n      pop\n        /* \"#utility.yul\":7194:7342   */\n      swap3\n      swap2\n      pop\n      pop\n      jump\t// out\n        /* \"#utility.yul\":7348:7594   */\n    tag_80:\n        /* \"#utility.yul\":7429:7430   */\n      0x00\n        /* \"#utility.yul\":7439:7552   */\n    tag_167:\n        /* \"#utility.yul\":7453:7459   */\n      dup4\n        /* \"#utility.yul\":7450:7451   */\n      dup2\n        /* \"#utility.yul\":7447:7460   */\n      lt\n        /* \"#utility.yul\":7439:7552   */\n      iszero\n      tag_169\n      jumpi\n        /* \"#utility.yul\":7538:7539   */\n      dup1\n        /* \"#utility.yul\":7533:7536   */\n      dup3\n        /* \"#utility.yul\":7529:7540   */\n      add\n        /* \"#utility.yul\":7523:7541   */\n      mload\n        /* \"#utility.yul\":7519:7520   */\n      dup2\n        /* \"#utility.yul\":7514:7517   */\n      dup5\n        /* \"#utility.yul\":7510:7521   */\n      add\n        /* \"#utility.yul\":7503:7542   */\n      mstore\n        /* \"#utility.yul\":7475:7477   */\n      0x20\n        /* \"#utility.yul\":7472:7473   */\n      dup2\n        /* \"#utility.yul\":7468:7478   */\n      add\n        /* \"#utility.yul\":7463:7478   */\n      swap1\n      pop\n        /* \"#utility.yul\":7439:7552   */\n      jump(tag_167)\n    tag_169:\n        /* \"#utility.yul\":7586:7587   */\n      0x00\n        /* \"#utility.yul\":7577:7583   */\n      dup5\n        /* \"#utility.yul\":7572:7575   */\n      dup5\n        /* \"#utility.yul\":7568:7584   */\n      add\n        /* \"#utility.yul\":7561:7588   */\n      mstore\n        /* \"#utility.yul\":7410:7594   */\n      pop\n        /* \"#utility.yul\":7348:7594   */\n      pop\n      pop\n      pop\n      jump\t// out\n        /* \"#utility.yul\":7600:7990   */\n    tag_81:\n        /* \"#utility.yul\":7706:7709   */\n      0x00\n        /* \"#utility.yul\":7734:7773   */\n      tag_171\n        /* \"#utility.yul\":7767:7772   */\n      dup3\n        /* \"#utility.yul\":7734:7773   */\n      tag_78\n      jump\t// in\n    tag_171:\n        /* \"#utility.yul\":7789:7878   */\n      tag_172\n        /* \"#utility.yul\":7871:7877   */\n      dup2\n        /* \"#utility.yul\":7866:7869   */\n      dup6\n        /* \"#utility.yul\":7789:7878   */\n      tag_79\n      jump\t// in\n    tag_172:\n        /* \"#utility.yul\":7782:7878   */\n      swap4\n      pop\n        /* \"#utility.yul\":7887:7952   */\n      tag_173\n        /* \"#utility.yul\":7945:7951   */\n      dup2\n        /* \"#utility.yul\":7940:7943   */\n      dup6\n        /* \"#utility.yul\":7933:7937   */\n      0x20\n        /* \"#utility.yul\":7926:7931   */\n      dup7\n        /* \"#utility.yul\":7922:7938   */\n      add\n        /* \"#utility.yul\":7887:7952   */\n      tag_80\n      jump\t// in\n    tag_173:\n        /* \"#utility.yul\":7977:7983   */\n      dup1\n        /* \"#utility.yul\":7972:7975   */\n      dup5\n        /* \"#utility.yul\":7968:7984   */\n      add\n        /* \"#utility.yul\":7961:7984   */\n      swap2\n      pop\n        /* \"#utility.yul\":7710:7990   */\n      pop\n        /* \"#utility.yul\":7600:7990   */\n      swap3\n      swap2\n      pop\n      pop\n      jump\t// out\n        /* \"#utility.yul\":7996:8271   */\n    tag_37:\n        /* \"#utility.yul\":8128:8131   */\n      0x00\n        /* \"#utility.yul\":8150:8245   */\n      tag_175\n        /* \"#utility.yul\":8241:8244   */\n      dup3\n        /* \"#utility.yul\":8232:8238   */\n      dup5\n        /* \"#utility.yul\":8150:8245   */\n      tag_81\n      jump\t// in\n    tag_175:\n        /* \"#utility.yul\":8143:8245   */\n      swap2\n      pop\n        /* \"#utility.yul\":8262:8265   */\n      dup2\n        /* \"#utility.yul\":8255:8265   */\n      swap1\n      pop\n        /* \"#utility.yul\":7996:8271   */\n      swap3\n      swap2\n      pop\n      pop\n      jump\t// out\n\n    auxdata: 0xa2646970667358221220c7729daa55ba1f5c2747d43b2f8d73320cc9c1f0270e2b8928dd578418645f2864736f6c63430008180033\n}\n",
				"bytecode": {
					"linkReferences": {},
					"object": "608060405234801561000f575f80fd5b505f3360405160200161002291906100f7565b60405160208183030381529060405280519060200120908060018154018082558091505060019003905f5260205f20015f90919091909150555f808154811061006e5761006d610111565b5b905f5260205f20015460018190555061013e565b5f73ffffffffffffffffffffffffffffffffffffffff82169050919050565b5f6100ab82610082565b9050919050565b5f8160601b9050919050565b5f6100c8826100b2565b9050919050565b5f6100d9826100be565b9050919050565b6100f16100ec826100a1565b6100cf565b82525050565b5f61010282846100e0565b60148201915081905092915050565b7f4e487b71000000000000000000000000000000000000000000000000000000005f52603260045260245ffd5b61067d8061014b5f395ff3fe608060405234801561000f575f80fd5b5060043610610055575f3560e01c806304c09ce9146100595780630b7f1665146100775780633aa5fe5914610095578063766954b4146100c5578063c50e1b70146100f5575b5f80fd5b6100616100ff565b60405161006e919061025d565b60405180910390f35b61007f610108565b60405161008c919061032d565b60405180910390f35b6100af60048036038101906100aa91906103b8565b61015d565b6040516100bc919061025d565b60405180910390f35b6100df60048036038101906100da919061051f565b61018c565b6040516100ec919061025d565b60405180910390f35b6100fd6101bb565b005b5f600154905090565b60605f80548060200260200160405190810160405280929190818152602001828054801561015357602002820191905f5260205f20905b81548152602001906001019080831161013f575b5050505050905090565b5f8160405160200161016f91906105ab565b604051602081830303815290604052805190602001209050919050565b5f8160405160200161019e9190610631565b604051602081830303815290604052805190602001209050919050565b5f806001819055506060805f90805190602001906101da9291906101df565b505050565b828054828255905f5260205f20908101928215610219579160200282015b828111156102185782518255916020019190600101906101fd565b5b509050610226919061022a565b5090565b5b80821115610241575f815f90555060010161022b565b5090565b5f819050919050565b61025781610245565b82525050565b5f6020820190506102705f83018461024e565b92915050565b5f81519050919050565b5f82825260208201905092915050565b5f819050602082019050919050565b6102a881610245565b82525050565b5f6102b9838361029f565b60208301905092915050565b5f602082019050919050565b5f6102db82610276565b6102e58185610280565b93506102f083610290565b805f5b8381101561032057815161030788826102ae565b9750610312836102c5565b9250506001810190506102f3565b5085935050505092915050565b5f6020820190508181035f83015261034581846102d1565b905092915050565b5f604051905090565b5f80fd5b5f80fd5b5f73ffffffffffffffffffffffffffffffffffffffff82169050919050565b5f6103878261035e565b9050919050565b6103978161037d565b81146103a1575f80fd5b50565b5f813590506103b28161038e565b92915050565b5f602082840312156103cd576103cc610356565b5b5f6103da848285016103a4565b91505092915050565b5f80fd5b5f80fd5b5f601f19601f8301169050919050565b7f4e487b71000000000000000000000000000000000000000000000000000000005f52604160045260245ffd5b610431826103eb565b810181811067ffffffffffffffff821117156104505761044f6103fb565b5b80604052505050565b5f61046261034d565b905061046e8282610428565b919050565b5f67ffffffffffffffff82111561048d5761048c6103fb565b5b610496826103eb565b9050602081019050919050565b828183375f83830152505050565b5f6104c36104be84610473565b610459565b9050828152602081018484840111156104df576104de6103e7565b5b6104ea8482856104a3565b509392505050565b5f82601f830112610506576105056103e3565b5b81356105168482602086016104b1565b91505092915050565b5f6020828403121561053457610533610356565b5b5f82013567ffffffffffffffff8111156105515761055061035a565b5b61055d848285016104f2565b91505092915050565b5f8160601b9050919050565b5f61057c82610566565b9050919050565b5f61058d82610572565b9050919050565b6105a56105a08261037d565b610583565b82525050565b5f6105b68284610594565b60148201915081905092915050565b5f81519050919050565b5f81905092915050565b5f5b838110156105f65780820151818401526020810190506105db565b5f8484015250505050565b5f61060b826105c5565b61061581856105cf565b93506106258185602086016105d9565b80840191505092915050565b5f61063c8284610601565b91508190509291505056fea2646970667358221220c7729daa55ba1f5c2747d43b2f8d73320cc9c1f0270e2b8928dd578418645f2864736f6c63430008180033",
					"opcodes": "PUSH1 0x80 PUSH1 0x40 MSTORE CALLVALUE DUP1 ISZERO PUSH2 0xF JUMPI PUSH0 DUP1 REVERT JUMPDEST POP PUSH0 CALLER PUSH1 0x40 MLOAD PUSH1 0x20 ADD PUSH2 0x22 SWAP2 SWAP1 PUSH2 0xF7 JUMP JUMPDEST PUSH1 0x40 MLOAD PUSH1 0x20 DUP2 DUP4 SUB SUB DUP2 MSTORE SWAP1 PUSH1 0x40 MSTORE DUP1 MLOAD SWAP1 PUSH1 0x20 ADD KECCAK256 SWAP1 DUP1 PUSH1 0x1 DUP2 SLOAD ADD DUP1 DUP3 SSTORE DUP1 SWAP2 POP POP PUSH1 0x1 SWAP1 SUB SWAP1 PUSH0 MSTORE PUSH1 0x20 PUSH0 KECCAK256 ADD PUSH0 SWAP1 SWAP2 SWAP1 SWAP2 SWAP1 SWAP2 POP SSTORE PUSH0 DUP1 DUP2 SLOAD DUP2 LT PUSH2 0x6E JUMPI PUSH2 0x6D PUSH2 0x111 JUMP JUMPDEST JUMPDEST SWAP1 PUSH0 MSTORE PUSH1 0x20 PUSH0 KECCAK256 ADD SLOAD PUSH1 0x1 DUP2 SWAP1 SSTORE POP PUSH2 0x13E JUMP JUMPDEST PUSH0 PUSH20 0xFFFFFFFFFFFFFFFFFFFFFFFFFFFFFFFFFFFFFFFF DUP3 AND SWAP1 POP SWAP2 SWAP1 POP JUMP JUMPDEST PUSH0 PUSH2 0xAB DUP3 PUSH2 0x82 JUMP JUMPDEST SWAP1 POP SWAP2 SWAP1 POP JUMP JUMPDEST PUSH0 DUP2 PUSH1 0x60 SHL SWAP1 POP SWAP2 SWAP1 POP JUMP JUMPDEST PUSH0 PUSH2 0xC8 DUP3 PUSH2 0xB2 JUMP JUMPDEST SWAP1 POP SWAP2 SWAP1 POP JUMP JUMPDEST PUSH0 PUSH2 0xD9 DUP3 PUSH2 0xBE JUMP JUMPDEST SWAP1 POP SWAP2 SWAP1 POP JUMP JUMPDEST PUSH2 0xF1 PUSH2 0xEC DUP3 PUSH2 0xA1 JUMP JUMPDEST PUSH2 0xCF JUMP JUMPDEST DUP3 MSTORE POP POP JUMP JUMPDEST PUSH0 PUSH2 0x102 DUP3 DUP5 PUSH2 0xE0 JUMP JUMPDEST PUSH1 0x14 DUP3 ADD SWAP2 POP DUP2 SWAP1 POP SWAP3 SWAP2 POP POP JUMP JUMPDEST PUSH32 0x4E487B7100000000000000000000000000000000000000000000000000000000 PUSH0 MSTORE PUSH1 0x32 PUSH1 0x4 MSTORE PUSH1 0x24 PUSH0 REVERT JUMPDEST PUSH2 0x67D DUP1 PUSH2 0x14B PUSH0 CODECOPY PUSH0 RETURN INVALID PUSH1 0x80 PUSH1 0x40 MSTORE CALLVALUE DUP1 ISZERO PUSH2 0xF JUMPI PUSH0 DUP1 REVERT JUMPDEST POP PUSH1 0x4 CALLDATASIZE LT PUSH2 0x55 JUMPI PUSH0 CALLDATALOAD PUSH1 0xE0 SHR DUP1 PUSH4 0x4C09CE9 EQ PUSH2 0x59 JUMPI DUP1 PUSH4 0xB7F1665 EQ PUSH2 0x77 JUMPI DUP1 PUSH4 0x3AA5FE59 EQ PUSH2 0x95 JUMPI DUP1 PUSH4 0x766954B4 EQ PUSH2 0xC5 JUMPI DUP1 PUSH4 0xC50E1B70 EQ PUSH2 0xF5 JUMPI JUMPDEST PUSH0 DUP1 REVERT JUMPDEST PUSH2 0x61 PUSH2 0xFF JUMP JUMPDEST PUSH1 0x40 MLOAD PUSH2 0x6E SWAP2 SWAP1 PUSH2 0x25D JUMP JUMPDEST PUSH1 0x40 MLOAD DUP1 SWAP2 SUB SWAP1 RETURN JUMPDEST PUSH2 0x7F PUSH2 0x108 JUMP JUMPDEST PUSH1 0x40 MLOAD PUSH2 0x8C SWAP2 SWAP1 PUSH2 0x32D JUMP JUMPDEST PUSH1 0x40 MLOAD DUP1 SWAP2 SUB SWAP1 RETURN JUMPDEST PUSH2 0xAF PUSH1 0x4 DUP1 CALLDATASIZE SUB DUP2 ADD SWAP1 PUSH2 0xAA SWAP2 SWAP1 PUSH2 0x3B8 JUMP JUMPDEST PUSH2 0x15D JUMP JUMPDEST PUSH1 0x40 MLOAD PUSH2 0xBC SWAP2 SWAP1 PUSH2 0x25D JUMP JUMPDEST PUSH1 0x40 MLOAD DUP1 SWAP2 SUB SWAP1 RETURN JUMPDEST PUSH2 0xDF PUSH1 0x4 DUP1 CALLDATASIZE SUB DUP2 ADD SWAP1 PUSH2 0xDA SWAP2 SWAP1 PUSH2 0x51F JUMP JUMPDEST PUSH2 0x18C JUMP JUMPDEST PUSH1 0x40 MLOAD PUSH2 0xEC SWAP2 SWAP1 PUSH2 0x25D JUMP JUMPDEST PUSH1 0x40 MLOAD DUP1 SWAP2 SUB SWAP1 RETURN JUMPDEST PUSH2 0xFD PUSH2 0x1BB JUMP JUMPDEST STOP JUMPDEST PUSH0 PUSH1 0x1 SLOAD SWAP1 POP SWAP1 JUMP JUMPDEST PUSH1 0x60 PUSH0 DUP1 SLOAD DUP1 PUSH1 0x20 MUL PUSH1 0x20 ADD PUSH1 0x40 MLOAD SWAP1 DUP2 ADD PUSH1 0x40 MSTORE DUP1 SWAP3 SWAP2 SWAP1 DUP2 DUP2 MSTORE PUSH1 0x20 ADD DUP3 DUP1 SLOAD DUP1 ISZERO PUSH2 0x153 JUMPI PUSH1 0x20 MUL DUP3 ADD SWAP2 SWAP1 PUSH0 MSTORE PUSH1 0x20 PUSH0 KECCAK256 SWAP1 JUMPDEST DUP2 SLOAD DUP2 MSTORE PUSH1 0x20 ADD SWAP1 PUSH1 0x1 ADD SWAP1 DUP1 DUP4 GT PUSH2 0x13F JUMPI JUMPDEST POP POP POP POP POP SWAP1 POP SWAP1 JUMP JUMPDEST PUSH0 DUP2 PUSH1 0x40 MLOAD PUSH1 0x20 ADD PUSH2 0x16F SWAP2 SWAP1 PUSH2 0x5AB JUMP JUMPDEST PUSH1 0x40 MLOAD PUSH1 0x20 DUP2 DUP4 SUB SUB DUP2 MSTORE SWAP1 PUSH1 0x40 MSTORE DUP1 MLOAD SWAP1 PUSH1 0x20 ADD KECCAK256 SWAP1 POP SWAP2 SWAP1 POP JUMP JUMPDEST PUSH0 DUP2 PUSH1 0x40 MLOAD PUSH1 0x20 ADD PUSH2 0x19E SWAP2 SWAP1 PUSH2 0x631 JUMP JUMPDEST PUSH1 0x40 MLOAD PUSH1 0x20 DUP2 DUP4 SUB SUB DUP2 MSTORE SWAP1 PUSH1 0x40 MSTORE DUP1 MLOAD SWAP1 PUSH1 0x20 ADD KECCAK256 SWAP1 POP SWAP2 SWAP1 POP JUMP JUMPDEST PUSH0 DUP1 PUSH1 0x1 DUP2 SWAP1 SSTORE POP PUSH1 0x60 DUP1 PUSH0 SWAP1 DUP1 MLOAD SWAP1 PUSH1 0x20 ADD SWAP1 PUSH2 0x1DA SWAP3 SWAP2 SWAP1 PUSH2 0x1DF JUMP JUMPDEST POP POP POP JUMP JUMPDEST DUP3 DUP1 SLOAD DUP3 DUP3 SSTORE SWAP1 PUSH0 MSTORE PUSH1 0x20 PUSH0 KECCAK256 SWAP1 DUP2 ADD SWAP3 DUP3 ISZERO PUSH2 0x219 JUMPI SWAP2 PUSH1 0x20 MUL DUP3 ADD JUMPDEST DUP3 DUP2 GT ISZERO PUSH2 0x218 JUMPI DUP3 MLOAD DUP3 SSTORE SWAP2 PUSH1 0x20 ADD SWAP2 SWAP1 PUSH1 0x1 ADD SWAP1 PUSH2 0x1FD JUMP JUMPDEST JUMPDEST POP SWAP1 POP PUSH2 0x226 SWAP2 SWAP1 PUSH2 0x22A JUMP JUMPDEST POP SWAP1 JUMP JUMPDEST JUMPDEST DUP1 DUP3 GT ISZERO PUSH2 0x241 JUMPI PUSH0 DUP2 PUSH0 SWAP1 SSTORE POP PUSH1 0x1 ADD PUSH2 0x22B JUMP JUMPDEST POP SWAP1 JUMP JUMPDEST PUSH0 DUP2 SWAP1 POP SWAP2 SWAP1 POP JUMP JUMPDEST PUSH2 0x257 DUP2 PUSH2 0x245 JUMP JUMPDEST DUP3 MSTORE POP POP JUMP JUMPDEST PUSH0 PUSH1 0x20 DUP3 ADD SWAP1 POP PUSH2 0x270 PUSH0 DUP4 ADD DUP5 PUSH2 0x24E JUMP JUMPDEST SWAP3 SWAP2 POP POP JUMP JUMPDEST PUSH0 DUP2 MLOAD SWAP1 POP SWAP2 SWAP1 POP JUMP JUMPDEST PUSH0 DUP3 DUP3 MSTORE PUSH1 0x20 DUP3 ADD SWAP1 POP SWAP3 SWAP2 POP POP JUMP JUMPDEST PUSH0 DUP2 SWAP1 POP PUSH1 0x20 DUP3 ADD SWAP1 POP SWAP2 SWAP1 POP JUMP JUMPDEST PUSH2 0x2A8 DUP2 PUSH2 0x245 JUMP JUMPDEST DUP3 MSTORE POP POP JUMP JUMPDEST PUSH0 PUSH2 0x2B9 DUP4 DUP4 PUSH2 0x29F JUMP JUMPDEST PUSH1 0x20 DUP4 ADD SWAP1 POP SWAP3 SWAP2 POP POP JUMP JUMPDEST PUSH0 PUSH1 0x20 DUP3 ADD SWAP1 POP SWAP2 SWAP1 POP JUMP JUMPDEST PUSH0 PUSH2 0x2DB DUP3 PUSH2 0x276 JUMP JUMPDEST PUSH2 0x2E5 DUP2 DUP6 PUSH2 0x280 JUMP JUMPDEST SWAP4 POP PUSH2 0x2F0 DUP4 PUSH2 0x290 JUMP JUMPDEST DUP1 PUSH0 JUMPDEST DUP4 DUP2 LT ISZERO PUSH2 0x320 JUMPI DUP2 MLOAD PUSH2 0x307 DUP9 DUP3 PUSH2 0x2AE JUMP JUMPDEST SWAP8 POP PUSH2 0x312 DUP4 PUSH2 0x2C5 JUMP JUMPDEST SWAP3 POP POP PUSH1 0x1 DUP2 ADD SWAP1 POP PUSH2 0x2F3 JUMP JUMPDEST POP DUP6 SWAP4 POP POP POP POP SWAP3 SWAP2 POP POP JUMP JUMPDEST PUSH0 PUSH1 0x20 DUP3 ADD SWAP1 POP DUP2 DUP2 SUB PUSH0 DUP4 ADD MSTORE PUSH2 0x345 DUP2 DUP5 PUSH2 0x2D1 JUMP JUMPDEST SWAP1 POP SWAP3 SWAP2 POP POP JUMP JUMPDEST PUSH0 PUSH1 0x40 MLOAD SWAP1 POP SWAP1 JUMP JUMPDEST PUSH0 DUP1 REVERT JUMPDEST PUSH0 DUP1 REVERT JUMPDEST PUSH0 PUSH20 0xFFFFFFFFFFFFFFFFFFFFFFFFFFFFFFFFFFFFFFFF DUP3 AND SWAP1 POP SWAP2 SWAP1 POP JUMP JUMPDEST PUSH0 PUSH2 0x387 DUP3 PUSH2 0x35E JUMP JUMPDEST SWAP1 POP SWAP2 SWAP1 POP JUMP JUMPDEST PUSH2 0x397 DUP2 PUSH2 0x37D JUMP JUMPDEST DUP2 EQ PUSH2 0x3A1 JUMPI PUSH0 DUP1 REVERT JUMPDEST POP JUMP JUMPDEST PUSH0 DUP2 CALLDATALOAD SWAP1 POP PUSH2 0x3B2 DUP2 PUSH2 0x38E JUMP JUMPDEST SWAP3 SWAP2 POP POP JUMP JUMPDEST PUSH0 PUSH1 0x20 DUP3 DUP5 SUB SLT ISZERO PUSH2 0x3CD JUMPI PUSH2 0x3CC PUSH2 0x356 JUMP JUMPDEST JUMPDEST PUSH0 PUSH2 0x3DA DUP5 DUP3 DUP6 ADD PUSH2 0x3A4 JUMP JUMPDEST SWAP2 POP POP SWAP3 SWAP2 POP POP JUMP JUMPDEST PUSH0 DUP1 REVERT JUMPDEST PUSH0 DUP1 REVERT JUMPDEST PUSH0 PUSH1 0x1F NOT PUSH1 0x1F DUP4 ADD AND SWAP1 POP SWAP2 SWAP1 POP JUMP JUMPDEST PUSH32 0x4E487B7100000000000000000000000000000000000000000000000000000000 PUSH0 MSTORE PUSH1 0x41 PUSH1 0x4 MSTORE PUSH1 0x24 PUSH0 REVERT JUMPDEST PUSH2 0x431 DUP3 PUSH2 0x3EB JUMP JUMPDEST DUP2 ADD DUP2 DUP2 LT PUSH8 0xFFFFFFFFFFFFFFFF DUP3 GT OR ISZERO PUSH2 0x450 JUMPI PUSH2 0x44F PUSH2 0x3FB JUMP JUMPDEST JUMPDEST DUP1 PUSH1 0x40 MSTORE POP POP POP JUMP JUMPDEST PUSH0 PUSH2 0x462 PUSH2 0x34D JUMP JUMPDEST SWAP1 POP PUSH2 0x46E DUP3 DUP3 PUSH2 0x428 JUMP JUMPDEST SWAP2 SWAP1 POP JUMP JUMPDEST PUSH0 PUSH8 0xFFFFFFFFFFFFFFFF DUP3 GT ISZERO PUSH2 0x48D JUMPI PUSH2 0x48C PUSH2 0x3FB JUMP JUMPDEST JUMPDEST PUSH2 0x496 DUP3 PUSH2 0x3EB JUMP JUMPDEST SWAP1 POP PUSH1 0x20 DUP2 ADD SWAP1 POP SWAP2 SWAP1 POP JUMP JUMPDEST DUP3 DUP2 DUP4 CALLDATACOPY PUSH0 DUP4 DUP4 ADD MSTORE POP POP POP JUMP JUMPDEST PUSH0 PUSH2 0x4C3 PUSH2 0x4BE DUP5 PUSH2 0x473 JUMP JUMPDEST PUSH2 0x459 JUMP JUMPDEST SWAP1 POP DUP3 DUP2 MSTORE PUSH1 0x20 DUP2 ADD DUP5 DUP5 DUP5 ADD GT ISZERO PUSH2 0x4DF JUMPI PUSH2 0x4DE PUSH2 0x3E7 JUMP JUMPDEST JUMPDEST PUSH2 0x4EA DUP5 DUP3 DUP6 PUSH2 0x4A3 JUMP JUMPDEST POP SWAP4 SWAP3 POP POP POP JUMP JUMPDEST PUSH0 DUP3 PUSH1 0x1F DUP4 ADD SLT PUSH2 0x506 JUMPI PUSH2 0x505 PUSH2 0x3E3 JUMP JUMPDEST JUMPDEST DUP2 CALLDATALOAD PUSH2 0x516 DUP5 DUP3 PUSH1 0x20 DUP7 ADD PUSH2 0x4B1 JUMP JUMPDEST SWAP2 POP POP SWAP3 SWAP2 POP POP JUMP JUMPDEST PUSH0 PUSH1 0x20 DUP3 DUP5 SUB SLT ISZERO PUSH2 0x534 JUMPI PUSH2 0x533 PUSH2 0x356 JUMP JUMPDEST JUMPDEST PUSH0 DUP3 ADD CALLDATALOAD PUSH8 0xFFFFFFFFFFFFFFFF DUP2 GT ISZERO PUSH2 0x551 JUMPI PUSH2 0x550 PUSH2 0x35A JUMP JUMPDEST JUMPDEST PUSH2 0x55D DUP5 DUP3 DUP6 ADD PUSH2 0x4F2 JUMP JUMPDEST SWAP2 POP POP SWAP3 SWAP2 POP POP JUMP JUMPDEST PUSH0 DUP2 PUSH1 0x60 SHL SWAP1 POP SWAP2 SWAP1 POP JUMP JUMPDEST PUSH0 PUSH2 0x57C DUP3 PUSH2 0x566 JUMP JUMPDEST SWAP1 POP SWAP2 SWAP1 POP JUMP JUMPDEST PUSH0 PUSH2 0x58D DUP3 PUSH2 0x572 JUMP JUMPDEST SWAP1 POP SWAP2 SWAP1 POP JUMP JUMPDEST PUSH2 0x5A5 PUSH2 0x5A0 DUP3 PUSH2 0x37D JUMP JUMPDEST PUSH2 0x583 JUMP JUMPDEST DUP3 MSTORE POP POP JUMP JUMPDEST PUSH0 PUSH2 0x5B6 DUP3 DUP5 PUSH2 0x594 JUMP JUMPDEST PUSH1 0x14 DUP3 ADD SWAP2 POP DUP2 SWAP1 POP SWAP3 SWAP2 POP POP JUMP JUMPDEST PUSH0 DUP2 MLOAD SWAP1 POP SWAP2 SWAP1 POP JUMP JUMPDEST PUSH0 DUP2 SWAP1 POP SWAP3 SWAP2 POP POP JUMP JUMPDEST PUSH0 JUMPDEST DUP4 DUP2 LT ISZERO PUSH2 0x5F6 JUMPI DUP1 DUP3 ADD MLOAD DUP2 DUP5 ADD MSTORE PUSH1 0x20 DUP2 ADD SWAP1 POP PUSH2 0x5DB JUMP JUMPDEST PUSH0 DUP5 DUP5 ADD MSTORE POP POP POP POP JUMP JUMPDEST PUSH0 PUSH2 0x60B DUP3 PUSH2 0x5C5 JUMP JUMPDEST PUSH2 0x615 DUP2 DUP6 PUSH2 0x5CF JUMP JUMPDEST SWAP4 POP PUSH2 0x625 DUP2 DUP6 PUSH1 0x20 DUP7 ADD PUSH2 0x5D9 JUMP JUMPDEST DUP1 DUP5 ADD SWAP2 POP POP SWAP3 SWAP2 POP POP JUMP JUMPDEST PUSH0 PUSH2 0x63C DUP3 DUP5 PUSH2 0x601 JUMP JUMPDEST SWAP2 POP DUP2 SWAP1 POP SWAP3 SWAP2 POP POP JUMP INVALID LOG2 PUSH5 0x6970667358 0x22 SLT KECCAK256 0xC7 PUSH19 0x9DAA55BA1F5C2747D43B2F8D73320CC9C1F027 0xE 0x2B DUP10 0x28 0xDD JUMPI DUP5 XOR PUSH5 0x5F2864736F PUSH13 0x63430008180033000000000000 "
				},
				"gasEstimates": {
					"creation": {
						"codeDepositCost": "332200",
						"executionCost": "73615",
						"totalCost": "405815"
					},
					"external": {
						"changeY()": "infinite",
						"getG()": "2410",
						"getY()": "infinite",
						"hashAddress(address)": "infinite",
						"hashString(string)": "infinite"
					}
				},
				"methodIdentifiers": {
					"changeY()": "c50e1b70",
					"getG()": "04c09ce9",
					"getY()": "0b7f1665",
					"hashAddress(address)": "3aa5fe59",
					"hashString(string)": "766954b4"
				}
			},
			"storageLayout": {
				"storage": [
					{
						"astId": 4,
						"contract": "contracts/tests.sol:Test",
						"label": "y",
						"offset": 0,
						"slot": "0",
						"type": "t_array(t_bytes32)dyn_storage"
					},
					{
						"astId": 6,
						"contract": "contracts/tests.sol:Test",
						"label": "g",
						"offset": 0,
						"slot": "1",
						"type": "t_bytes32"
					}
				],
				"types": {
					"t_array(t_bytes32)dyn_storage": {
						"base": "t_bytes32",
						"encoding": "dynamic_array",
						"label": "bytes32[]",
						"numberOfBytes": "32"
					},
					"t_bytes32": {
						"encoding": "inplace",
						"label": "bytes32",
						"numberOfBytes": "32"
					}
				}
			},
			"userdoc": {
				"kind": "user",
				"methods": {},
				"version": 1
			}
		}
	}
}