{
	"data": {
		"bytecode": {
			"linkReferences": {},
			"object": "608060405234801562000010575f80fd5b506040516200243338038062002433833981810160405281019062000036919062000123565b8060025f6101000a81548173ffffffffffffffffffffffffffffffffffffffff021916908373ffffffffffffffffffffffffffffffffffffffff1602179055508160015f6101000a81548173ffffffffffffffffffffffffffffffffffffffff021916908373ffffffffffffffffffffffffffffffffffffffff160217905550505062000168565b5f80fd5b5f73ffffffffffffffffffffffffffffffffffffffff82169050919050565b5f620000ed82620000c2565b9050919050565b620000ff81620000e1565b81146200010a575f80fd5b50565b5f815190506200011d81620000f4565b92915050565b5f80604083850312156200013c576200013b620000be565b5b5f6200014b858286016200010d565b92505060206200015e858286016200010d565b9150509250929050565b6122bd80620001765f395ff3fe608060405260043610610101575f3560e01c80637d2e90c211610094578063bc197c8111610063578063bc197c81146102e8578063d087d28814610324578063dbecc6161461034e578063e7f43c6814610376578063f9f82a0d146103a057610108565b80637d2e90c2146102465780637f1214521461026e57806389ab6fb4146102965780639db5dbe4146102c057610108565b806312065fe0116100d057806312065fe01461018e578063150b7a02146101b85780631aca6376146101f457806338cc48311461021c57610108565b80630447ccec1461010a57806304cfc5c91461012057806306c460cc1461012a5780630c97e5641461015257610108565b3661010857005b005b348015610115575f80fd5b5061011e6103b6565b005b610128610594565b005b348015610135575f80fd5b50610150600480360381019061014b919061157c565b61072c565b005b34801561015d575f80fd5b506101786004803603810190610173919061169c565b6108c5565b604051610185919061176c565b60405180910390f35b348015610199575f80fd5b506101a26108f3565b6040516101af9190611794565b60405180910390f35b3480156101c3575f80fd5b506101de60048036038101906101d991906117ad565b6108fa565b6040516101eb919061176c565b60405180910390f35b3480156101ff575f80fd5b5061021a60048036038101906102159190611831565b610927565b005b348015610227575f80fd5b50610230610afe565b60405161023d9190611890565b60405180910390f35b348015610251575f80fd5b5061026c600480360381019061026791906118a9565b610b05565b005b348015610279575f80fd5b50610294600480360381019061028f919061193c565b610c19565b005b3480156102a1575f80fd5b506102aa610dec565b6040516102b79190611aec565b60405180910390f35b3480156102cb575f80fd5b506102e660048036038101906102e19190611831565b610e93565b005b3480156102f3575f80fd5b5061030e60048036038101906103099190611b61565b611068565b60405161031b919061176c565b60405180910390f35b34801561032f575f80fd5b50610338611098565b6040516103459190611794565b60405180910390f35b348015610359575f80fd5b50610374600480360381019061036f919061169c565b6110a0565b005b348015610381575f80fd5b5061038a611280565b6040516103979190611890565b60405180910390f35b3480156103ab575f80fd5b506103b46112a8565b005b5f336040516020016103c89190611c7d565b6040516020818303038152906040528051906020012090505f805f5b60035f01805490508110156104315760035f01818154811061040957610408611c97565b5b905f5260205f20015484036104245760019250809150610431565b80806001019150506103e4565b5081610472576040517f08c379a000000000000000000000000000000000000000000000000000000000815260040161046990611d1e565b60405180910390fd5b42600a600360020154836104869190611d69565b6104909190611dd7565b60038001546003600201546104a59190611e07565b6104af9190611e07565b106104ef576040517f08c379a00000000000000000000000000000000000000000000000000000000081526004016104e690611e84565b60405180910390fd5b5f60608060035f01908051906020019061050a9291906113cc565b50816003600101819055505f60036004015f6101000a81548160ff0219169083151502179055505f6003600201819055504260038001819055503360015f6101000a81548173ffffffffffffffffffffffffffffffffffffffff021916908373ffffffffffffffffffffffffffffffffffffffff16021790555061058d33611342565b5050505050565b60015f9054906101000a900473ffffffffffffffffffffffffffffffffffffffff1673ffffffffffffffffffffffffffffffffffffffff163373ffffffffffffffffffffffffffffffffffffffff1614610623576040517f08c379a000000000000000000000000000000000000000000000000000000000815260040161061a90611f12565b60405180910390fd5b6004803560208201915073ffffffffffffffffffffffffffffffffffffffff811660ff8260a01c168260a81c60ff815f1c1660ff8260081c1660ff8360101c160160ff8360181c1660ff8460201c160101018260200281870101358661069b565b5f81610692575a9050610696565b8190505b919050565b5f5b85811015610702576020810284830101355f5263ffffffff83602083021c1660ff86600884021c16808b604051375f80826040515f518d6106dd88610684565bf13d5f6040513e806106ef573d604051fd5b818c019b5050505060018101905061069d565b5050505050505050505f8081548092919061071c90611f30565b9190505550426003800181905550565b60015f9054906101000a900473ffffffffffffffffffffffffffffffffffffffff1673ffffffffffffffffffffffffffffffffffffffff163373ffffffffffffffffffffffffffffffffffffffff16146107bb576040517f08c379a00000000000000000000000000000000000000000000000000000000081526004016107b290611f12565b60405180910390fd5b60036004015f9054906101000a900460ff16158015610826575060015f9054906101000a900473ffffffffffffffffffffffffffffffffffffffff1673ffffffffffffffffffffffffffffffffffffffff163373ffffffffffffffffffffffffffffffffffffffff16145b610865576040517f08c379a000000000000000000000000000000000000000000000000000000000815260040161085c90611fc1565b60405180910390fd5b838360035f019190610878929190611417565b5081600360010181905550600160036004015f6101000a81548160ff02191690831515021790555080603c6108ad9190611d69565b60036002018190555042600380018190555050505050565b5f7ff23a6e612e1ff4830e658fe43f4e3cb4a5f8170bd5d9e69fb5d7a7fa9e4fdf9790509695505050505050565b5f47905090565b5f7f150b7a023d4804d13e8c85fb27262cb750cf6ba9f9dd3bb30d90f482ceeb4b1f905095945050505050565b60015f9054906101000a900473ffffffffffffffffffffffffffffffffffffffff1673ffffffffffffffffffffffffffffffffffffffff163373ffffffffffffffffffffffffffffffffffffffff16146109b6576040517f08c379a00000000000000000000000000000000000000000000000000000000081526004016109ad90611f12565b60405180910390fd5b5f8373ffffffffffffffffffffffffffffffffffffffff163084846040516024016109e393929190611fdf565b6040516020818303038152906040527f42842e0e000000000000000000000000000000000000000000000000000000007bffffffffffffffffffffffffffffffffffffffffffffffffffffffff19166020820180517bffffffffffffffffffffffffffffffffffffffffffffffffffffffff8381831617835250505050604051610a6d9190612080565b5f604051808303815f865af19150503d805f8114610aa6576040519150601f19603f3d011682016040523d82523d5f602084013e610aab565b606091505b5050905080610aef576040517f08c379a0000000000000000000000000000000000000000000000000000000008152600401610ae6906120e0565b60405180910390fd5b50426003800181905550505050565b5f30905090565b60015f9054906101000a900473ffffffffffffffffffffffffffffffffffffffff1673ffffffffffffffffffffffffffffffffffffffff163373ffffffffffffffffffffffffffffffffffffffff1614610b94576040517f08c379a0000000000000000000000000000000000000000000000000000000008152600401610b8b90611f12565b60405180910390fd5b5f8273ffffffffffffffffffffffffffffffffffffffff166108fc8390811502906040515f60405180830381858888f19350505050905080610c0b576040517f08c379a0000000000000000000000000000000000000000000000000000000008152600401610c02906120e0565b60405180910390fd5b504260038001819055505050565b5f33604051602001610c2b9190611c7d565b6040516020818303038152906040528051906020012090505f805b60035f0180549050811015610c905760035f018181548110610c6b57610c6a611c97565b5b905f5260205f2001548303610c835760019150610c90565b8080600101915050610c46565b5080610cd1576040517f08c379a0000000000000000000000000000000000000000000000000000000008152600401610cc890611d1e565b60405180910390fd5b5f8585604051602001610ce592919061213a565b6040516020818303038152906040528051906020012090506003600101548114610d44576040517f08c379a0000000000000000000000000000000000000000000000000000000008152600401610d3b9061219c565b60405180910390fd5b5f60608560015f6101000a81548173ffffffffffffffffffffffffffffffffffffffff021916908373ffffffffffffffffffffffffffffffffffffffff1602179055508060035f019080519060200190610d9f9291906113cc565b50816003600101819055505f60036004015f6101000a81548160ff0219169083151502179055505f600360020181905550426003800181905550610de286611342565b5050505050505050565b610df4611462565b60036040518060a00160405290815f8201805480602002602001604051908101604052809291908181526020018280548015610e4d57602002820191905f5260205f20905b815481526020019060010190808311610e39575b50505050508152602001600182015481526020016002820154815260200160038201548152602001600482015f9054906101000a900460ff161515151581525050905090565b60015f9054906101000a900473ffffffffffffffffffffffffffffffffffffffff1673ffffffffffffffffffffffffffffffffffffffff163373ffffffffffffffffffffffffffffffffffffffff1614610f22576040517f08c379a0000000000000000000000000000000000000000000000000000000008152600401610f1990611f12565b60405180910390fd5b5f8373ffffffffffffffffffffffffffffffffffffffff168383604051602401610f4d9291906121ba565b6040516020818303038152906040527fa9059cbb000000000000000000000000000000000000000000000000000000007bffffffffffffffffffffffffffffffffffffffffffffffffffffffff19166020820180517bffffffffffffffffffffffffffffffffffffffffffffffffffffffff8381831617835250505050604051610fd79190612080565b5f604051808303815f865af19150503d805f8114611010576040519150601f19603f3d011682016040523d82523d5f602084013e611015565b606091505b5050905080611059576040517f08c379a0000000000000000000000000000000000000000000000000000000008152600401611050906120e0565b60405180910390fd5b50426003800181905550505050565b5f7fbc197c819b3e337a6f9652dd10becd7eef83032af3b9d958d3d42f6694146621905098975050505050505050565b5f8054905090565b60015f9054906101000a900473ffffffffffffffffffffffffffffffffffffffff1673ffffffffffffffffffffffffffffffffffffffff163373ffffffffffffffffffffffffffffffffffffffff161461112f576040517f08c379a000000000000000000000000000000000000000000000000000000000815260040161112690611f12565b60405180910390fd5b5f8673ffffffffffffffffffffffffffffffffffffffff163087878787876040516024016111629695949392919061222d565b6040516020818303038152906040527ff242432a000000000000000000000000000000000000000000000000000000007bffffffffffffffffffffffffffffffffffffffffffffffffffffffff19166020820180517bffffffffffffffffffffffffffffffffffffffffffffffffffffffff83818316178352505050506040516111ec9190612080565b5f604051808303815f865af19150503d805f8114611225576040519150601f19603f3d011682016040523d82523d5f602084013e61122a565b606091505b505090508061126e576040517f08c379a0000000000000000000000000000000000000000000000000000000008152600401611265906120e0565b60405180910390fd5b50426003800181905550505050505050565b5f60015f9054906101000a900473ffffffffffffffffffffffffffffffffffffffff16905090565b60015f9054906101000a900473ffffffffffffffffffffffffffffffffffffffff1673ffffffffffffffffffffffffffffffffffffffff163373ffffffffffffffffffffffffffffffffffffffff1614611337576040517f08c379a000000000000000000000000000000000000000000000000000000000815260040161132e90611f12565b60405180910390fd5b426003800181905550565b60025f9054906101000a900473ffffffffffffffffffffffffffffffffffffffff1673ffffffffffffffffffffffffffffffffffffffff1663848b86e3826040518263ffffffff1660e01b815260040161139c9190611890565b5f604051808303815f87803b1580156113b3575f80fd5b505af11580156113c5573d5f803e3d5ffd5b5050505050565b828054828255905f5260205f20908101928215611406579160200282015b828111156114055782518255916020019190600101906113ea565b5b5090506114139190611492565b5090565b828054828255905f5260205f20908101928215611451579160200282015b82811115611450578235825591602001919060010190611435565b5b50905061145e9190611492565b5090565b6040518060a00160405280606081526020015f80191681526020015f81526020015f81526020015f151581525090565b5b808211156114a9575f815f905550600101611493565b5090565b5f80fd5b5f80fd5b5f80fd5b5f80fd5b5f80fd5b5f8083601f8401126114d6576114d56114b5565b5b8235905067ffffffffffffffff8111156114f3576114f26114b9565b5b60208301915083602082028301111561150f5761150e6114bd565b5b9250929050565b5f819050919050565b61152881611516565b8114611532575f80fd5b50565b5f813590506115438161151f565b92915050565b5f819050919050565b61155b81611549565b8114611565575f80fd5b50565b5f8135905061157681611552565b92915050565b5f805f8060608587031215611594576115936114ad565b5b5f85013567ffffffffffffffff8111156115b1576115b06114b1565b5b6115bd878288016114c1565b945094505060206115d087828801611535565b92505060406115e187828801611568565b91505092959194509250565b5f73ffffffffffffffffffffffffffffffffffffffff82169050919050565b5f611616826115ed565b9050919050565b6116268161160c565b8114611630575f80fd5b50565b5f813590506116418161161d565b92915050565b5f8083601f84011261165c5761165b6114b5565b5b8235905067ffffffffffffffff811115611679576116786114b9565b5b602083019150836001820283011115611695576116946114bd565b5b9250929050565b5f805f805f8060a087890312156116b6576116b56114ad565b5b5f6116c389828a01611633565b96505060206116d489828a01611633565b95505060406116e589828a01611568565b94505060606116f689828a01611568565b935050608087013567ffffffffffffffff811115611717576117166114b1565b5b61172389828a01611647565b92509250509295509295509295565b5f7fffffffff0000000000000000000000000000000000000000000000000000000082169050919050565b61176681611732565b82525050565b5f60208201905061177f5f83018461175d565b92915050565b61178e81611549565b82525050565b5f6020820190506117a75f830184611785565b92915050565b5f805f805f608086880312156117c6576117c56114ad565b5b5f6117d388828901611633565b95505060206117e488828901611633565b94505060406117f588828901611568565b935050606086013567ffffffffffffffff811115611816576118156114b1565b5b61182288828901611647565b92509250509295509295909350565b5f805f60608486031215611848576118476114ad565b5b5f61185586828701611633565b935050602061186686828701611633565b925050604061187786828701611568565b9150509250925092565b61188a8161160c565b82525050565b5f6020820190506118a35f830184611881565b92915050565b5f80604083850312156118bf576118be6114ad565b5b5f6118cc85828601611633565b92505060206118dd85828601611568565b9150509250929050565b5f8083601f8401126118fc576118fb6114b5565b5b8235905067ffffffffffffffff811115611919576119186114b9565b5b602083019150836001820283011115611935576119346114bd565b5b9250929050565b5f805f60408486031215611953576119526114ad565b5b5f84013567ffffffffffffffff8111156119705761196f6114b1565b5b61197c868287016118e7565b9350935050602061198f86828701611633565b9150509250925092565b5f81519050919050565b5f82825260208201905092915050565b5f819050602082019050919050565b6119cb81611516565b82525050565b5f6119dc83836119c2565b60208301905092915050565b5f602082019050919050565b5f6119fe82611999565b611a0881856119a3565b9350611a13836119b3565b805f5b83811015611a43578151611a2a88826119d1565b9750611a35836119e8565b925050600181019050611a16565b5085935050505092915050565b611a5981611549565b82525050565b5f8115159050919050565b611a7381611a5f565b82525050565b5f60a083015f8301518482035f860152611a9382826119f4565b9150506020830151611aa860208601826119c2565b506040830151611abb6040860182611a50565b506060830151611ace6060860182611a50565b506080830151611ae16080860182611a6a565b508091505092915050565b5f6020820190508181035f830152611b048184611a79565b905092915050565b5f8083601f840112611b2157611b206114b5565b5b8235905067ffffffffffffffff811115611b3e57611b3d6114b9565b5b602083019150836020820283011115611b5a57611b596114bd565b5b9250929050565b5f805f805f805f8060a0898b031215611b7d57611b7c6114ad565b5b5f611b8a8b828c01611633565b9850506020611b9b8b828c01611633565b975050604089013567ffffffffffffffff811115611bbc57611bbb6114b1565b5b611bc88b828c01611b0c565b9650965050606089013567ffffffffffffffff811115611beb57611bea6114b1565b5b611bf78b828c01611b0c565b9450945050608089013567ffffffffffffffff811115611c1a57611c196114b1565b5b611c268b828c01611647565b92509250509295985092959890939650565b5f8160601b9050919050565b5f611c4e82611c38565b9050919050565b5f611c5f82611c44565b9050919050565b611c77611c728261160c565b611c55565b82525050565b5f611c888284611c66565b60148201915081905092915050565b7f4e487b71000000000000000000000000000000000000000000000000000000005f52603260045260245ffd5b5f82825260208201905092915050565b7f596f752063616e6e6f74207265636f7665722074686973206163636f756e74005f82015250565b5f611d08601f83611cc4565b9150611d1382611cd4565b602082019050919050565b5f6020820190508181035f830152611d3581611cfc565b9050919050565b7f4e487b71000000000000000000000000000000000000000000000000000000005f52601160045260245ffd5b5f611d7382611549565b9150611d7e83611549565b9250828202611d8c81611549565b91508282048414831517611da357611da2611d3c565b5b5092915050565b7f4e487b71000000000000000000000000000000000000000000000000000000005f52601260045260245ffd5b5f611de182611549565b9150611dec83611549565b925082611dfc57611dfb611daa565b5b828204905092915050565b5f611e1182611549565b9150611e1c83611549565b9250828201905080821115611e3457611e33611d3c565b5b92915050565b7f6163636573732064656e696564000000000000000000000000000000000000005f82015250565b5f611e6e600d83611cc4565b9150611e7982611e3a565b602082019050919050565b5f6020820190508181035f830152611e9b81611e62565b9050919050565b7f4f6e6c79206f70657261746f722063616e2063616c6c20746869732066756e635f8201527f74696f6e00000000000000000000000000000000000000000000000000000000602082015250565b5f611efc602483611cc4565b9150611f0782611ea2565b604082019050919050565b5f6020820190508181035f830152611f2981611ef0565b9050919050565b5f611f3a82611549565b91507fffffffffffffffffffffffffffffffffffffffffffffffffffffffffffffffff8203611f6c57611f6b611d3c565b5b600182019050919050565b7f616c726561647920696e697469616c697a6564000000000000000000000000005f82015250565b5f611fab601383611cc4565b9150611fb682611f77565b602082019050919050565b5f6020820190508181035f830152611fd881611f9f565b9050919050565b5f606082019050611ff25f830186611881565b611fff6020830185611881565b61200c6040830184611785565b949350505050565b5f81519050919050565b5f81905092915050565b5f5b8381101561204557808201518184015260208101905061202a565b5f8484015250505050565b5f61205a82612014565b612064818561201e565b9350612074818560208601612028565b80840191505092915050565b5f61208b8284612050565b915081905092915050565b7f756e7375636365737366756c00000000000000000000000000000000000000005f82015250565b5f6120ca600c83611cc4565b91506120d582612096565b602082019050919050565b5f6020820190508181035f8301526120f7816120be565b9050919050565b5f81905092915050565b828183375f83830152505050565b5f61212183856120fe565b935061212e838584612108565b82840190509392505050565b5f612146828486612116565b91508190509392505050565b7f77726f6e672070617373636f64650000000000000000000000000000000000005f82015250565b5f612186600e83611cc4565b915061219182612152565b602082019050919050565b5f6020820190508181035f8301526121b38161217a565b9050919050565b5f6040820190506121cd5f830185611881565b6121da6020830184611785565b9392505050565b5f82825260208201905092915050565b5f601f19601f8301169050919050565b5f61220c83856121e1565b9350612219838584612108565b612222836121f1565b840190509392505050565b5f60a0820190506122405f830189611881565b61224d6020830188611881565b61225a6040830187611785565b6122676060830186611785565b818103608083015261227a818486612201565b905097965050505050505056fea26469706673582212201f41a2a4191512d0377c7bd24fb10c1326098707faccb49724b94f059675d36564736f6c63430008180033",
			"opcodes": "PUSH1 0x80 PUSH1 0x40 MSTORE CALLVALUE DUP1 ISZERO PUSH3 0x10 JUMPI PUSH0 DUP1 REVERT JUMPDEST POP PUSH1 0x40 MLOAD PUSH3 0x2433 CODESIZE SUB DUP1 PUSH3 0x2433 DUP4 CODECOPY DUP2 DUP2 ADD PUSH1 0x40 MSTORE DUP2 ADD SWAP1 PUSH3 0x36 SWAP2 SWAP1 PUSH3 0x123 JUMP JUMPDEST DUP1 PUSH1 0x2 PUSH0 PUSH2 0x100 EXP DUP2 SLOAD DUP2 PUSH20 0xFFFFFFFFFFFFFFFFFFFFFFFFFFFFFFFFFFFFFFFF MUL NOT AND SWAP1 DUP4 PUSH20 0xFFFFFFFFFFFFFFFFFFFFFFFFFFFFFFFFFFFFFFFF AND MUL OR SWAP1 SSTORE POP DUP2 PUSH1 0x1 PUSH0 PUSH2 0x100 EXP DUP2 SLOAD DUP2 PUSH20 0xFFFFFFFFFFFFFFFFFFFFFFFFFFFFFFFFFFFFFFFF MUL NOT AND SWAP1 DUP4 PUSH20 0xFFFFFFFFFFFFFFFFFFFFFFFFFFFFFFFFFFFFFFFF AND MUL OR SWAP1 SSTORE POP POP POP PUSH3 0x168 JUMP JUMPDEST PUSH0 DUP1 REVERT JUMPDEST PUSH0 PUSH20 0xFFFFFFFFFFFFFFFFFFFFFFFFFFFFFFFFFFFFFFFF DUP3 AND SWAP1 POP SWAP2 SWAP1 POP JUMP JUMPDEST PUSH0 PUSH3 0xED DUP3 PUSH3 0xC2 JUMP JUMPDEST SWAP1 POP SWAP2 SWAP1 POP JUMP JUMPDEST PUSH3 0xFF DUP2 PUSH3 0xE1 JUMP JUMPDEST DUP2 EQ PUSH3 0x10A JUMPI PUSH0 DUP1 REVERT JUMPDEST POP JUMP JUMPDEST PUSH0 DUP2 MLOAD SWAP1 POP PUSH3 0x11D DUP2 PUSH3 0xF4 JUMP JUMPDEST SWAP3 SWAP2 POP POP JUMP JUMPDEST PUSH0 DUP1 PUSH1 0x40 DUP4 DUP6 SUB SLT ISZERO PUSH3 0x13C JUMPI PUSH3 0x13B PUSH3 0xBE JUMP JUMPDEST JUMPDEST PUSH0 PUSH3 0x14B DUP6 DUP3 DUP7 ADD PUSH3 0x10D JUMP JUMPDEST SWAP3 POP POP PUSH1 0x20 PUSH3 0x15E DUP6 DUP3 DUP7 ADD PUSH3 0x10D JUMP JUMPDEST SWAP2 POP POP SWAP3 POP SWAP3 SWAP1 POP JUMP JUMPDEST PUSH2 0x22BD DUP1 PUSH3 0x176 PUSH0 CODECOPY PUSH0 RETURN INVALID PUSH1 0x80 PUSH1 0x40 MSTORE PUSH1 0x4 CALLDATASIZE LT PUSH2 0x101 JUMPI PUSH0 CALLDATALOAD PUSH1 0xE0 SHR DUP1 PUSH4 0x7D2E90C2 GT PUSH2 0x94 JUMPI DUP1 PUSH4 0xBC197C81 GT PUSH2 0x63 JUMPI DUP1 PUSH4 0xBC197C81 EQ PUSH2 0x2E8 JUMPI DUP1 PUSH4 0xD087D288 EQ PUSH2 0x324 JUMPI DUP1 PUSH4 0xDBECC616 EQ PUSH2 0x34E JUMPI DUP1 PUSH4 0xE7F43C68 EQ PUSH2 0x376 JUMPI DUP1 PUSH4 0xF9F82A0D EQ PUSH2 0x3A0 JUMPI PUSH2 0x108 JUMP JUMPDEST DUP1 PUSH4 0x7D2E90C2 EQ PUSH2 0x246 JUMPI DUP1 PUSH4 0x7F121452 EQ PUSH2 0x26E JUMPI DUP1 PUSH4 0x89AB6FB4 EQ PUSH2 0x296 JUMPI DUP1 PUSH4 0x9DB5DBE4 EQ PUSH2 0x2C0 JUMPI PUSH2 0x108 JUMP JUMPDEST DUP1 PUSH4 0x12065FE0 GT PUSH2 0xD0 JUMPI DUP1 PUSH4 0x12065FE0 EQ PUSH2 0x18E JUMPI DUP1 PUSH4 0x150B7A02 EQ PUSH2 0x1B8 JUMPI DUP1 PUSH4 0x1ACA6376 EQ PUSH2 0x1F4 JUMPI DUP1 PUSH4 0x38CC4831 EQ PUSH2 0x21C JUMPI PUSH2 0x108 JUMP JUMPDEST DUP1 PUSH4 0x447CCEC EQ PUSH2 0x10A JUMPI DUP1 PUSH4 0x4CFC5C9 EQ PUSH2 0x120 JUMPI DUP1 PUSH4 0x6C460CC EQ PUSH2 0x12A JUMPI DUP1 PUSH4 0xC97E564 EQ PUSH2 0x152 JUMPI PUSH2 0x108 JUMP JUMPDEST CALLDATASIZE PUSH2 0x108 JUMPI STOP JUMPDEST STOP JUMPDEST CALLVALUE DUP1 ISZERO PUSH2 0x115 JUMPI PUSH0 DUP1 REVERT JUMPDEST POP PUSH2 0x11E PUSH2 0x3B6 JUMP JUMPDEST STOP JUMPDEST PUSH2 0x128 PUSH2 0x594 JUMP JUMPDEST STOP JUMPDEST CALLVALUE DUP1 ISZERO PUSH2 0x135 JUMPI PUSH0 DUP1 REVERT JUMPDEST POP PUSH2 0x150 PUSH1 0x4 DUP1 CALLDATASIZE SUB DUP2 ADD SWAP1 PUSH2 0x14B SWAP2 SWAP1 PUSH2 0x157C JUMP JUMPDEST PUSH2 0x72C JUMP JUMPDEST STOP JUMPDEST CALLVALUE DUP1 ISZERO PUSH2 0x15D JUMPI PUSH0 DUP1 REVERT JUMPDEST POP PUSH2 0x178 PUSH1 0x4 DUP1 CALLDATASIZE SUB DUP2 ADD SWAP1 PUSH2 0x173 SWAP2 SWAP1 PUSH2 0x169C JUMP JUMPDEST PUSH2 0x8C5 JUMP JUMPDEST PUSH1 0x40 MLOAD PUSH2 0x185 SWAP2 SWAP1 PUSH2 0x176C JUMP JUMPDEST PUSH1 0x40 MLOAD DUP1 SWAP2 SUB SWAP1 RETURN JUMPDEST CALLVALUE DUP1 ISZERO PUSH2 0x199 JUMPI PUSH0 DUP1 REVERT JUMPDEST POP PUSH2 0x1A2 PUSH2 0x8F3 JUMP JUMPDEST PUSH1 0x40 MLOAD PUSH2 0x1AF SWAP2 SWAP1 PUSH2 0x1794 JUMP JUMPDEST PUSH1 0x40 MLOAD DUP1 SWAP2 SUB SWAP1 RETURN JUMPDEST CALLVALUE DUP1 ISZERO PUSH2 0x1C3 JUMPI PUSH0 DUP1 REVERT JUMPDEST POP PUSH2 0x1DE PUSH1 0x4 DUP1 CALLDATASIZE SUB DUP2 ADD SWAP1 PUSH2 0x1D9 SWAP2 SWAP1 PUSH2 0x17AD JUMP JUMPDEST PUSH2 0x8FA JUMP JUMPDEST PUSH1 0x40 MLOAD PUSH2 0x1EB SWAP2 SWAP1 PUSH2 0x176C JUMP JUMPDEST PUSH1 0x40 MLOAD DUP1 SWAP2 SUB SWAP1 RETURN JUMPDEST CALLVALUE DUP1 ISZERO PUSH2 0x1FF JUMPI PUSH0 DUP1 REVERT JUMPDEST POP PUSH2 0x21A PUSH1 0x4 DUP1 CALLDATASIZE SUB DUP2 ADD SWAP1 PUSH2 0x215 SWAP2 SWAP1 PUSH2 0x1831 JUMP JUMPDEST PUSH2 0x927 JUMP JUMPDEST STOP JUMPDEST CALLVALUE DUP1 ISZERO PUSH2 0x227 JUMPI PUSH0 DUP1 REVERT JUMPDEST POP PUSH2 0x230 PUSH2 0xAFE JUMP JUMPDEST PUSH1 0x40 MLOAD PUSH2 0x23D SWAP2 SWAP1 PUSH2 0x1890 JUMP JUMPDEST PUSH1 0x40 MLOAD DUP1 SWAP2 SUB SWAP1 RETURN JUMPDEST CALLVALUE DUP1 ISZERO PUSH2 0x251 JUMPI PUSH0 DUP1 REVERT JUMPDEST POP PUSH2 0x26C PUSH1 0x4 DUP1 CALLDATASIZE SUB DUP2 ADD SWAP1 PUSH2 0x267 SWAP2 SWAP1 PUSH2 0x18A9 JUMP JUMPDEST PUSH2 0xB05 JUMP JUMPDEST STOP JUMPDEST CALLVALUE DUP1 ISZERO PUSH2 0x279 JUMPI PUSH0 DUP1 REVERT JUMPDEST POP PUSH2 0x294 PUSH1 0x4 DUP1 CALLDATASIZE SUB DUP2 ADD SWAP1 PUSH2 0x28F SWAP2 SWAP1 PUSH2 0x193C JUMP JUMPDEST PUSH2 0xC19 JUMP JUMPDEST STOP JUMPDEST CALLVALUE DUP1 ISZERO PUSH2 0x2A1 JUMPI PUSH0 DUP1 REVERT JUMPDEST POP PUSH2 0x2AA PUSH2 0xDEC JUMP JUMPDEST PUSH1 0x40 MLOAD PUSH2 0x2B7 SWAP2 SWAP1 PUSH2 0x1AEC JUMP JUMPDEST PUSH1 0x40 MLOAD DUP1 SWAP2 SUB SWAP1 RETURN JUMPDEST CALLVALUE DUP1 ISZERO PUSH2 0x2CB JUMPI PUSH0 DUP1 REVERT JUMPDEST POP PUSH2 0x2E6 PUSH1 0x4 DUP1 CALLDATASIZE SUB DUP2 ADD SWAP1 PUSH2 0x2E1 SWAP2 SWAP1 PUSH2 0x1831 JUMP JUMPDEST PUSH2 0xE93 JUMP JUMPDEST STOP JUMPDEST CALLVALUE DUP1 ISZERO PUSH2 0x2F3 JUMPI PUSH0 DUP1 REVERT JUMPDEST POP PUSH2 0x30E PUSH1 0x4 DUP1 CALLDATASIZE SUB DUP2 ADD SWAP1 PUSH2 0x309 SWAP2 SWAP1 PUSH2 0x1B61 JUMP JUMPDEST PUSH2 0x1068 JUMP JUMPDEST PUSH1 0x40 MLOAD PUSH2 0x31B SWAP2 SWAP1 PUSH2 0x176C JUMP JUMPDEST PUSH1 0x40 MLOAD DUP1 SWAP2 SUB SWAP1 RETURN JUMPDEST CALLVALUE DUP1 ISZERO PUSH2 0x32F JUMPI PUSH0 DUP1 REVERT JUMPDEST POP PUSH2 0x338 PUSH2 0x1098 JUMP JUMPDEST PUSH1 0x40 MLOAD PUSH2 0x345 SWAP2 SWAP1 PUSH2 0x1794 JUMP JUMPDEST PUSH1 0x40 MLOAD DUP1 SWAP2 SUB SWAP1 RETURN JUMPDEST CALLVALUE DUP1 ISZERO PUSH2 0x359 JUMPI PUSH0 DUP1 REVERT JUMPDEST POP PUSH2 0x374 PUSH1 0x4 DUP1 CALLDATASIZE SUB DUP2 ADD SWAP1 PUSH2 0x36F SWAP2 SWAP1 PUSH2 0x169C JUMP JUMPDEST PUSH2 0x10A0 JUMP JUMPDEST STOP JUMPDEST CALLVALUE DUP1 ISZERO PUSH2 0x381 JUMPI PUSH0 DUP1 REVERT JUMPDEST POP PUSH2 0x38A PUSH2 0x1280 JUMP JUMPDEST PUSH1 0x40 MLOAD PUSH2 0x397 SWAP2 SWAP1 PUSH2 0x1890 JUMP JUMPDEST PUSH1 0x40 MLOAD DUP1 SWAP2 SUB SWAP1 RETURN JUMPDEST CALLVALUE DUP1 ISZERO PUSH2 0x3AB JUMPI PUSH0 DUP1 REVERT JUMPDEST POP PUSH2 0x3B4 PUSH2 0x12A8 JUMP JUMPDEST STOP JUMPDEST PUSH0 CALLER PUSH1 0x40 MLOAD PUSH1 0x20 ADD PUSH2 0x3C8 SWAP2 SWAP1 PUSH2 0x1C7D JUMP JUMPDEST PUSH1 0x40 MLOAD PUSH1 0x20 DUP2 DUP4 SUB SUB DUP2 MSTORE SWAP1 PUSH1 0x40 MSTORE DUP1 MLOAD SWAP1 PUSH1 0x20 ADD KECCAK256 SWAP1 POP PUSH0 DUP1 PUSH0 JUMPDEST PUSH1 0x3 PUSH0 ADD DUP1 SLOAD SWAP1 POP DUP2 LT ISZERO PUSH2 0x431 JUMPI PUSH1 0x3 PUSH0 ADD DUP2 DUP2 SLOAD DUP2 LT PUSH2 0x409 JUMPI PUSH2 0x408 PUSH2 0x1C97 JUMP JUMPDEST JUMPDEST SWAP1 PUSH0 MSTORE PUSH1 0x20 PUSH0 KECCAK256 ADD SLOAD DUP5 SUB PUSH2 0x424 JUMPI PUSH1 0x1 SWAP3 POP DUP1 SWAP2 POP PUSH2 0x431 JUMP JUMPDEST DUP1 DUP1 PUSH1 0x1 ADD SWAP2 POP POP PUSH2 0x3E4 JUMP JUMPDEST POP DUP2 PUSH2 0x472 JUMPI PUSH1 0x40 MLOAD PUSH32 0x8C379A000000000000000000000000000000000000000000000000000000000 DUP2 MSTORE PUSH1 0x4 ADD PUSH2 0x469 SWAP1 PUSH2 0x1D1E JUMP JUMPDEST PUSH1 0x40 MLOAD DUP1 SWAP2 SUB SWAP1 REVERT JUMPDEST TIMESTAMP PUSH1 0xA PUSH1 0x3 PUSH1 0x2 ADD SLOAD DUP4 PUSH2 0x486 SWAP2 SWAP1 PUSH2 0x1D69 JUMP JUMPDEST PUSH2 0x490 SWAP2 SWAP1 PUSH2 0x1DD7 JUMP JUMPDEST PUSH1 0x3 DUP1 ADD SLOAD PUSH1 0x3 PUSH1 0x2 ADD SLOAD PUSH2 0x4A5 SWAP2 SWAP1 PUSH2 0x1E07 JUMP JUMPDEST PUSH2 0x4AF SWAP2 SWAP1 PUSH2 0x1E07 JUMP JUMPDEST LT PUSH2 0x4EF JUMPI PUSH1 0x40 MLOAD PUSH32 0x8C379A000000000000000000000000000000000000000000000000000000000 DUP2 MSTORE PUSH1 0x4 ADD PUSH2 0x4E6 SWAP1 PUSH2 0x1E84 JUMP JUMPDEST PUSH1 0x40 MLOAD DUP1 SWAP2 SUB SWAP1 REVERT JUMPDEST PUSH0 PUSH1 0x60 DUP1 PUSH1 0x3 PUSH0 ADD SWAP1 DUP1 MLOAD SWAP1 PUSH1 0x20 ADD SWAP1 PUSH2 0x50A SWAP3 SWAP2 SWAP1 PUSH2 0x13CC JUMP JUMPDEST POP DUP2 PUSH1 0x3 PUSH1 0x1 ADD DUP2 SWAP1 SSTORE POP PUSH0 PUSH1 0x3 PUSH1 0x4 ADD PUSH0 PUSH2 0x100 EXP DUP2 SLOAD DUP2 PUSH1 0xFF MUL NOT AND SWAP1 DUP4 ISZERO ISZERO MUL OR SWAP1 SSTORE POP PUSH0 PUSH1 0x3 PUSH1 0x2 ADD DUP2 SWAP1 SSTORE POP TIMESTAMP PUSH1 0x3 DUP1 ADD DUP2 SWAP1 SSTORE POP CALLER PUSH1 0x1 PUSH0 PUSH2 0x100 EXP DUP2 SLOAD DUP2 PUSH20 0xFFFFFFFFFFFFFFFFFFFFFFFFFFFFFFFFFFFFFFFF MUL NOT AND SWAP1 DUP4 PUSH20 0xFFFFFFFFFFFFFFFFFFFFFFFFFFFFFFFFFFFFFFFF AND MUL OR SWAP1 SSTORE POP PUSH2 0x58D CALLER PUSH2 0x1342 JUMP JUMPDEST POP POP POP POP POP JUMP JUMPDEST PUSH1 0x1 PUSH0 SWAP1 SLOAD SWAP1 PUSH2 0x100 EXP SWAP1 DIV PUSH20 0xFFFFFFFFFFFFFFFFFFFFFFFFFFFFFFFFFFFFFFFF AND PUSH20 0xFFFFFFFFFFFFFFFFFFFFFFFFFFFFFFFFFFFFFFFF AND CALLER PUSH20 0xFFFFFFFFFFFFFFFFFFFFFFFFFFFFFFFFFFFFFFFF AND EQ PUSH2 0x623 JUMPI PUSH1 0x40 MLOAD PUSH32 0x8C379A000000000000000000000000000000000000000000000000000000000 DUP2 MSTORE PUSH1 0x4 ADD PUSH2 0x61A SWAP1 PUSH2 0x1F12 JUMP JUMPDEST PUSH1 0x40 MLOAD DUP1 SWAP2 SUB SWAP1 REVERT JUMPDEST PUSH1 0x4 DUP1 CALLDATALOAD PUSH1 0x20 DUP3 ADD SWAP2 POP PUSH20 0xFFFFFFFFFFFFFFFFFFFFFFFFFFFFFFFFFFFFFFFF DUP2 AND PUSH1 0xFF DUP3 PUSH1 0xA0 SHR AND DUP3 PUSH1 0xA8 SHR PUSH1 0xFF DUP2 PUSH0 SHR AND PUSH1 0xFF DUP3 PUSH1 0x8 SHR AND PUSH1 0xFF DUP4 PUSH1 0x10 SHR AND ADD PUSH1 0xFF DUP4 PUSH1 0x18 SHR AND PUSH1 0xFF DUP5 PUSH1 0x20 SHR AND ADD ADD ADD DUP3 PUSH1 0x20 MUL DUP2 DUP8 ADD ADD CALLDATALOAD DUP7 PUSH2 0x69B JUMP JUMPDEST PUSH0 DUP2 PUSH2 0x692 JUMPI GAS SWAP1 POP PUSH2 0x696 JUMP JUMPDEST DUP2 SWAP1 POP JUMPDEST SWAP2 SWAP1 POP JUMP JUMPDEST PUSH0 JUMPDEST DUP6 DUP2 LT ISZERO PUSH2 0x702 JUMPI PUSH1 0x20 DUP2 MUL DUP5 DUP4 ADD ADD CALLDATALOAD PUSH0 MSTORE PUSH4 0xFFFFFFFF DUP4 PUSH1 0x20 DUP4 MUL SHR AND PUSH1 0xFF DUP7 PUSH1 0x8 DUP5 MUL SHR AND DUP1 DUP12 PUSH1 0x40 MLOAD CALLDATACOPY PUSH0 DUP1 DUP3 PUSH1 0x40 MLOAD PUSH0 MLOAD DUP14 PUSH2 0x6DD DUP9 PUSH2 0x684 JUMP JUMPDEST CALL RETURNDATASIZE PUSH0 PUSH1 0x40 MLOAD RETURNDATACOPY DUP1 PUSH2 0x6EF JUMPI RETURNDATASIZE PUSH1 0x40 MLOAD REVERT JUMPDEST DUP2 DUP13 ADD SWAP12 POP POP POP POP PUSH1 0x1 DUP2 ADD SWAP1 POP PUSH2 0x69D JUMP JUMPDEST POP POP POP POP POP POP POP POP POP PUSH0 DUP1 DUP2 SLOAD DUP1 SWAP3 SWAP2 SWAP1 PUSH2 0x71C SWAP1 PUSH2 0x1F30 JUMP JUMPDEST SWAP2 SWAP1 POP SSTORE POP TIMESTAMP PUSH1 0x3 DUP1 ADD DUP2 SWAP1 SSTORE POP JUMP JUMPDEST PUSH1 0x1 PUSH0 SWAP1 SLOAD SWAP1 PUSH2 0x100 EXP SWAP1 DIV PUSH20 0xFFFFFFFFFFFFFFFFFFFFFFFFFFFFFFFFFFFFFFFF AND PUSH20 0xFFFFFFFFFFFFFFFFFFFFFFFFFFFFFFFFFFFFFFFF AND CALLER PUSH20 0xFFFFFFFFFFFFFFFFFFFFFFFFFFFFFFFFFFFFFFFF AND EQ PUSH2 0x7BB JUMPI PUSH1 0x40 MLOAD PUSH32 0x8C379A000000000000000000000000000000000000000000000000000000000 DUP2 MSTORE PUSH1 0x4 ADD PUSH2 0x7B2 SWAP1 PUSH2 0x1F12 JUMP JUMPDEST PUSH1 0x40 MLOAD DUP1 SWAP2 SUB SWAP1 REVERT JUMPDEST PUSH1 0x3 PUSH1 0x4 ADD PUSH0 SWAP1 SLOAD SWAP1 PUSH2 0x100 EXP SWAP1 DIV PUSH1 0xFF AND ISZERO DUP1 ISZERO PUSH2 0x826 JUMPI POP PUSH1 0x1 PUSH0 SWAP1 SLOAD SWAP1 PUSH2 0x100 EXP SWAP1 DIV PUSH20 0xFFFFFFFFFFFFFFFFFFFFFFFFFFFFFFFFFFFFFFFF AND PUSH20 0xFFFFFFFFFFFFFFFFFFFFFFFFFFFFFFFFFFFFFFFF AND CALLER PUSH20 0xFFFFFFFFFFFFFFFFFFFFFFFFFFFFFFFFFFFFFFFF AND EQ JUMPDEST PUSH2 0x865 JUMPI PUSH1 0x40 MLOAD PUSH32 0x8C379A000000000000000000000000000000000000000000000000000000000 DUP2 MSTORE PUSH1 0x4 ADD PUSH2 0x85C SWAP1 PUSH2 0x1FC1 JUMP JUMPDEST PUSH1 0x40 MLOAD DUP1 SWAP2 SUB SWAP1 REVERT JUMPDEST DUP4 DUP4 PUSH1 0x3 PUSH0 ADD SWAP2 SWAP1 PUSH2 0x878 SWAP3 SWAP2 SWAP1 PUSH2 0x1417 JUMP JUMPDEST POP DUP2 PUSH1 0x3 PUSH1 0x1 ADD DUP2 SWAP1 SSTORE POP PUSH1 0x1 PUSH1 0x3 PUSH1 0x4 ADD PUSH0 PUSH2 0x100 EXP DUP2 SLOAD DUP2 PUSH1 0xFF MUL NOT AND SWAP1 DUP4 ISZERO ISZERO MUL OR SWAP1 SSTORE POP DUP1 PUSH1 0x3C PUSH2 0x8AD SWAP2 SWAP1 PUSH2 0x1D69 JUMP JUMPDEST PUSH1 0x3 PUSH1 0x2 ADD DUP2 SWAP1 SSTORE POP TIMESTAMP PUSH1 0x3 DUP1 ADD DUP2 SWAP1 SSTORE POP POP POP POP POP JUMP JUMPDEST PUSH0 PUSH32 0xF23A6E612E1FF4830E658FE43F4E3CB4A5F8170BD5D9E69FB5D7A7FA9E4FDF97 SWAP1 POP SWAP7 SWAP6 POP POP POP POP POP POP JUMP JUMPDEST PUSH0 SELFBALANCE SWAP1 POP SWAP1 JUMP JUMPDEST PUSH0 PUSH32 0x150B7A023D4804D13E8C85FB27262CB750CF6BA9F9DD3BB30D90F482CEEB4B1F SWAP1 POP SWAP6 SWAP5 POP POP POP POP POP JUMP JUMPDEST PUSH1 0x1 PUSH0 SWAP1 SLOAD SWAP1 PUSH2 0x100 EXP SWAP1 DIV PUSH20 0xFFFFFFFFFFFFFFFFFFFFFFFFFFFFFFFFFFFFFFFF AND PUSH20 0xFFFFFFFFFFFFFFFFFFFFFFFFFFFFFFFFFFFFFFFF AND CALLER PUSH20 0xFFFFFFFFFFFFFFFFFFFFFFFFFFFFFFFFFFFFFFFF AND EQ PUSH2 0x9B6 JUMPI PUSH1 0x40 MLOAD PUSH32 0x8C379A000000000000000000000000000000000000000000000000000000000 DUP2 MSTORE PUSH1 0x4 ADD PUSH2 0x9AD SWAP1 PUSH2 0x1F12 JUMP JUMPDEST PUSH1 0x40 MLOAD DUP1 SWAP2 SUB SWAP1 REVERT JUMPDEST PUSH0 DUP4 PUSH20 0xFFFFFFFFFFFFFFFFFFFFFFFFFFFFFFFFFFFFFFFF AND ADDRESS DUP5 DUP5 PUSH1 0x40 MLOAD PUSH1 0x24 ADD PUSH2 0x9E3 SWAP4 SWAP3 SWAP2 SWAP1 PUSH2 0x1FDF JUMP JUMPDEST PUSH1 0x40 MLOAD PUSH1 0x20 DUP2 DUP4 SUB SUB DUP2 MSTORE SWAP1 PUSH1 0x40 MSTORE PUSH32 0x42842E0E00000000000000000000000000000000000000000000000000000000 PUSH28 0xFFFFFFFFFFFFFFFFFFFFFFFFFFFFFFFFFFFFFFFFFFFFFFFFFFFFFFFF NOT AND PUSH1 0x20 DUP3 ADD DUP1 MLOAD PUSH28 0xFFFFFFFFFFFFFFFFFFFFFFFFFFFFFFFFFFFFFFFFFFFFFFFFFFFFFFFF DUP4 DUP2 DUP4 AND OR DUP4 MSTORE POP POP POP POP PUSH1 0x40 MLOAD PUSH2 0xA6D SWAP2 SWAP1 PUSH2 0x2080 JUMP JUMPDEST PUSH0 PUSH1 0x40 MLOAD DUP1 DUP4 SUB DUP2 PUSH0 DUP7 GAS CALL SWAP2 POP POP RETURNDATASIZE DUP1 PUSH0 DUP2 EQ PUSH2 0xAA6 JUMPI PUSH1 0x40 MLOAD SWAP2 POP PUSH1 0x1F NOT PUSH1 0x3F RETURNDATASIZE ADD AND DUP3 ADD PUSH1 0x40 MSTORE RETURNDATASIZE DUP3 MSTORE RETURNDATASIZE PUSH0 PUSH1 0x20 DUP5 ADD RETURNDATACOPY PUSH2 0xAAB JUMP JUMPDEST PUSH1 0x60 SWAP2 POP JUMPDEST POP POP SWAP1 POP DUP1 PUSH2 0xAEF JUMPI PUSH1 0x40 MLOAD PUSH32 0x8C379A000000000000000000000000000000000000000000000000000000000 DUP2 MSTORE PUSH1 0x4 ADD PUSH2 0xAE6 SWAP1 PUSH2 0x20E0 JUMP JUMPDEST PUSH1 0x40 MLOAD DUP1 SWAP2 SUB SWAP1 REVERT JUMPDEST POP TIMESTAMP PUSH1 0x3 DUP1 ADD DUP2 SWAP1 SSTORE POP POP POP POP JUMP JUMPDEST PUSH0 ADDRESS SWAP1 POP SWAP1 JUMP JUMPDEST PUSH1 0x1 PUSH0 SWAP1 SLOAD SWAP1 PUSH2 0x100 EXP SWAP1 DIV PUSH20 0xFFFFFFFFFFFFFFFFFFFFFFFFFFFFFFFFFFFFFFFF AND PUSH20 0xFFFFFFFFFFFFFFFFFFFFFFFFFFFFFFFFFFFFFFFF AND CALLER PUSH20 0xFFFFFFFFFFFFFFFFFFFFFFFFFFFFFFFFFFFFFFFF AND EQ PUSH2 0xB94 JUMPI PUSH1 0x40 MLOAD PUSH32 0x8C379A000000000000000000000000000000000000000000000000000000000 DUP2 MSTORE PUSH1 0x4 ADD PUSH2 0xB8B SWAP1 PUSH2 0x1F12 JUMP JUMPDEST PUSH1 0x40 MLOAD DUP1 SWAP2 SUB SWAP1 REVERT JUMPDEST PUSH0 DUP3 PUSH20 0xFFFFFFFFFFFFFFFFFFFFFFFFFFFFFFFFFFFFFFFF AND PUSH2 0x8FC DUP4 SWAP1 DUP2 ISZERO MUL SWAP1 PUSH1 0x40 MLOAD PUSH0 PUSH1 0x40 MLOAD DUP1 DUP4 SUB DUP2 DUP6 DUP9 DUP9 CALL SWAP4 POP POP POP POP SWAP1 POP DUP1 PUSH2 0xC0B JUMPI PUSH1 0x40 MLOAD PUSH32 0x8C379A000000000000000000000000000000000000000000000000000000000 DUP2 MSTORE PUSH1 0x4 ADD PUSH2 0xC02 SWAP1 PUSH2 0x20E0 JUMP JUMPDEST PUSH1 0x40 MLOAD DUP1 SWAP2 SUB SWAP1 REVERT JUMPDEST POP TIMESTAMP PUSH1 0x3 DUP1 ADD DUP2 SWAP1 SSTORE POP POP POP JUMP JUMPDEST PUSH0 CALLER PUSH1 0x40 MLOAD PUSH1 0x20 ADD PUSH2 0xC2B SWAP2 SWAP1 PUSH2 0x1C7D JUMP JUMPDEST PUSH1 0x40 MLOAD PUSH1 0x20 DUP2 DUP4 SUB SUB DUP2 MSTORE SWAP1 PUSH1 0x40 MSTORE DUP1 MLOAD SWAP1 PUSH1 0x20 ADD KECCAK256 SWAP1 POP PUSH0 DUP1 JUMPDEST PUSH1 0x3 PUSH0 ADD DUP1 SLOAD SWAP1 POP DUP2 LT ISZERO PUSH2 0xC90 JUMPI PUSH1 0x3 PUSH0 ADD DUP2 DUP2 SLOAD DUP2 LT PUSH2 0xC6B JUMPI PUSH2 0xC6A PUSH2 0x1C97 JUMP JUMPDEST JUMPDEST SWAP1 PUSH0 MSTORE PUSH1 0x20 PUSH0 KECCAK256 ADD SLOAD DUP4 SUB PUSH2 0xC83 JUMPI PUSH1 0x1 SWAP2 POP PUSH2 0xC90 JUMP JUMPDEST DUP1 DUP1 PUSH1 0x1 ADD SWAP2 POP POP PUSH2 0xC46 JUMP JUMPDEST POP DUP1 PUSH2 0xCD1 JUMPI PUSH1 0x40 MLOAD PUSH32 0x8C379A000000000000000000000000000000000000000000000000000000000 DUP2 MSTORE PUSH1 0x4 ADD PUSH2 0xCC8 SWAP1 PUSH2 0x1D1E JUMP JUMPDEST PUSH1 0x40 MLOAD DUP1 SWAP2 SUB SWAP1 REVERT JUMPDEST PUSH0 DUP6 DUP6 PUSH1 0x40 MLOAD PUSH1 0x20 ADD PUSH2 0xCE5 SWAP3 SWAP2 SWAP1 PUSH2 0x213A JUMP JUMPDEST PUSH1 0x40 MLOAD PUSH1 0x20 DUP2 DUP4 SUB SUB DUP2 MSTORE SWAP1 PUSH1 0x40 MSTORE DUP1 MLOAD SWAP1 PUSH1 0x20 ADD KECCAK256 SWAP1 POP PUSH1 0x3 PUSH1 0x1 ADD SLOAD DUP2 EQ PUSH2 0xD44 JUMPI PUSH1 0x40 MLOAD PUSH32 0x8C379A000000000000000000000000000000000000000000000000000000000 DUP2 MSTORE PUSH1 0x4 ADD PUSH2 0xD3B SWAP1 PUSH2 0x219C JUMP JUMPDEST PUSH1 0x40 MLOAD DUP1 SWAP2 SUB SWAP1 REVERT JUMPDEST PUSH0 PUSH1 0x60 DUP6 PUSH1 0x1 PUSH0 PUSH2 0x100 EXP DUP2 SLOAD DUP2 PUSH20 0xFFFFFFFFFFFFFFFFFFFFFFFFFFFFFFFFFFFFFFFF MUL NOT AND SWAP1 DUP4 PUSH20 0xFFFFFFFFFFFFFFFFFFFFFFFFFFFFFFFFFFFFFFFF AND MUL OR SWAP1 SSTORE POP DUP1 PUSH1 0x3 PUSH0 ADD SWAP1 DUP1 MLOAD SWAP1 PUSH1 0x20 ADD SWAP1 PUSH2 0xD9F SWAP3 SWAP2 SWAP1 PUSH2 0x13CC JUMP JUMPDEST POP DUP2 PUSH1 0x3 PUSH1 0x1 ADD DUP2 SWAP1 SSTORE POP PUSH0 PUSH1 0x3 PUSH1 0x4 ADD PUSH0 PUSH2 0x100 EXP DUP2 SLOAD DUP2 PUSH1 0xFF MUL NOT AND SWAP1 DUP4 ISZERO ISZERO MUL OR SWAP1 SSTORE POP PUSH0 PUSH1 0x3 PUSH1 0x2 ADD DUP2 SWAP1 SSTORE POP TIMESTAMP PUSH1 0x3 DUP1 ADD DUP2 SWAP1 SSTORE POP PUSH2 0xDE2 DUP7 PUSH2 0x1342 JUMP JUMPDEST POP POP POP POP POP POP POP POP JUMP JUMPDEST PUSH2 0xDF4 PUSH2 0x1462 JUMP JUMPDEST PUSH1 0x3 PUSH1 0x40 MLOAD DUP1 PUSH1 0xA0 ADD PUSH1 0x40 MSTORE SWAP1 DUP2 PUSH0 DUP3 ADD DUP1 SLOAD DUP1 PUSH1 0x20 MUL PUSH1 0x20 ADD PUSH1 0x40 MLOAD SWAP1 DUP2 ADD PUSH1 0x40 MSTORE DUP1 SWAP3 SWAP2 SWAP1 DUP2 DUP2 MSTORE PUSH1 0x20 ADD DUP3 DUP1 SLOAD DUP1 ISZERO PUSH2 0xE4D JUMPI PUSH1 0x20 MUL DUP3 ADD SWAP2 SWAP1 PUSH0 MSTORE PUSH1 0x20 PUSH0 KECCAK256 SWAP1 JUMPDEST DUP2 SLOAD DUP2 MSTORE PUSH1 0x20 ADD SWAP1 PUSH1 0x1 ADD SWAP1 DUP1 DUP4 GT PUSH2 0xE39 JUMPI JUMPDEST POP POP POP POP POP DUP2 MSTORE PUSH1 0x20 ADD PUSH1 0x1 DUP3 ADD SLOAD DUP2 MSTORE PUSH1 0x20 ADD PUSH1 0x2 DUP3 ADD SLOAD DUP2 MSTORE PUSH1 0x20 ADD PUSH1 0x3 DUP3 ADD SLOAD DUP2 MSTORE PUSH1 0x20 ADD PUSH1 0x4 DUP3 ADD PUSH0 SWAP1 SLOAD SWAP1 PUSH2 0x100 EXP SWAP1 DIV PUSH1 0xFF AND ISZERO ISZERO ISZERO ISZERO DUP2 MSTORE POP POP SWAP1 POP SWAP1 JUMP JUMPDEST PUSH1 0x1 PUSH0 SWAP1 SLOAD SWAP1 PUSH2 0x100 EXP SWAP1 DIV PUSH20 0xFFFFFFFFFFFFFFFFFFFFFFFFFFFFFFFFFFFFFFFF AND PUSH20 0xFFFFFFFFFFFFFFFFFFFFFFFFFFFFFFFFFFFFFFFF AND CALLER PUSH20 0xFFFFFFFFFFFFFFFFFFFFFFFFFFFFFFFFFFFFFFFF AND EQ PUSH2 0xF22 JUMPI PUSH1 0x40 MLOAD PUSH32 0x8C379A000000000000000000000000000000000000000000000000000000000 DUP2 MSTORE PUSH1 0x4 ADD PUSH2 0xF19 SWAP1 PUSH2 0x1F12 JUMP JUMPDEST PUSH1 0x40 MLOAD DUP1 SWAP2 SUB SWAP1 REVERT JUMPDEST PUSH0 DUP4 PUSH20 0xFFFFFFFFFFFFFFFFFFFFFFFFFFFFFFFFFFFFFFFF AND DUP4 DUP4 PUSH1 0x40 MLOAD PUSH1 0x24 ADD PUSH2 0xF4D SWAP3 SWAP2 SWAP1 PUSH2 0x21BA JUMP JUMPDEST PUSH1 0x40 MLOAD PUSH1 0x20 DUP2 DUP4 SUB SUB DUP2 MSTORE SWAP1 PUSH1 0x40 MSTORE PUSH32 0xA9059CBB00000000000000000000000000000000000000000000000000000000 PUSH28 0xFFFFFFFFFFFFFFFFFFFFFFFFFFFFFFFFFFFFFFFFFFFFFFFFFFFFFFFF NOT AND PUSH1 0x20 DUP3 ADD DUP1 MLOAD PUSH28 0xFFFFFFFFFFFFFFFFFFFFFFFFFFFFFFFFFFFFFFFFFFFFFFFFFFFFFFFF DUP4 DUP2 DUP4 AND OR DUP4 MSTORE POP POP POP POP PUSH1 0x40 MLOAD PUSH2 0xFD7 SWAP2 SWAP1 PUSH2 0x2080 JUMP JUMPDEST PUSH0 PUSH1 0x40 MLOAD DUP1 DUP4 SUB DUP2 PUSH0 DUP7 GAS CALL SWAP2 POP POP RETURNDATASIZE DUP1 PUSH0 DUP2 EQ PUSH2 0x1010 JUMPI PUSH1 0x40 MLOAD SWAP2 POP PUSH1 0x1F NOT PUSH1 0x3F RETURNDATASIZE ADD AND DUP3 ADD PUSH1 0x40 MSTORE RETURNDATASIZE DUP3 MSTORE RETURNDATASIZE PUSH0 PUSH1 0x20 DUP5 ADD RETURNDATACOPY PUSH2 0x1015 JUMP JUMPDEST PUSH1 0x60 SWAP2 POP JUMPDEST POP POP SWAP1 POP DUP1 PUSH2 0x1059 JUMPI PUSH1 0x40 MLOAD PUSH32 0x8C379A000000000000000000000000000000000000000000000000000000000 DUP2 MSTORE PUSH1 0x4 ADD PUSH2 0x1050 SWAP1 PUSH2 0x20E0 JUMP JUMPDEST PUSH1 0x40 MLOAD DUP1 SWAP2 SUB SWAP1 REVERT JUMPDEST POP TIMESTAMP PUSH1 0x3 DUP1 ADD DUP2 SWAP1 SSTORE POP POP POP POP JUMP JUMPDEST PUSH0 PUSH32 0xBC197C819B3E337A6F9652DD10BECD7EEF83032AF3B9D958D3D42F6694146621 SWAP1 POP SWAP9 SWAP8 POP POP POP POP POP POP POP POP JUMP JUMPDEST PUSH0 DUP1 SLOAD SWAP1 POP SWAP1 JUMP JUMPDEST PUSH1 0x1 PUSH0 SWAP1 SLOAD SWAP1 PUSH2 0x100 EXP SWAP1 DIV PUSH20 0xFFFFFFFFFFFFFFFFFFFFFFFFFFFFFFFFFFFFFFFF AND PUSH20 0xFFFFFFFFFFFFFFFFFFFFFFFFFFFFFFFFFFFFFFFF AND CALLER PUSH20 0xFFFFFFFFFFFFFFFFFFFFFFFFFFFFFFFFFFFFFFFF AND EQ PUSH2 0x112F JUMPI PUSH1 0x40 MLOAD PUSH32 0x8C379A000000000000000000000000000000000000000000000000000000000 DUP2 MSTORE PUSH1 0x4 ADD PUSH2 0x1126 SWAP1 PUSH2 0x1F12 JUMP JUMPDEST PUSH1 0x40 MLOAD DUP1 SWAP2 SUB SWAP1 REVERT JUMPDEST PUSH0 DUP7 PUSH20 0xFFFFFFFFFFFFFFFFFFFFFFFFFFFFFFFFFFFFFFFF AND ADDRESS DUP8 DUP8 DUP8 DUP8 DUP8 PUSH1 0x40 MLOAD PUSH1 0x24 ADD PUSH2 0x1162 SWAP7 SWAP6 SWAP5 SWAP4 SWAP3 SWAP2 SWAP1 PUSH2 0x222D JUMP JUMPDEST PUSH1 0x40 MLOAD PUSH1 0x20 DUP2 DUP4 SUB SUB DUP2 MSTORE SWAP1 PUSH1 0x40 MSTORE PUSH32 0xF242432A00000000000000000000000000000000000000000000000000000000 PUSH28 0xFFFFFFFFFFFFFFFFFFFFFFFFFFFFFFFFFFFFFFFFFFFFFFFFFFFFFFFF NOT AND PUSH1 0x20 DUP3 ADD DUP1 MLOAD PUSH28 0xFFFFFFFFFFFFFFFFFFFFFFFFFFFFFFFFFFFFFFFFFFFFFFFFFFFFFFFF DUP4 DUP2 DUP4 AND OR DUP4 MSTORE POP POP POP POP PUSH1 0x40 MLOAD PUSH2 0x11EC SWAP2 SWAP1 PUSH2 0x2080 JUMP JUMPDEST PUSH0 PUSH1 0x40 MLOAD DUP1 DUP4 SUB DUP2 PUSH0 DUP7 GAS CALL SWAP2 POP POP RETURNDATASIZE DUP1 PUSH0 DUP2 EQ PUSH2 0x1225 JUMPI PUSH1 0x40 MLOAD SWAP2 POP PUSH1 0x1F NOT PUSH1 0x3F RETURNDATASIZE ADD AND DUP3 ADD PUSH1 0x40 MSTORE RETURNDATASIZE DUP3 MSTORE RETURNDATASIZE PUSH0 PUSH1 0x20 DUP5 ADD RETURNDATACOPY PUSH2 0x122A JUMP JUMPDEST PUSH1 0x60 SWAP2 POP JUMPDEST POP POP SWAP1 POP DUP1 PUSH2 0x126E JUMPI PUSH1 0x40 MLOAD PUSH32 0x8C379A000000000000000000000000000000000000000000000000000000000 DUP2 MSTORE PUSH1 0x4 ADD PUSH2 0x1265 SWAP1 PUSH2 0x20E0 JUMP JUMPDEST PUSH1 0x40 MLOAD DUP1 SWAP2 SUB SWAP1 REVERT JUMPDEST POP TIMESTAMP PUSH1 0x3 DUP1 ADD DUP2 SWAP1 SSTORE POP POP POP POP POP POP POP JUMP JUMPDEST PUSH0 PUSH1 0x1 PUSH0 SWAP1 SLOAD SWAP1 PUSH2 0x100 EXP SWAP1 DIV PUSH20 0xFFFFFFFFFFFFFFFFFFFFFFFFFFFFFFFFFFFFFFFF AND SWAP1 POP SWAP1 JUMP JUMPDEST PUSH1 0x1 PUSH0 SWAP1 SLOAD SWAP1 PUSH2 0x100 EXP SWAP1 DIV PUSH20 0xFFFFFFFFFFFFFFFFFFFFFFFFFFFFFFFFFFFFFFFF AND PUSH20 0xFFFFFFFFFFFFFFFFFFFFFFFFFFFFFFFFFFFFFFFF AND CALLER PUSH20 0xFFFFFFFFFFFFFFFFFFFFFFFFFFFFFFFFFFFFFFFF AND EQ PUSH2 0x1337 JUMPI PUSH1 0x40 MLOAD PUSH32 0x8C379A000000000000000000000000000000000000000000000000000000000 DUP2 MSTORE PUSH1 0x4 ADD PUSH2 0x132E SWAP1 PUSH2 0x1F12 JUMP JUMPDEST PUSH1 0x40 MLOAD DUP1 SWAP2 SUB SWAP1 REVERT JUMPDEST TIMESTAMP PUSH1 0x3 DUP1 ADD DUP2 SWAP1 SSTORE POP JUMP JUMPDEST PUSH1 0x2 PUSH0 SWAP1 SLOAD SWAP1 PUSH2 0x100 EXP SWAP1 DIV PUSH20 0xFFFFFFFFFFFFFFFFFFFFFFFFFFFFFFFFFFFFFFFF AND PUSH20 0xFFFFFFFFFFFFFFFFFFFFFFFFFFFFFFFFFFFFFFFF AND PUSH4 0x848B86E3 DUP3 PUSH1 0x40 MLOAD DUP3 PUSH4 0xFFFFFFFF AND PUSH1 0xE0 SHL DUP2 MSTORE PUSH1 0x4 ADD PUSH2 0x139C SWAP2 SWAP1 PUSH2 0x1890 JUMP JUMPDEST PUSH0 PUSH1 0x40 MLOAD DUP1 DUP4 SUB DUP2 PUSH0 DUP8 DUP1 EXTCODESIZE ISZERO DUP1 ISZERO PUSH2 0x13B3 JUMPI PUSH0 DUP1 REVERT JUMPDEST POP GAS CALL ISZERO DUP1 ISZERO PUSH2 0x13C5 JUMPI RETURNDATASIZE PUSH0 DUP1 RETURNDATACOPY RETURNDATASIZE PUSH0 REVERT JUMPDEST POP POP POP POP POP JUMP JUMPDEST DUP3 DUP1 SLOAD DUP3 DUP3 SSTORE SWAP1 PUSH0 MSTORE PUSH1 0x20 PUSH0 KECCAK256 SWAP1 DUP2 ADD SWAP3 DUP3 ISZERO PUSH2 0x1406 JUMPI SWAP2 PUSH1 0x20 MUL DUP3 ADD JUMPDEST DUP3 DUP2 GT ISZERO PUSH2 0x1405 JUMPI DUP3 MLOAD DUP3 SSTORE SWAP2 PUSH1 0x20 ADD SWAP2 SWAP1 PUSH1 0x1 ADD SWAP1 PUSH2 0x13EA JUMP JUMPDEST JUMPDEST POP SWAP1 POP PUSH2 0x1413 SWAP2 SWAP1 PUSH2 0x1492 JUMP JUMPDEST POP SWAP1 JUMP JUMPDEST DUP3 DUP1 SLOAD DUP3 DUP3 SSTORE SWAP1 PUSH0 MSTORE PUSH1 0x20 PUSH0 KECCAK256 SWAP1 DUP2 ADD SWAP3 DUP3 ISZERO PUSH2 0x1451 JUMPI SWAP2 PUSH1 0x20 MUL DUP3 ADD JUMPDEST DUP3 DUP2 GT ISZERO PUSH2 0x1450 JUMPI DUP3 CALLDATALOAD DUP3 SSTORE SWAP2 PUSH1 0x20 ADD SWAP2 SWAP1 PUSH1 0x1 ADD SWAP1 PUSH2 0x1435 JUMP JUMPDEST JUMPDEST POP SWAP1 POP PUSH2 0x145E SWAP2 SWAP1 PUSH2 0x1492 JUMP JUMPDEST POP SWAP1 JUMP JUMPDEST PUSH1 0x40 MLOAD DUP1 PUSH1 0xA0 ADD PUSH1 0x40 MSTORE DUP1 PUSH1 0x60 DUP2 MSTORE PUSH1 0x20 ADD PUSH0 DUP1 NOT AND DUP2 MSTORE PUSH1 0x20 ADD PUSH0 DUP2 MSTORE PUSH1 0x20 ADD PUSH0 DUP2 MSTORE PUSH1 0x20 ADD PUSH0 ISZERO ISZERO DUP2 MSTORE POP SWAP1 JUMP JUMPDEST JUMPDEST DUP1 DUP3 GT ISZERO PUSH2 0x14A9 JUMPI PUSH0 DUP2 PUSH0 SWAP1 SSTORE POP PUSH1 0x1 ADD PUSH2 0x1493 JUMP JUMPDEST POP SWAP1 JUMP JUMPDEST PUSH0 DUP1 REVERT JUMPDEST PUSH0 DUP1 REVERT JUMPDEST PUSH0 DUP1 REVERT JUMPDEST PUSH0 DUP1 REVERT JUMPDEST PUSH0 DUP1 REVERT JUMPDEST PUSH0 DUP1 DUP4 PUSH1 0x1F DUP5 ADD SLT PUSH2 0x14D6 JUMPI PUSH2 0x14D5 PUSH2 0x14B5 JUMP JUMPDEST JUMPDEST DUP3 CALLDATALOAD SWAP1 POP PUSH8 0xFFFFFFFFFFFFFFFF DUP2 GT ISZERO PUSH2 0x14F3 JUMPI PUSH2 0x14F2 PUSH2 0x14B9 JUMP JUMPDEST JUMPDEST PUSH1 0x20 DUP4 ADD SWAP2 POP DUP4 PUSH1 0x20 DUP3 MUL DUP4 ADD GT ISZERO PUSH2 0x150F JUMPI PUSH2 0x150E PUSH2 0x14BD JUMP JUMPDEST JUMPDEST SWAP3 POP SWAP3 SWAP1 POP JUMP JUMPDEST PUSH0 DUP2 SWAP1 POP SWAP2 SWAP1 POP JUMP JUMPDEST PUSH2 0x1528 DUP2 PUSH2 0x1516 JUMP JUMPDEST DUP2 EQ PUSH2 0x1532 JUMPI PUSH0 DUP1 REVERT JUMPDEST POP JUMP JUMPDEST PUSH0 DUP2 CALLDATALOAD SWAP1 POP PUSH2 0x1543 DUP2 PUSH2 0x151F JUMP JUMPDEST SWAP3 SWAP2 POP POP JUMP JUMPDEST PUSH0 DUP2 SWAP1 POP SWAP2 SWAP1 POP JUMP JUMPDEST PUSH2 0x155B DUP2 PUSH2 0x1549 JUMP JUMPDEST DUP2 EQ PUSH2 0x1565 JUMPI PUSH0 DUP1 REVERT JUMPDEST POP JUMP JUMPDEST PUSH0 DUP2 CALLDATALOAD SWAP1 POP PUSH2 0x1576 DUP2 PUSH2 0x1552 JUMP JUMPDEST SWAP3 SWAP2 POP POP JUMP JUMPDEST PUSH0 DUP1 PUSH0 DUP1 PUSH1 0x60 DUP6 DUP8 SUB SLT ISZERO PUSH2 0x1594 JUMPI PUSH2 0x1593 PUSH2 0x14AD JUMP JUMPDEST JUMPDEST PUSH0 DUP6 ADD CALLDATALOAD PUSH8 0xFFFFFFFFFFFFFFFF DUP2 GT ISZERO PUSH2 0x15B1 JUMPI PUSH2 0x15B0 PUSH2 0x14B1 JUMP JUMPDEST JUMPDEST PUSH2 0x15BD DUP8 DUP3 DUP9 ADD PUSH2 0x14C1 JUMP JUMPDEST SWAP5 POP SWAP5 POP POP PUSH1 0x20 PUSH2 0x15D0 DUP8 DUP3 DUP9 ADD PUSH2 0x1535 JUMP JUMPDEST SWAP3 POP POP PUSH1 0x40 PUSH2 0x15E1 DUP8 DUP3 DUP9 ADD PUSH2 0x1568 JUMP JUMPDEST SWAP2 POP POP SWAP3 SWAP6 SWAP2 SWAP5 POP SWAP3 POP JUMP JUMPDEST PUSH0 PUSH20 0xFFFFFFFFFFFFFFFFFFFFFFFFFFFFFFFFFFFFFFFF DUP3 AND SWAP1 POP SWAP2 SWAP1 POP JUMP JUMPDEST PUSH0 PUSH2 0x1616 DUP3 PUSH2 0x15ED JUMP JUMPDEST SWAP1 POP SWAP2 SWAP1 POP JUMP JUMPDEST PUSH2 0x1626 DUP2 PUSH2 0x160C JUMP JUMPDEST DUP2 EQ PUSH2 0x1630 JUMPI PUSH0 DUP1 REVERT JUMPDEST POP JUMP JUMPDEST PUSH0 DUP2 CALLDATALOAD SWAP1 POP PUSH2 0x1641 DUP2 PUSH2 0x161D JUMP JUMPDEST SWAP3 SWAP2 POP POP JUMP JUMPDEST PUSH0 DUP1 DUP4 PUSH1 0x1F DUP5 ADD SLT PUSH2 0x165C JUMPI PUSH2 0x165B PUSH2 0x14B5 JUMP JUMPDEST JUMPDEST DUP3 CALLDATALOAD SWAP1 POP PUSH8 0xFFFFFFFFFFFFFFFF DUP2 GT ISZERO PUSH2 0x1679 JUMPI PUSH2 0x1678 PUSH2 0x14B9 JUMP JUMPDEST JUMPDEST PUSH1 0x20 DUP4 ADD SWAP2 POP DUP4 PUSH1 0x1 DUP3 MUL DUP4 ADD GT ISZERO PUSH2 0x1695 JUMPI PUSH2 0x1694 PUSH2 0x14BD JUMP JUMPDEST JUMPDEST SWAP3 POP SWAP3 SWAP1 POP JUMP JUMPDEST PUSH0 DUP1 PUSH0 DUP1 PUSH0 DUP1 PUSH1 0xA0 DUP8 DUP10 SUB SLT ISZERO PUSH2 0x16B6 JUMPI PUSH2 0x16B5 PUSH2 0x14AD JUMP JUMPDEST JUMPDEST PUSH0 PUSH2 0x16C3 DUP10 DUP3 DUP11 ADD PUSH2 0x1633 JUMP JUMPDEST SWAP7 POP POP PUSH1 0x20 PUSH2 0x16D4 DUP10 DUP3 DUP11 ADD PUSH2 0x1633 JUMP JUMPDEST SWAP6 POP POP PUSH1 0x40 PUSH2 0x16E5 DUP10 DUP3 DUP11 ADD PUSH2 0x1568 JUMP JUMPDEST SWAP5 POP POP PUSH1 0x60 PUSH2 0x16F6 DUP10 DUP3 DUP11 ADD PUSH2 0x1568 JUMP JUMPDEST SWAP4 POP POP PUSH1 0x80 DUP8 ADD CALLDATALOAD PUSH8 0xFFFFFFFFFFFFFFFF DUP2 GT ISZERO PUSH2 0x1717 JUMPI PUSH2 0x1716 PUSH2 0x14B1 JUMP JUMPDEST JUMPDEST PUSH2 0x1723 DUP10 DUP3 DUP11 ADD PUSH2 0x1647 JUMP JUMPDEST SWAP3 POP SWAP3 POP POP SWAP3 SWAP6 POP SWAP3 SWAP6 POP SWAP3 SWAP6 JUMP JUMPDEST PUSH0 PUSH32 0xFFFFFFFF00000000000000000000000000000000000000000000000000000000 DUP3 AND SWAP1 POP SWAP2 SWAP1 POP JUMP JUMPDEST PUSH2 0x1766 DUP2 PUSH2 0x1732 JUMP JUMPDEST DUP3 MSTORE POP POP JUMP JUMPDEST PUSH0 PUSH1 0x20 DUP3 ADD SWAP1 POP PUSH2 0x177F PUSH0 DUP4 ADD DUP5 PUSH2 0x175D JUMP JUMPDEST SWAP3 SWAP2 POP POP JUMP JUMPDEST PUSH2 0x178E DUP2 PUSH2 0x1549 JUMP JUMPDEST DUP3 MSTORE POP POP JUMP JUMPDEST PUSH0 PUSH1 0x20 DUP3 ADD SWAP1 POP PUSH2 0x17A7 PUSH0 DUP4 ADD DUP5 PUSH2 0x1785 JUMP JUMPDEST SWAP3 SWAP2 POP POP JUMP JUMPDEST PUSH0 DUP1 PUSH0 DUP1 PUSH0 PUSH1 0x80 DUP7 DUP9 SUB SLT ISZERO PUSH2 0x17C6 JUMPI PUSH2 0x17C5 PUSH2 0x14AD JUMP JUMPDEST JUMPDEST PUSH0 PUSH2 0x17D3 DUP9 DUP3 DUP10 ADD PUSH2 0x1633 JUMP JUMPDEST SWAP6 POP POP PUSH1 0x20 PUSH2 0x17E4 DUP9 DUP3 DUP10 ADD PUSH2 0x1633 JUMP JUMPDEST SWAP5 POP POP PUSH1 0x40 PUSH2 0x17F5 DUP9 DUP3 DUP10 ADD PUSH2 0x1568 JUMP JUMPDEST SWAP4 POP POP PUSH1 0x60 DUP7 ADD CALLDATALOAD PUSH8 0xFFFFFFFFFFFFFFFF DUP2 GT ISZERO PUSH2 0x1816 JUMPI PUSH2 0x1815 PUSH2 0x14B1 JUMP JUMPDEST JUMPDEST PUSH2 0x1822 DUP9 DUP3 DUP10 ADD PUSH2 0x1647 JUMP JUMPDEST SWAP3 POP SWAP3 POP POP SWAP3 SWAP6 POP SWAP3 SWAP6 SWAP1 SWAP4 POP JUMP JUMPDEST PUSH0 DUP1 PUSH0 PUSH1 0x60 DUP5 DUP7 SUB SLT ISZERO PUSH2 0x1848 JUMPI PUSH2 0x1847 PUSH2 0x14AD JUMP JUMPDEST JUMPDEST PUSH0 PUSH2 0x1855 DUP7 DUP3 DUP8 ADD PUSH2 0x1633 JUMP JUMPDEST SWAP4 POP POP PUSH1 0x20 PUSH2 0x1866 DUP7 DUP3 DUP8 ADD PUSH2 0x1633 JUMP JUMPDEST SWAP3 POP POP PUSH1 0x40 PUSH2 0x1877 DUP7 DUP3 DUP8 ADD PUSH2 0x1568 JUMP JUMPDEST SWAP2 POP POP SWAP3 POP SWAP3 POP SWAP3 JUMP JUMPDEST PUSH2 0x188A DUP2 PUSH2 0x160C JUMP JUMPDEST DUP3 MSTORE POP POP JUMP JUMPDEST PUSH0 PUSH1 0x20 DUP3 ADD SWAP1 POP PUSH2 0x18A3 PUSH0 DUP4 ADD DUP5 PUSH2 0x1881 JUMP JUMPDEST SWAP3 SWAP2 POP POP JUMP JUMPDEST PUSH0 DUP1 PUSH1 0x40 DUP4 DUP6 SUB SLT ISZERO PUSH2 0x18BF JUMPI PUSH2 0x18BE PUSH2 0x14AD JUMP JUMPDEST JUMPDEST PUSH0 PUSH2 0x18CC DUP6 DUP3 DUP7 ADD PUSH2 0x1633 JUMP JUMPDEST SWAP3 POP POP PUSH1 0x20 PUSH2 0x18DD DUP6 DUP3 DUP7 ADD PUSH2 0x1568 JUMP JUMPDEST SWAP2 POP POP SWAP3 POP SWAP3 SWAP1 POP JUMP JUMPDEST PUSH0 DUP1 DUP4 PUSH1 0x1F DUP5 ADD SLT PUSH2 0x18FC JUMPI PUSH2 0x18FB PUSH2 0x14B5 JUMP JUMPDEST JUMPDEST DUP3 CALLDATALOAD SWAP1 POP PUSH8 0xFFFFFFFFFFFFFFFF DUP2 GT ISZERO PUSH2 0x1919 JUMPI PUSH2 0x1918 PUSH2 0x14B9 JUMP JUMPDEST JUMPDEST PUSH1 0x20 DUP4 ADD SWAP2 POP DUP4 PUSH1 0x1 DUP3 MUL DUP4 ADD GT ISZERO PUSH2 0x1935 JUMPI PUSH2 0x1934 PUSH2 0x14BD JUMP JUMPDEST JUMPDEST SWAP3 POP SWAP3 SWAP1 POP JUMP JUMPDEST PUSH0 DUP1 PUSH0 PUSH1 0x40 DUP5 DUP7 SUB SLT ISZERO PUSH2 0x1953 JUMPI PUSH2 0x1952 PUSH2 0x14AD JUMP JUMPDEST JUMPDEST PUSH0 DUP5 ADD CALLDATALOAD PUSH8 0xFFFFFFFFFFFFFFFF DUP2 GT ISZERO PUSH2 0x1970 JUMPI PUSH2 0x196F PUSH2 0x14B1 JUMP JUMPDEST JUMPDEST PUSH2 0x197C DUP7 DUP3 DUP8 ADD PUSH2 0x18E7 JUMP JUMPDEST SWAP4 POP SWAP4 POP POP PUSH1 0x20 PUSH2 0x198F DUP7 DUP3 DUP8 ADD PUSH2 0x1633 JUMP JUMPDEST SWAP2 POP POP SWAP3 POP SWAP3 POP SWAP3 JUMP JUMPDEST PUSH0 DUP2 MLOAD SWAP1 POP SWAP2 SWAP1 POP JUMP JUMPDEST PUSH0 DUP3 DUP3 MSTORE PUSH1 0x20 DUP3 ADD SWAP1 POP SWAP3 SWAP2 POP POP JUMP JUMPDEST PUSH0 DUP2 SWAP1 POP PUSH1 0x20 DUP3 ADD SWAP1 POP SWAP2 SWAP1 POP JUMP JUMPDEST PUSH2 0x19CB DUP2 PUSH2 0x1516 JUMP JUMPDEST DUP3 MSTORE POP POP JUMP JUMPDEST PUSH0 PUSH2 0x19DC DUP4 DUP4 PUSH2 0x19C2 JUMP JUMPDEST PUSH1 0x20 DUP4 ADD SWAP1 POP SWAP3 SWAP2 POP POP JUMP JUMPDEST PUSH0 PUSH1 0x20 DUP3 ADD SWAP1 POP SWAP2 SWAP1 POP JUMP JUMPDEST PUSH0 PUSH2 0x19FE DUP3 PUSH2 0x1999 JUMP JUMPDEST PUSH2 0x1A08 DUP2 DUP6 PUSH2 0x19A3 JUMP JUMPDEST SWAP4 POP PUSH2 0x1A13 DUP4 PUSH2 0x19B3 JUMP JUMPDEST DUP1 PUSH0 JUMPDEST DUP4 DUP2 LT ISZERO PUSH2 0x1A43 JUMPI DUP2 MLOAD PUSH2 0x1A2A DUP9 DUP3 PUSH2 0x19D1 JUMP JUMPDEST SWAP8 POP PUSH2 0x1A35 DUP4 PUSH2 0x19E8 JUMP JUMPDEST SWAP3 POP POP PUSH1 0x1 DUP2 ADD SWAP1 POP PUSH2 0x1A16 JUMP JUMPDEST POP DUP6 SWAP4 POP POP POP POP SWAP3 SWAP2 POP POP JUMP JUMPDEST PUSH2 0x1A59 DUP2 PUSH2 0x1549 JUMP JUMPDEST DUP3 MSTORE POP POP JUMP JUMPDEST PUSH0 DUP2 ISZERO ISZERO SWAP1 POP SWAP2 SWAP1 POP JUMP JUMPDEST PUSH2 0x1A73 DUP2 PUSH2 0x1A5F JUMP JUMPDEST DUP3 MSTORE POP POP JUMP JUMPDEST PUSH0 PUSH1 0xA0 DUP4 ADD PUSH0 DUP4 ADD MLOAD DUP5 DUP3 SUB PUSH0 DUP7 ADD MSTORE PUSH2 0x1A93 DUP3 DUP3 PUSH2 0x19F4 JUMP JUMPDEST SWAP2 POP POP PUSH1 0x20 DUP4 ADD MLOAD PUSH2 0x1AA8 PUSH1 0x20 DUP7 ADD DUP3 PUSH2 0x19C2 JUMP JUMPDEST POP PUSH1 0x40 DUP4 ADD MLOAD PUSH2 0x1ABB PUSH1 0x40 DUP7 ADD DUP3 PUSH2 0x1A50 JUMP JUMPDEST POP PUSH1 0x60 DUP4 ADD MLOAD PUSH2 0x1ACE PUSH1 0x60 DUP7 ADD DUP3 PUSH2 0x1A50 JUMP JUMPDEST POP PUSH1 0x80 DUP4 ADD MLOAD PUSH2 0x1AE1 PUSH1 0x80 DUP7 ADD DUP3 PUSH2 0x1A6A JUMP JUMPDEST POP DUP1 SWAP2 POP POP SWAP3 SWAP2 POP POP JUMP JUMPDEST PUSH0 PUSH1 0x20 DUP3 ADD SWAP1 POP DUP2 DUP2 SUB PUSH0 DUP4 ADD MSTORE PUSH2 0x1B04 DUP2 DUP5 PUSH2 0x1A79 JUMP JUMPDEST SWAP1 POP SWAP3 SWAP2 POP POP JUMP JUMPDEST PUSH0 DUP1 DUP4 PUSH1 0x1F DUP5 ADD SLT PUSH2 0x1B21 JUMPI PUSH2 0x1B20 PUSH2 0x14B5 JUMP JUMPDEST JUMPDEST DUP3 CALLDATALOAD SWAP1 POP PUSH8 0xFFFFFFFFFFFFFFFF DUP2 GT ISZERO PUSH2 0x1B3E JUMPI PUSH2 0x1B3D PUSH2 0x14B9 JUMP JUMPDEST JUMPDEST PUSH1 0x20 DUP4 ADD SWAP2 POP DUP4 PUSH1 0x20 DUP3 MUL DUP4 ADD GT ISZERO PUSH2 0x1B5A JUMPI PUSH2 0x1B59 PUSH2 0x14BD JUMP JUMPDEST JUMPDEST SWAP3 POP SWAP3 SWAP1 POP JUMP JUMPDEST PUSH0 DUP1 PUSH0 DUP1 PUSH0 DUP1 PUSH0 DUP1 PUSH1 0xA0 DUP10 DUP12 SUB SLT ISZERO PUSH2 0x1B7D JUMPI PUSH2 0x1B7C PUSH2 0x14AD JUMP JUMPDEST JUMPDEST PUSH0 PUSH2 0x1B8A DUP12 DUP3 DUP13 ADD PUSH2 0x1633 JUMP JUMPDEST SWAP9 POP POP PUSH1 0x20 PUSH2 0x1B9B DUP12 DUP3 DUP13 ADD PUSH2 0x1633 JUMP JUMPDEST SWAP8 POP POP PUSH1 0x40 DUP10 ADD CALLDATALOAD PUSH8 0xFFFFFFFFFFFFFFFF DUP2 GT ISZERO PUSH2 0x1BBC JUMPI PUSH2 0x1BBB PUSH2 0x14B1 JUMP JUMPDEST JUMPDEST PUSH2 0x1BC8 DUP12 DUP3 DUP13 ADD PUSH2 0x1B0C JUMP JUMPDEST SWAP7 POP SWAP7 POP POP PUSH1 0x60 DUP10 ADD CALLDATALOAD PUSH8 0xFFFFFFFFFFFFFFFF DUP2 GT ISZERO PUSH2 0x1BEB JUMPI PUSH2 0x1BEA PUSH2 0x14B1 JUMP JUMPDEST JUMPDEST PUSH2 0x1BF7 DUP12 DUP3 DUP13 ADD PUSH2 0x1B0C JUMP JUMPDEST SWAP5 POP SWAP5 POP POP PUSH1 0x80 DUP10 ADD CALLDATALOAD PUSH8 0xFFFFFFFFFFFFFFFF DUP2 GT ISZERO PUSH2 0x1C1A JUMPI PUSH2 0x1C19 PUSH2 0x14B1 JUMP JUMPDEST JUMPDEST PUSH2 0x1C26 DUP12 DUP3 DUP13 ADD PUSH2 0x1647 JUMP JUMPDEST SWAP3 POP SWAP3 POP POP SWAP3 SWAP6 SWAP9 POP SWAP3 SWAP6 SWAP9 SWAP1 SWAP4 SWAP7 POP JUMP JUMPDEST PUSH0 DUP2 PUSH1 0x60 SHL SWAP1 POP SWAP2 SWAP1 POP JUMP JUMPDEST PUSH0 PUSH2 0x1C4E DUP3 PUSH2 0x1C38 JUMP JUMPDEST SWAP1 POP SWAP2 SWAP1 POP JUMP JUMPDEST PUSH0 PUSH2 0x1C5F DUP3 PUSH2 0x1C44 JUMP JUMPDEST SWAP1 POP SWAP2 SWAP1 POP JUMP JUMPDEST PUSH2 0x1C77 PUSH2 0x1C72 DUP3 PUSH2 0x160C JUMP JUMPDEST PUSH2 0x1C55 JUMP JUMPDEST DUP3 MSTORE POP POP JUMP JUMPDEST PUSH0 PUSH2 0x1C88 DUP3 DUP5 PUSH2 0x1C66 JUMP JUMPDEST PUSH1 0x14 DUP3 ADD SWAP2 POP DUP2 SWAP1 POP SWAP3 SWAP2 POP POP JUMP JUMPDEST PUSH32 0x4E487B7100000000000000000000000000000000000000000000000000000000 PUSH0 MSTORE PUSH1 0x32 PUSH1 0x4 MSTORE PUSH1 0x24 PUSH0 REVERT JUMPDEST PUSH0 DUP3 DUP3 MSTORE PUSH1 0x20 DUP3 ADD SWAP1 POP SWAP3 SWAP2 POP POP JUMP JUMPDEST PUSH32 0x596F752063616E6E6F74207265636F7665722074686973206163636F756E7400 PUSH0 DUP3 ADD MSTORE POP JUMP JUMPDEST PUSH0 PUSH2 0x1D08 PUSH1 0x1F DUP4 PUSH2 0x1CC4 JUMP JUMPDEST SWAP2 POP PUSH2 0x1D13 DUP3 PUSH2 0x1CD4 JUMP JUMPDEST PUSH1 0x20 DUP3 ADD SWAP1 POP SWAP2 SWAP1 POP JUMP JUMPDEST PUSH0 PUSH1 0x20 DUP3 ADD SWAP1 POP DUP2 DUP2 SUB PUSH0 DUP4 ADD MSTORE PUSH2 0x1D35 DUP2 PUSH2 0x1CFC JUMP JUMPDEST SWAP1 POP SWAP2 SWAP1 POP JUMP JUMPDEST PUSH32 0x4E487B7100000000000000000000000000000000000000000000000000000000 PUSH0 MSTORE PUSH1 0x11 PUSH1 0x4 MSTORE PUSH1 0x24 PUSH0 REVERT JUMPDEST PUSH0 PUSH2 0x1D73 DUP3 PUSH2 0x1549 JUMP JUMPDEST SWAP2 POP PUSH2 0x1D7E DUP4 PUSH2 0x1549 JUMP JUMPDEST SWAP3 POP DUP3 DUP3 MUL PUSH2 0x1D8C DUP2 PUSH2 0x1549 JUMP JUMPDEST SWAP2 POP DUP3 DUP3 DIV DUP5 EQ DUP4 ISZERO OR PUSH2 0x1DA3 JUMPI PUSH2 0x1DA2 PUSH2 0x1D3C JUMP JUMPDEST JUMPDEST POP SWAP3 SWAP2 POP POP JUMP JUMPDEST PUSH32 0x4E487B7100000000000000000000000000000000000000000000000000000000 PUSH0 MSTORE PUSH1 0x12 PUSH1 0x4 MSTORE PUSH1 0x24 PUSH0 REVERT JUMPDEST PUSH0 PUSH2 0x1DE1 DUP3 PUSH2 0x1549 JUMP JUMPDEST SWAP2 POP PUSH2 0x1DEC DUP4 PUSH2 0x1549 JUMP JUMPDEST SWAP3 POP DUP3 PUSH2 0x1DFC JUMPI PUSH2 0x1DFB PUSH2 0x1DAA JUMP JUMPDEST JUMPDEST DUP3 DUP3 DIV SWAP1 POP SWAP3 SWAP2 POP POP JUMP JUMPDEST PUSH0 PUSH2 0x1E11 DUP3 PUSH2 0x1549 JUMP JUMPDEST SWAP2 POP PUSH2 0x1E1C DUP4 PUSH2 0x1549 JUMP JUMPDEST SWAP3 POP DUP3 DUP3 ADD SWAP1 POP DUP1 DUP3 GT ISZERO PUSH2 0x1E34 JUMPI PUSH2 0x1E33 PUSH2 0x1D3C JUMP JUMPDEST JUMPDEST SWAP3 SWAP2 POP POP JUMP JUMPDEST PUSH32 0x6163636573732064656E69656400000000000000000000000000000000000000 PUSH0 DUP3 ADD MSTORE POP JUMP JUMPDEST PUSH0 PUSH2 0x1E6E PUSH1 0xD DUP4 PUSH2 0x1CC4 JUMP JUMPDEST SWAP2 POP PUSH2 0x1E79 DUP3 PUSH2 0x1E3A JUMP JUMPDEST PUSH1 0x20 DUP3 ADD SWAP1 POP SWAP2 SWAP1 POP JUMP JUMPDEST PUSH0 PUSH1 0x20 DUP3 ADD SWAP1 POP DUP2 DUP2 SUB PUSH0 DUP4 ADD MSTORE PUSH2 0x1E9B DUP2 PUSH2 0x1E62 JUMP JUMPDEST SWAP1 POP SWAP2 SWAP1 POP JUMP JUMPDEST PUSH32 0x4F6E6C79206F70657261746F722063616E2063616C6C20746869732066756E63 PUSH0 DUP3 ADD MSTORE PUSH32 0x74696F6E00000000000000000000000000000000000000000000000000000000 PUSH1 0x20 DUP3 ADD MSTORE POP JUMP JUMPDEST PUSH0 PUSH2 0x1EFC PUSH1 0x24 DUP4 PUSH2 0x1CC4 JUMP JUMPDEST SWAP2 POP PUSH2 0x1F07 DUP3 PUSH2 0x1EA2 JUMP JUMPDEST PUSH1 0x40 DUP3 ADD SWAP1 POP SWAP2 SWAP1 POP JUMP JUMPDEST PUSH0 PUSH1 0x20 DUP3 ADD SWAP1 POP DUP2 DUP2 SUB PUSH0 DUP4 ADD MSTORE PUSH2 0x1F29 DUP2 PUSH2 0x1EF0 JUMP JUMPDEST SWAP1 POP SWAP2 SWAP1 POP JUMP JUMPDEST PUSH0 PUSH2 0x1F3A DUP3 PUSH2 0x1549 JUMP JUMPDEST SWAP2 POP PUSH32 0xFFFFFFFFFFFFFFFFFFFFFFFFFFFFFFFFFFFFFFFFFFFFFFFFFFFFFFFFFFFFFFFF DUP3 SUB PUSH2 0x1F6C JUMPI PUSH2 0x1F6B PUSH2 0x1D3C JUMP JUMPDEST JUMPDEST PUSH1 0x1 DUP3 ADD SWAP1 POP SWAP2 SWAP1 POP JUMP JUMPDEST PUSH32 0x616C726561647920696E697469616C697A656400000000000000000000000000 PUSH0 DUP3 ADD MSTORE POP JUMP JUMPDEST PUSH0 PUSH2 0x1FAB PUSH1 0x13 DUP4 PUSH2 0x1CC4 JUMP JUMPDEST SWAP2 POP PUSH2 0x1FB6 DUP3 PUSH2 0x1F77 JUMP JUMPDEST PUSH1 0x20 DUP3 ADD SWAP1 POP SWAP2 SWAP1 POP JUMP JUMPDEST PUSH0 PUSH1 0x20 DUP3 ADD SWAP1 POP DUP2 DUP2 SUB PUSH0 DUP4 ADD MSTORE PUSH2 0x1FD8 DUP2 PUSH2 0x1F9F JUMP JUMPDEST SWAP1 POP SWAP2 SWAP1 POP JUMP JUMPDEST PUSH0 PUSH1 0x60 DUP3 ADD SWAP1 POP PUSH2 0x1FF2 PUSH0 DUP4 ADD DUP7 PUSH2 0x1881 JUMP JUMPDEST PUSH2 0x1FFF PUSH1 0x20 DUP4 ADD DUP6 PUSH2 0x1881 JUMP JUMPDEST PUSH2 0x200C PUSH1 0x40 DUP4 ADD DUP5 PUSH2 0x1785 JUMP JUMPDEST SWAP5 SWAP4 POP POP POP POP JUMP JUMPDEST PUSH0 DUP2 MLOAD SWAP1 POP SWAP2 SWAP1 POP JUMP JUMPDEST PUSH0 DUP2 SWAP1 POP SWAP3 SWAP2 POP POP JUMP JUMPDEST PUSH0 JUMPDEST DUP4 DUP2 LT ISZERO PUSH2 0x2045 JUMPI DUP1 DUP3 ADD MLOAD DUP2 DUP5 ADD MSTORE PUSH1 0x20 DUP2 ADD SWAP1 POP PUSH2 0x202A JUMP JUMPDEST PUSH0 DUP5 DUP5 ADD MSTORE POP POP POP POP JUMP JUMPDEST PUSH0 PUSH2 0x205A DUP3 PUSH2 0x2014 JUMP JUMPDEST PUSH2 0x2064 DUP2 DUP6 PUSH2 0x201E JUMP JUMPDEST SWAP4 POP PUSH2 0x2074 DUP2 DUP6 PUSH1 0x20 DUP7 ADD PUSH2 0x2028 JUMP JUMPDEST DUP1 DUP5 ADD SWAP2 POP POP SWAP3 SWAP2 POP POP JUMP JUMPDEST PUSH0 PUSH2 0x208B DUP3 DUP5 PUSH2 0x2050 JUMP JUMPDEST SWAP2 POP DUP2 SWAP1 POP SWAP3 SWAP2 POP POP JUMP JUMPDEST PUSH32 0x756E7375636365737366756C0000000000000000000000000000000000000000 PUSH0 DUP3 ADD MSTORE POP JUMP JUMPDEST PUSH0 PUSH2 0x20CA PUSH1 0xC DUP4 PUSH2 0x1CC4 JUMP JUMPDEST SWAP2 POP PUSH2 0x20D5 DUP3 PUSH2 0x2096 JUMP JUMPDEST PUSH1 0x20 DUP3 ADD SWAP1 POP SWAP2 SWAP1 POP JUMP JUMPDEST PUSH0 PUSH1 0x20 DUP3 ADD SWAP1 POP DUP2 DUP2 SUB PUSH0 DUP4 ADD MSTORE PUSH2 0x20F7 DUP2 PUSH2 0x20BE JUMP JUMPDEST SWAP1 POP SWAP2 SWAP1 POP JUMP JUMPDEST PUSH0 DUP2 SWAP1 POP SWAP3 SWAP2 POP POP JUMP JUMPDEST DUP3 DUP2 DUP4 CALLDATACOPY PUSH0 DUP4 DUP4 ADD MSTORE POP POP POP JUMP JUMPDEST PUSH0 PUSH2 0x2121 DUP4 DUP6 PUSH2 0x20FE JUMP JUMPDEST SWAP4 POP PUSH2 0x212E DUP4 DUP6 DUP5 PUSH2 0x2108 JUMP JUMPDEST DUP3 DUP5 ADD SWAP1 POP SWAP4 SWAP3 POP POP POP JUMP JUMPDEST PUSH0 PUSH2 0x2146 DUP3 DUP5 DUP7 PUSH2 0x2116 JUMP JUMPDEST SWAP2 POP DUP2 SWAP1 POP SWAP4 SWAP3 POP POP POP JUMP JUMPDEST PUSH32 0x77726F6E672070617373636F6465000000000000000000000000000000000000 PUSH0 DUP3 ADD MSTORE POP JUMP JUMPDEST PUSH0 PUSH2 0x2186 PUSH1 0xE DUP4 PUSH2 0x1CC4 JUMP JUMPDEST SWAP2 POP PUSH2 0x2191 DUP3 PUSH2 0x2152 JUMP JUMPDEST PUSH1 0x20 DUP3 ADD SWAP1 POP SWAP2 SWAP1 POP JUMP JUMPDEST PUSH0 PUSH1 0x20 DUP3 ADD SWAP1 POP DUP2 DUP2 SUB PUSH0 DUP4 ADD MSTORE PUSH2 0x21B3 DUP2 PUSH2 0x217A JUMP JUMPDEST SWAP1 POP SWAP2 SWAP1 POP JUMP JUMPDEST PUSH0 PUSH1 0x40 DUP3 ADD SWAP1 POP PUSH2 0x21CD PUSH0 DUP4 ADD DUP6 PUSH2 0x1881 JUMP JUMPDEST PUSH2 0x21DA PUSH1 0x20 DUP4 ADD DUP5 PUSH2 0x1785 JUMP JUMPDEST SWAP4 SWAP3 POP POP POP JUMP JUMPDEST PUSH0 DUP3 DUP3 MSTORE PUSH1 0x20 DUP3 ADD SWAP1 POP SWAP3 SWAP2 POP POP JUMP JUMPDEST PUSH0 PUSH1 0x1F NOT PUSH1 0x1F DUP4 ADD AND SWAP1 POP SWAP2 SWAP1 POP JUMP JUMPDEST PUSH0 PUSH2 0x220C DUP4 DUP6 PUSH2 0x21E1 JUMP JUMPDEST SWAP4 POP PUSH2 0x2219 DUP4 DUP6 DUP5 PUSH2 0x2108 JUMP JUMPDEST PUSH2 0x2222 DUP4 PUSH2 0x21F1 JUMP JUMPDEST DUP5 ADD SWAP1 POP SWAP4 SWAP3 POP POP POP JUMP JUMPDEST PUSH0 PUSH1 0xA0 DUP3 ADD SWAP1 POP PUSH2 0x2240 PUSH0 DUP4 ADD DUP10 PUSH2 0x1881 JUMP JUMPDEST PUSH2 0x224D PUSH1 0x20 DUP4 ADD DUP9 PUSH2 0x1881 JUMP JUMPDEST PUSH2 0x225A PUSH1 0x40 DUP4 ADD DUP8 PUSH2 0x1785 JUMP JUMPDEST PUSH2 0x2267 PUSH1 0x60 DUP4 ADD DUP7 PUSH2 0x1785 JUMP JUMPDEST DUP2 DUP2 SUB PUSH1 0x80 DUP4 ADD MSTORE PUSH2 0x227A DUP2 DUP5 DUP7 PUSH2 0x2201 JUMP JUMPDEST SWAP1 POP SWAP8 SWAP7 POP POP POP POP POP POP POP JUMP INVALID LOG2 PUSH5 0x6970667358 0x22 SLT KECCAK256 0x1F COINBASE LOG2 LOG4 NOT ISZERO SLT 0xD0 CALLDATACOPY PUSH29 0x7BD24FB10C1326098707FACCB49724B94F059675D36564736F6C634300 ADDMOD XOR STOP CALLER "
		},
		"gasEstimates": {
			"creation": {
				"codeDepositCost": "1778600",
				"executionCost": "infinite",
				"totalCost": "infinite"
			},
			"external": {
				"": "196",
				"addRecovery(bytes32[],bytes32,uint256)": "infinite",
				"getAddress()": "468",
				"getBalance()": "357",
				"getNonce()": "2476",
				"getOperator()": "2603",
				"getRecoveryInfo()": "infinite",
				"handleTransaction()": "infinite",
				"kinRecovery()": "infinite",
				"onERC1155BatchReceived(address,address,uint256,uint256,bytes)": "infinite",
				"onERC1155BatchReceived(address,address,uint256[],uint256[],bytes)": "infinite",
				"onERC721Received(address,address,uint256,bytes)": "infinite",
				"pingWallet()": "24541",
				"recoverAccount(string,address)": "infinite",
				"transferERC1155(address,address,uint256,uint256,bytes)": "infinite",
				"transferERC20(address,address,uint256)": "infinite",
				"transferERC721(address,address,uint256)": "infinite",
				"transferNative(address,uint256)": "infinite"
			},
			"internal": {
				"updateRegistry(address)": "infinite"
			}
		},
		"methodIdentifiers": {
			"addRecovery(bytes32[],bytes32,uint256)": "06c460cc",
			"getAddress()": "38cc4831",
			"getBalance()": "12065fe0",
			"getNonce()": "d087d288",
			"getOperator()": "e7f43c68",
			"getRecoveryInfo()": "89ab6fb4",
			"handleTransaction()": "04cfc5c9",
			"kinRecovery()": "0447ccec",
			"onERC1155BatchReceived(address,address,uint256,uint256,bytes)": "0c97e564",
			"onERC1155BatchReceived(address,address,uint256[],uint256[],bytes)": "bc197c81",
			"onERC721Received(address,address,uint256,bytes)": "150b7a02",
			"pingWallet()": "f9f82a0d",
			"recoverAccount(string,address)": "7f121452",
			"transferERC1155(address,address,uint256,uint256,bytes)": "dbecc616",
			"transferERC20(address,address,uint256)": "9db5dbe4",
			"transferERC721(address,address,uint256)": "1aca6376",
			"transferNative(address,uint256)": "7d2e90c2"
		}
	},
	"abi": [
		{
			"inputs": [
				{
					"internalType": "address",
					"name": "_operator",
					"type": "address"
				},
				{
					"internalType": "address",
					"name": "_registry",
					"type": "address"
				}
			],
			"stateMutability": "nonpayable",
			"type": "constructor"
		},
		{
			"stateMutability": "payable",
			"type": "fallback"
		},
		{
			"inputs": [
				{
					"internalType": "bytes32[]",
					"name": "_canRecover",
					"type": "bytes32[]"
				},
				{
					"internalType": "bytes32",
					"name": "_passcodeHash",
					"type": "bytes32"
				},
				{
					"internalType": "uint256",
					"name": "window",
					"type": "uint256"
				}
			],
			"name": "addRecovery",
			"outputs": [],
			"stateMutability": "nonpayable",
			"type": "function"
		},
		{
			"inputs": [],
			"name": "getAddress",
			"outputs": [
				{
					"internalType": "address",
					"name": "",
					"type": "address"
				}
			],
			"stateMutability": "view",
			"type": "function"
		},
		{
			"inputs": [],
			"name": "getBalance",
			"outputs": [
				{
					"internalType": "uint256",
					"name": "",
					"type": "uint256"
				}
			],
			"stateMutability": "view",
			"type": "function"
		},
		{
			"inputs": [],
			"name": "getNonce",
			"outputs": [
				{
					"internalType": "uint256",
					"name": "",
					"type": "uint256"
				}
			],
			"stateMutability": "view",
			"type": "function"
		},
		{
			"inputs": [],
			"name": "getOperator",
			"outputs": [
				{
					"internalType": "address",
					"name": "",
					"type": "address"
				}
			],
			"stateMutability": "view",
			"type": "function"
		},
		{
			"inputs": [],
			"name": "getRecoveryInfo",
			"outputs": [
				{
					"components": [
						{
							"internalType": "bytes32[]",
							"name": "canRecover",
							"type": "bytes32[]"
						},
						{
							"internalType": "bytes32",
							"name": "passcodeHash",
							"type": "bytes32"
						},
						{
							"internalType": "uint256",
							"name": "window",
							"type": "uint256"
						},
						{
							"internalType": "uint256",
							"name": "pingedAt",
							"type": "uint256"
						},
						{
							"internalType": "bool",
							"name": "initialized",
							"type": "bool"
						}
					],
					"internalType": "struct Recovery",
					"name": "",
					"type": "tuple"
				}
			],
			"stateMutability": "view",
			"type": "function"
		},
		{
			"inputs": [],
			"name": "handleTransaction",
			"outputs": [],
			"stateMutability": "payable",
			"type": "function"
		},
		{
			"inputs": [],
			"name": "kinRecovery",
			"outputs": [],
			"stateMutability": "nonpayable",
			"type": "function"
		},
		{
			"inputs": [
				{
					"internalType": "address",
					"name": "_operator",
					"type": "address"
				},
				{
					"internalType": "address",
					"name": "from",
					"type": "address"
				},
				{
					"internalType": "uint256",
					"name": "id",
					"type": "uint256"
				},
				{
					"internalType": "uint256",
					"name": "value",
					"type": "uint256"
				},
				{
					"internalType": "bytes",
					"name": "data",
					"type": "bytes"
				}
			],
			"name": "onERC1155BatchReceived",
			"outputs": [
				{
					"internalType": "bytes4",
					"name": "",
					"type": "bytes4"
				}
			],
			"stateMutability": "pure",
			"type": "function"
		},
		{
			"inputs": [
				{
					"internalType": "address",
					"name": "_operator",
					"type": "address"
				},
				{
					"internalType": "address",
					"name": "from",
					"type": "address"
				},
				{
					"internalType": "uint256[]",
					"name": "ids",
					"type": "uint256[]"
				},
				{
					"internalType": "uint256[]",
					"name": "values",
					"type": "uint256[]"
				},
				{
					"internalType": "bytes",
					"name": "data",
					"type": "bytes"
				}
			],
			"name": "onERC1155BatchReceived",
			"outputs": [
				{
					"internalType": "bytes4",
					"name": "",
					"type": "bytes4"
				}
			],
			"stateMutability": "pure",
			"type": "function"
		},
		{
			"inputs": [
				{
					"internalType": "address",
					"name": "a",
					"type": "address"
				},
				{
					"internalType": "address",
					"name": "b",
					"type": "address"
				},
				{
					"internalType": "uint256",
					"name": "c",
					"type": "uint256"
				},
				{
					"internalType": "bytes",
					"name": "d",
					"type": "bytes"
				}
			],
			"name": "onERC721Received",
			"outputs": [
				{
					"internalType": "bytes4",
					"name": "",
					"type": "bytes4"
				}
			],
			"stateMutability": "pure",
			"type": "function"
		},
		{
			"inputs": [],
			"name": "pingWallet",
			"outputs": [],
			"stateMutability": "nonpayable",
			"type": "function"
		},
		{
			"inputs": [
				{
					"internalType": "string",
					"name": "_passcode",
					"type": "string"
				},
				{
					"internalType": "address",
					"name": "_newAccount",
					"type": "address"
				}
			],
			"name": "recoverAccount",
			"outputs": [],
			"stateMutability": "nonpayable",
			"type": "function"
		},
		{
			"inputs": [
				{
					"internalType": "address",
					"name": "token",
					"type": "address"
				},
				{
					"internalType": "address",
					"name": "to",
					"type": "address"
				},
				{
					"internalType": "uint256",
					"name": "id",
					"type": "uint256"
				},
				{
					"internalType": "uint256",
					"name": "amount",
					"type": "uint256"
				},
				{
					"internalType": "bytes",
					"name": "data",
					"type": "bytes"
				}
			],
			"name": "transferERC1155",
			"outputs": [],
			"stateMutability": "nonpayable",
			"type": "function"
		},
		{
			"inputs": [
				{
					"internalType": "address",
					"name": "token",
					"type": "address"
				},
				{
					"internalType": "address",
					"name": "to",
					"type": "address"
				},
				{
					"internalType": "uint256",
					"name": "amount",
					"type": "uint256"
				}
			],
			"name": "transferERC20",
			"outputs": [],
			"stateMutability": "nonpayable",
			"type": "function"
		},
		{
			"inputs": [
				{
					"internalType": "address",
					"name": "token",
					"type": "address"
				},
				{
					"internalType": "address",
					"name": "to",
					"type": "address"
				},
				{
					"internalType": "uint256",
					"name": "id",
					"type": "uint256"
				}
			],
			"name": "transferERC721",
			"outputs": [],
			"stateMutability": "nonpayable",
			"type": "function"
		},
		{
			"inputs": [
				{
					"internalType": "address",
					"name": "to",
					"type": "address"
				},
				{
					"internalType": "uint256",
					"name": "amount",
					"type": "uint256"
				}
			],
			"name": "transferNative",
			"outputs": [],
			"stateMutability": "nonpayable",
			"type": "function"
		},
		{
			"stateMutability": "payable",
			"type": "receive"
		}
	]
}